{
  "_format": "hh-sol-artifact-1",
  "contractName": "veAllocate",
  "sourceName": "contracts/ve/veAllocate.sol",
  "abi": [
    {
      "anonymous": false,
      "inputs": [
        {
          "indexed": true,
          "internalType": "address",
          "name": "sender",
          "type": "address"
        },
        {
          "indexed": true,
          "internalType": "address",
          "name": "nft",
          "type": "address"
        },
        {
          "indexed": true,
          "internalType": "uint256",
          "name": "chainId",
          "type": "uint256"
        },
        {
          "indexed": false,
          "internalType": "uint256",
          "name": "amount",
          "type": "uint256"
        }
      ],
      "name": "AllocationSet",
      "type": "event"
    },
    {
      "anonymous": false,
      "inputs": [
        {
          "indexed": true,
          "internalType": "address",
          "name": "sender",
          "type": "address"
        },
        {
          "indexed": false,
          "internalType": "address[]",
          "name": "nft",
          "type": "address[]"
        },
        {
          "indexed": false,
          "internalType": "uint256[]",
          "name": "chainId",
          "type": "uint256[]"
        },
        {
          "indexed": false,
          "internalType": "uint256[]",
          "name": "amount",
          "type": "uint256[]"
        }
      ],
      "name": "AllocationSetMultiple",
      "type": "event"
    },
    {
      "inputs": [
        {
          "internalType": "address",
          "name": "user",
          "type": "address"
        }
      ],
      "name": "getTotalAllocation",
      "outputs": [
        {
          "internalType": "uint256",
          "name": "",
          "type": "uint256"
        }
      ],
      "stateMutability": "view",
      "type": "function"
    },
    {
      "inputs": [
        {
          "internalType": "address",
          "name": "user",
          "type": "address"
        },
        {
          "internalType": "address",
          "name": "nft",
          "type": "address"
        },
        {
          "internalType": "uint256",
          "name": "chainid",
          "type": "uint256"
        }
      ],
      "name": "getveAllocation",
      "outputs": [
        {
          "internalType": "uint256",
          "name": "",
          "type": "uint256"
        }
      ],
      "stateMutability": "view",
      "type": "function"
    },
    {
      "inputs": [
        {
          "internalType": "uint256",
          "name": "amount",
          "type": "uint256"
        },
        {
          "internalType": "address",
          "name": "nft",
          "type": "address"
        },
        {
          "internalType": "uint256",
          "name": "chainId",
          "type": "uint256"
        }
      ],
      "name": "setAllocation",
      "outputs": [],
      "stateMutability": "nonpayable",
      "type": "function"
    },
    {
      "inputs": [
        {
          "internalType": "uint256[]",
          "name": "amount",
          "type": "uint256[]"
        },
        {
          "internalType": "address[]",
          "name": "nft",
          "type": "address[]"
        },
        {
          "internalType": "uint256[]",
          "name": "chainId",
          "type": "uint256[]"
        }
      ],
      "name": "setBatchAllocation",
      "outputs": [],
      "stateMutability": "nonpayable",
      "type": "function"
    }
  ],
  "bytecode": "0x6080604052348015600f57600080fd5b506107d58061001f6000396000f3fe608060405234801561001057600080fd5b506004361061004c5760003560e01c8063540ffae8146100515780639bf648d314610066578063b38e9637146100b6578063c49a153e146100c9575b600080fd5b61006461005f366004610527565b6100f2565b005b6100a461007436600461055d565b6001600160a01b039283166000908152602081815260408083209490951682529283528381209181529152205490565b60405190815260200160405180910390f35b6100646100c43660046105d5565b6101fb565b6100a46100d736600461067b565b6001600160a01b031660009081526001602052604090205490565b336000818152602081815260408083206001600160a01b0387168452825280832085845282528083205493835260019091529020546101329085906106b3565b61013c91906106cc565b33600090815260016020526040902081905561271010156101955760405162461bcd60e51b815260206004820152600e60248201526d26b0bc1020b63637b1b0ba34b7b760911b60448201526064015b60405180910390fd5b336000818152602081815260408083206001600160a01b038716808552908352818420868552835292819020879055518681528493917fa147c6cd0dd0fe2f649713a01540a2dcc9a47d469fb689f358031bf7f2f67011910160405180910390a4505050565b60968511156102425760405162461bcd60e51b8152602060048201526013602482015272546f6f204d616e79204f7065726174696f6e7360681b604482015260640161018c565b8483146102915760405162461bcd60e51b815260206004820152601860248201527f4e66742061727261792073697a65206d6973736d617463680000000000000000604482015260640161018c565b8481146102e05760405162461bcd60e51b815260206004820152601a60248201527f436861696e2061727261792073697a65206d6973736d61746368000000000000604482015260640161018c565b60005b85811015610465573360009081526020819052604081209086868481811061030d5761030d6106df565b9050602002016020810190610322919061067b565b6001600160a01b03166001600160a01b031681526020019081526020016000206000848484818110610356576103566106df565b9050602002013581526020019081526020016000205487878381811061037e5761037e6106df565b336000908152600160209081526040909120546103a29491909202013591506106b3565b6103ac91906106cc565b336000908152600160205260409020558686828181106103ce576103ce6106df565b33600090815260208181526040822092029390930135929091508787858181106103fa576103fa6106df565b905060200201602081019061040f919061067b565b6001600160a01b03166001600160a01b031681526020019081526020016000206000858585818110610443576104436106df565b60209081029290920135835250810191909152604001600020556001016102e3565b503360009081526001602052604090205461271010156104b85760405162461bcd60e51b815260206004820152600e60248201526d26b0bc1020b63637b1b0ba34b7b760911b604482015260640161018c565b336001600160a01b03167f40b9a90d4d04a363a00e6fd9afa85f7336a56acbfad813c80d2030f9390302d2858585858b8b6040516104fb96959493929190610727565b60405180910390a2505050505050565b80356001600160a01b038116811461052257600080fd5b919050565b60008060006060848603121561053c57600080fd5b8335925061054c6020850161050b565b929592945050506040919091013590565b60008060006060848603121561057257600080fd5b61057b8461050b565b925061054c6020850161050b565b60008083601f84011261059b57600080fd5b50813567ffffffffffffffff8111156105b357600080fd5b6020830191508360208260051b85010111156105ce57600080fd5b9250929050565b600080600080600080606087890312156105ee57600080fd5b863567ffffffffffffffff81111561060557600080fd5b61061189828a01610589565b909750955050602087013567ffffffffffffffff81111561063157600080fd5b61063d89828a01610589565b909550935050604087013567ffffffffffffffff81111561065d57600080fd5b61066989828a01610589565b979a9699509497509295939492505050565b60006020828403121561068d57600080fd5b6106968261050b565b9392505050565b634e487b7160e01b600052601160045260246000fd5b808201808211156106c6576106c661069d565b92915050565b818103818111156106c6576106c661069d565b634e487b7160e01b600052603260045260246000fd5b81835260006001600160fb1b0383111561070e57600080fd5b8260051b80836020870137939093016020019392505050565b6060808252810186905260008760808301825b89811015610768576001600160a01b036107538461050b565b1682526020928301929091019060010161073a565b50838103602085015261077c81888a6106f5565b91505082810360408401526107928185876106f5565b999850505050505050505056fea264697066735822122035d7bc198e03436799c57ae8aa3b999ef672cb99d7fefe389f86eb8aae80545464736f6c634300081a0033",
  "linkReferences": {},
  "deployedLinkReferences": {}
}