{"contracts/ve/veAllocate.sol":{"veAllocate":{"abi":[{"anonymous":false,"inputs":[{"indexed":true,"internalType":"address","name":"sender","type":"address"},{"indexed":true,"internalType":"address","name":"nft","type":"address"},{"indexed":true,"internalType":"uint256","name":"chainId","type":"uint256"},{"indexed":false,"internalType":"uint256","name":"amount","type":"uint256"}],"name":"AllocationSet","type":"event"},{"anonymous":false,"inputs":[{"indexed":true,"internalType":"address","name":"sender","type":"address"},{"indexed":false,"internalType":"address[]","name":"nft","type":"address[]"},{"indexed":false,"internalType":"uint256[]","name":"chainId","type":"uint256[]"},{"indexed":false,"internalType":"uint256[]","name":"amount","type":"uint256[]"}],"name":"AllocationSetMultiple","type":"event"},{"inputs":[{"internalType":"address","name":"user","type":"address"}],"name":"getTotalAllocation","outputs":[{"internalType":"uint256","name":"","type":"uint256"}],"stateMutability":"view","type":"function"},{"inputs":[{"internalType":"address","name":"user","type":"address"},{"internalType":"address","name":"nft","type":"address"},{"internalType":"uint256","name":"chainid","type":"uint256"}],"name":"getveAllocation","outputs":[{"internalType":"uint256","name":"","type":"uint256"}],"stateMutability":"view","type":"function"},{"inputs":[{"internalType":"uint256","name":"amount","type":"uint256"},{"internalType":"address","name":"nft","type":"address"},{"internalType":"uint256","name":"chainId","type":"uint256"}],"name":"setAllocation","outputs":[],"stateMutability":"nonpayable","type":"function"},{"inputs":[{"internalType":"uint256[]","name":"amount","type":"uint256[]"},{"internalType":"address[]","name":"nft","type":"address[]"},{"internalType":"uint256[]","name":"chainId","type":"uint256[]"}],"name":"setBatchAllocation","outputs":[],"stateMutability":"nonpayable","type":"function"}],"evm":{"bytecode":{"linkReferences":{},"object":"6080604052348015600f57600080fd5b506107d58061001f6000396000f3fe608060405234801561001057600080fd5b506004361061004c5760003560e01c8063540ffae8146100515780639bf648d314610066578063b38e9637146100b6578063c49a153e146100c9575b600080fd5b61006461005f366004610527565b6100f2565b005b6100a461007436600461055d565b6001600160a01b039283166000908152602081815260408083209490951682529283528381209181529152205490565b60405190815260200160405180910390f35b6100646100c43660046105d5565b6101fb565b6100a46100d736600461067b565b6001600160a01b031660009081526001602052604090205490565b336000818152602081815260408083206001600160a01b0387168452825280832085845282528083205493835260019091529020546101329085906106b3565b61013c91906106cc565b33600090815260016020526040902081905561271010156101955760405162461bcd60e51b815260206004820152600e60248201526d26b0bc1020b63637b1b0ba34b7b760911b60448201526064015b60405180910390fd5b336000818152602081815260408083206001600160a01b038716808552908352818420868552835292819020879055518681528493917fa147c6cd0dd0fe2f649713a01540a2dcc9a47d469fb689f358031bf7f2f67011910160405180910390a4505050565b60968511156102425760405162461bcd60e51b8152602060048201526013602482015272546f6f204d616e79204f7065726174696f6e7360681b604482015260640161018c565b8483146102915760405162461bcd60e51b815260206004820152601860248201527f4e66742061727261792073697a65206d6973736d617463680000000000000000604482015260640161018c565b8481146102e05760405162461bcd60e51b815260206004820152601a60248201527f436861696e2061727261792073697a65206d6973736d61746368000000000000604482015260640161018c565b60005b85811015610465573360009081526020819052604081209086868481811061030d5761030d6106df565b9050602002016020810190610322919061067b565b6001600160a01b03166001600160a01b031681526020019081526020016000206000848484818110610356576103566106df565b9050602002013581526020019081526020016000205487878381811061037e5761037e6106df565b336000908152600160209081526040909120546103a29491909202013591506106b3565b6103ac91906106cc565b336000908152600160205260409020558686828181106103ce576103ce6106df565b33600090815260208181526040822092029390930135929091508787858181106103fa576103fa6106df565b905060200201602081019061040f919061067b565b6001600160a01b03166001600160a01b031681526020019081526020016000206000858585818110610443576104436106df565b60209081029290920135835250810191909152604001600020556001016102e3565b503360009081526001602052604090205461271010156104b85760405162461bcd60e51b815260206004820152600e60248201526d26b0bc1020b63637b1b0ba34b7b760911b604482015260640161018c565b336001600160a01b03167f40b9a90d4d04a363a00e6fd9afa85f7336a56acbfad813c80d2030f9390302d2858585858b8b6040516104fb96959493929190610727565b60405180910390a2505050505050565b80356001600160a01b038116811461052257600080fd5b919050565b60008060006060848603121561053c57600080fd5b8335925061054c6020850161050b565b929592945050506040919091013590565b60008060006060848603121561057257600080fd5b61057b8461050b565b925061054c6020850161050b565b60008083601f84011261059b57600080fd5b50813567ffffffffffffffff8111156105b357600080fd5b6020830191508360208260051b85010111156105ce57600080fd5b9250929050565b600080600080600080606087890312156105ee57600080fd5b863567ffffffffffffffff81111561060557600080fd5b61061189828a01610589565b909750955050602087013567ffffffffffffffff81111561063157600080fd5b61063d89828a01610589565b909550935050604087013567ffffffffffffffff81111561065d57600080fd5b61066989828a01610589565b979a9699509497509295939492505050565b60006020828403121561068d57600080fd5b6106968261050b565b9392505050565b634e487b7160e01b600052601160045260246000fd5b808201808211156106c6576106c661069d565b92915050565b818103818111156106c6576106c661069d565b634e487b7160e01b600052603260045260246000fd5b81835260006001600160fb1b0383111561070e57600080fd5b8260051b80836020870137939093016020019392505050565b6060808252810186905260008760808301825b89811015610768576001600160a01b036107538461050b565b1682526020928301929091019060010161073a565b50838103602085015261077c81888a6106f5565b91505082810360408401526107928185876106f5565b999850505050505050505056fea264697066735822122035d7bc198e03436799c57ae8aa3b999ef672cb99d7fefe389f86eb8aae80545464736f6c634300081a0033","opcodes":"PUSH1 0x80 PUSH1 0x40 MSTORE CALLVALUE DUP1 ISZERO PUSH1 0xF JUMPI PUSH1 0x0 DUP1 REVERT JUMPDEST POP PUSH2 0x7D5 DUP1 PUSH2 0x1F PUSH1 0x0 CODECOPY PUSH1 0x0 RETURN INVALID PUSH1 0x80 PUSH1 0x40 MSTORE CALLVALUE DUP1 ISZERO PUSH2 0x10 JUMPI PUSH1 0x0 DUP1 REVERT JUMPDEST POP PUSH1 0x4 CALLDATASIZE LT PUSH2 0x4C JUMPI PUSH1 0x0 CALLDATALOAD PUSH1 0xE0 SHR DUP1 PUSH4 0x540FFAE8 EQ PUSH2 0x51 JUMPI DUP1 PUSH4 0x9BF648D3 EQ PUSH2 0x66 JUMPI DUP1 PUSH4 0xB38E9637 EQ PUSH2 0xB6 JUMPI DUP1 PUSH4 0xC49A153E EQ PUSH2 0xC9 JUMPI JUMPDEST PUSH1 0x0 DUP1 REVERT JUMPDEST PUSH2 0x64 PUSH2 0x5F CALLDATASIZE PUSH1 0x4 PUSH2 0x527 JUMP JUMPDEST PUSH2 0xF2 JUMP JUMPDEST STOP JUMPDEST PUSH2 0xA4 PUSH2 0x74 CALLDATASIZE PUSH1 0x4 PUSH2 0x55D JUMP JUMPDEST PUSH1 0x1 PUSH1 0x1 PUSH1 0xA0 SHL SUB SWAP3 DUP4 AND PUSH1 0x0 SWAP1 DUP2 MSTORE PUSH1 0x20 DUP2 DUP2 MSTORE PUSH1 0x40 DUP1 DUP4 KECCAK256 SWAP5 SWAP1 SWAP6 AND DUP3 MSTORE SWAP3 DUP4 MSTORE DUP4 DUP2 KECCAK256 SWAP2 DUP2 MSTORE SWAP2 MSTORE KECCAK256 SLOAD SWAP1 JUMP JUMPDEST PUSH1 0x40 MLOAD SWAP1 DUP2 MSTORE PUSH1 0x20 ADD PUSH1 0x40 MLOAD DUP1 SWAP2 SUB SWAP1 RETURN JUMPDEST PUSH2 0x64 PUSH2 0xC4 CALLDATASIZE PUSH1 0x4 PUSH2 0x5D5 JUMP JUMPDEST PUSH2 0x1FB JUMP JUMPDEST PUSH2 0xA4 PUSH2 0xD7 CALLDATASIZE PUSH1 0x4 PUSH2 0x67B JUMP JUMPDEST PUSH1 0x1 PUSH1 0x1 PUSH1 0xA0 SHL SUB AND PUSH1 0x0 SWAP1 DUP2 MSTORE PUSH1 0x1 PUSH1 0x20 MSTORE PUSH1 0x40 SWAP1 KECCAK256 SLOAD SWAP1 JUMP JUMPDEST CALLER PUSH1 0x0 DUP2 DUP2 MSTORE PUSH1 0x20 DUP2 DUP2 MSTORE PUSH1 0x40 DUP1 DUP4 KECCAK256 PUSH1 0x1 PUSH1 0x1 PUSH1 0xA0 SHL SUB DUP8 AND DUP5 MSTORE DUP3 MSTORE DUP1 DUP4 KECCAK256 DUP6 DUP5 MSTORE DUP3 MSTORE DUP1 DUP4 KECCAK256 SLOAD SWAP4 DUP4 MSTORE PUSH1 0x1 SWAP1 SWAP2 MSTORE SWAP1 KECCAK256 SLOAD PUSH2 0x132 SWAP1 DUP6 SWAP1 PUSH2 0x6B3 JUMP JUMPDEST PUSH2 0x13C SWAP2 SWAP1 PUSH2 0x6CC JUMP JUMPDEST CALLER PUSH1 0x0 SWAP1 DUP2 MSTORE PUSH1 0x1 PUSH1 0x20 MSTORE PUSH1 0x40 SWAP1 KECCAK256 DUP2 SWAP1 SSTORE PUSH2 0x2710 LT ISZERO PUSH2 0x195 JUMPI PUSH1 0x40 MLOAD PUSH3 0x461BCD PUSH1 0xE5 SHL DUP2 MSTORE PUSH1 0x20 PUSH1 0x4 DUP3 ADD MSTORE PUSH1 0xE PUSH1 0x24 DUP3 ADD MSTORE PUSH14 0x26B0BC1020B63637B1B0BA34B7B7 PUSH1 0x91 SHL PUSH1 0x44 DUP3 ADD MSTORE PUSH1 0x64 ADD JUMPDEST PUSH1 0x40 MLOAD DUP1 SWAP2 SUB SWAP1 REVERT JUMPDEST CALLER PUSH1 0x0 DUP2 DUP2 MSTORE PUSH1 0x20 DUP2 DUP2 MSTORE PUSH1 0x40 DUP1 DUP4 KECCAK256 PUSH1 0x1 PUSH1 0x1 PUSH1 0xA0 SHL SUB DUP8 AND DUP1 DUP6 MSTORE SWAP1 DUP4 MSTORE DUP2 DUP5 KECCAK256 DUP7 DUP6 MSTORE DUP4 MSTORE SWAP3 DUP2 SWAP1 KECCAK256 DUP8 SWAP1 SSTORE MLOAD DUP7 DUP2 MSTORE DUP5 SWAP4 SWAP2 PUSH32 0xA147C6CD0DD0FE2F649713A01540A2DCC9A47D469FB689F358031BF7F2F67011 SWAP2 ADD PUSH1 0x40 MLOAD DUP1 SWAP2 SUB SWAP1 LOG4 POP POP POP JUMP JUMPDEST PUSH1 0x96 DUP6 GT ISZERO PUSH2 0x242 JUMPI PUSH1 0x40 MLOAD PUSH3 0x461BCD PUSH1 0xE5 SHL DUP2 MSTORE PUSH1 0x20 PUSH1 0x4 DUP3 ADD MSTORE PUSH1 0x13 PUSH1 0x24 DUP3 ADD MSTORE PUSH19 0x546F6F204D616E79204F7065726174696F6E73 PUSH1 0x68 SHL PUSH1 0x44 DUP3 ADD MSTORE PUSH1 0x64 ADD PUSH2 0x18C JUMP JUMPDEST DUP5 DUP4 EQ PUSH2 0x291 JUMPI PUSH1 0x40 MLOAD PUSH3 0x461BCD PUSH1 0xE5 SHL DUP2 MSTORE PUSH1 0x20 PUSH1 0x4 DUP3 ADD MSTORE PUSH1 0x18 PUSH1 0x24 DUP3 ADD MSTORE PUSH32 0x4E66742061727261792073697A65206D6973736D617463680000000000000000 PUSH1 0x44 DUP3 ADD MSTORE PUSH1 0x64 ADD PUSH2 0x18C JUMP JUMPDEST DUP5 DUP2 EQ PUSH2 0x2E0 JUMPI PUSH1 0x40 MLOAD PUSH3 0x461BCD PUSH1 0xE5 SHL DUP2 MSTORE PUSH1 0x20 PUSH1 0x4 DUP3 ADD MSTORE PUSH1 0x1A PUSH1 0x24 DUP3 ADD MSTORE PUSH32 0x436861696E2061727261792073697A65206D6973736D61746368000000000000 PUSH1 0x44 DUP3 ADD MSTORE PUSH1 0x64 ADD PUSH2 0x18C JUMP JUMPDEST PUSH1 0x0 JUMPDEST DUP6 DUP2 LT ISZERO PUSH2 0x465 JUMPI CALLER PUSH1 0x0 SWAP1 DUP2 MSTORE PUSH1 0x20 DUP2 SWAP1 MSTORE PUSH1 0x40 DUP2 KECCAK256 SWAP1 DUP7 DUP7 DUP5 DUP2 DUP2 LT PUSH2 0x30D JUMPI PUSH2 0x30D PUSH2 0x6DF JUMP JUMPDEST SWAP1 POP PUSH1 0x20 MUL ADD PUSH1 0x20 DUP2 ADD SWAP1 PUSH2 0x322 SWAP2 SWAP1 PUSH2 0x67B JUMP JUMPDEST PUSH1 0x1 PUSH1 0x1 PUSH1 0xA0 SHL SUB AND PUSH1 0x1 PUSH1 0x1 PUSH1 0xA0 SHL SUB AND DUP2 MSTORE PUSH1 0x20 ADD SWAP1 DUP2 MSTORE PUSH1 0x20 ADD PUSH1 0x0 KECCAK256 PUSH1 0x0 DUP5 DUP5 DUP5 DUP2 DUP2 LT PUSH2 0x356 JUMPI PUSH2 0x356 PUSH2 0x6DF JUMP JUMPDEST SWAP1 POP PUSH1 0x20 MUL ADD CALLDATALOAD DUP2 MSTORE PUSH1 0x20 ADD SWAP1 DUP2 MSTORE PUSH1 0x20 ADD PUSH1 0x0 KECCAK256 SLOAD DUP8 DUP8 DUP4 DUP2 DUP2 LT PUSH2 0x37E JUMPI PUSH2 0x37E PUSH2 0x6DF JUMP JUMPDEST CALLER PUSH1 0x0 SWAP1 DUP2 MSTORE PUSH1 0x1 PUSH1 0x20 SWAP1 DUP2 MSTORE PUSH1 0x40 SWAP1 SWAP2 KECCAK256 SLOAD PUSH2 0x3A2 SWAP5 SWAP2 SWAP1 SWAP3 MUL ADD CALLDATALOAD SWAP2 POP PUSH2 0x6B3 JUMP JUMPDEST PUSH2 0x3AC SWAP2 SWAP1 PUSH2 0x6CC JUMP JUMPDEST CALLER PUSH1 0x0 SWAP1 DUP2 MSTORE PUSH1 0x1 PUSH1 0x20 MSTORE PUSH1 0x40 SWAP1 KECCAK256 SSTORE DUP7 DUP7 DUP3 DUP2 DUP2 LT PUSH2 0x3CE JUMPI PUSH2 0x3CE PUSH2 0x6DF JUMP JUMPDEST CALLER PUSH1 0x0 SWAP1 DUP2 MSTORE PUSH1 0x20 DUP2 DUP2 MSTORE PUSH1 0x40 DUP3 KECCAK256 SWAP3 MUL SWAP4 SWAP1 SWAP4 ADD CALLDATALOAD SWAP3 SWAP1 SWAP2 POP DUP8 DUP8 DUP6 DUP2 DUP2 LT PUSH2 0x3FA JUMPI PUSH2 0x3FA PUSH2 0x6DF JUMP JUMPDEST SWAP1 POP PUSH1 0x20 MUL ADD PUSH1 0x20 DUP2 ADD SWAP1 PUSH2 0x40F SWAP2 SWAP1 PUSH2 0x67B JUMP JUMPDEST PUSH1 0x1 PUSH1 0x1 PUSH1 0xA0 SHL SUB AND PUSH1 0x1 PUSH1 0x1 PUSH1 0xA0 SHL SUB AND DUP2 MSTORE PUSH1 0x20 ADD SWAP1 DUP2 MSTORE PUSH1 0x20 ADD PUSH1 0x0 KECCAK256 PUSH1 0x0 DUP6 DUP6 DUP6 DUP2 DUP2 LT PUSH2 0x443 JUMPI PUSH2 0x443 PUSH2 0x6DF JUMP JUMPDEST PUSH1 0x20 SWAP1 DUP2 MUL SWAP3 SWAP1 SWAP3 ADD CALLDATALOAD DUP4 MSTORE POP DUP2 ADD SWAP2 SWAP1 SWAP2 MSTORE PUSH1 0x40 ADD PUSH1 0x0 KECCAK256 SSTORE PUSH1 0x1 ADD PUSH2 0x2E3 JUMP JUMPDEST POP CALLER PUSH1 0x0 SWAP1 DUP2 MSTORE PUSH1 0x1 PUSH1 0x20 MSTORE PUSH1 0x40 SWAP1 KECCAK256 SLOAD PUSH2 0x2710 LT ISZERO PUSH2 0x4B8 JUMPI PUSH1 0x40 MLOAD PUSH3 0x461BCD PUSH1 0xE5 SHL DUP2 MSTORE PUSH1 0x20 PUSH1 0x4 DUP3 ADD MSTORE PUSH1 0xE PUSH1 0x24 DUP3 ADD MSTORE PUSH14 0x26B0BC1020B63637B1B0BA34B7B7 PUSH1 0x91 SHL PUSH1 0x44 DUP3 ADD MSTORE PUSH1 0x64 ADD PUSH2 0x18C JUMP JUMPDEST CALLER PUSH1 0x1 PUSH1 0x1 PUSH1 0xA0 SHL SUB AND PUSH32 0x40B9A90D4D04A363A00E6FD9AFA85F7336A56ACBFAD813C80D2030F9390302D2 DUP6 DUP6 DUP6 DUP6 DUP12 DUP12 PUSH1 0x40 MLOAD PUSH2 0x4FB SWAP7 SWAP6 SWAP5 SWAP4 SWAP3 SWAP2 SWAP1 PUSH2 0x727 JUMP JUMPDEST PUSH1 0x40 MLOAD DUP1 SWAP2 SUB SWAP1 LOG2 POP POP POP POP POP POP JUMP JUMPDEST DUP1 CALLDATALOAD PUSH1 0x1 PUSH1 0x1 PUSH1 0xA0 SHL SUB DUP2 AND DUP2 EQ PUSH2 0x522 JUMPI PUSH1 0x0 DUP1 REVERT JUMPDEST SWAP2 SWAP1 POP JUMP JUMPDEST PUSH1 0x0 DUP1 PUSH1 0x0 PUSH1 0x60 DUP5 DUP7 SUB SLT ISZERO PUSH2 0x53C JUMPI PUSH1 0x0 DUP1 REVERT JUMPDEST DUP4 CALLDATALOAD SWAP3 POP PUSH2 0x54C PUSH1 0x20 DUP6 ADD PUSH2 0x50B JUMP JUMPDEST SWAP3 SWAP6 SWAP3 SWAP5 POP POP POP PUSH1 0x40 SWAP2 SWAP1 SWAP2 ADD CALLDATALOAD SWAP1 JUMP JUMPDEST PUSH1 0x0 DUP1 PUSH1 0x0 PUSH1 0x60 DUP5 DUP7 SUB SLT ISZERO PUSH2 0x572 JUMPI PUSH1 0x0 DUP1 REVERT JUMPDEST PUSH2 0x57B DUP5 PUSH2 0x50B JUMP JUMPDEST SWAP3 POP PUSH2 0x54C PUSH1 0x20 DUP6 ADD PUSH2 0x50B JUMP JUMPDEST PUSH1 0x0 DUP1 DUP4 PUSH1 0x1F DUP5 ADD SLT PUSH2 0x59B JUMPI PUSH1 0x0 DUP1 REVERT JUMPDEST POP DUP2 CALLDATALOAD PUSH8 0xFFFFFFFFFFFFFFFF DUP2 GT ISZERO PUSH2 0x5B3 JUMPI PUSH1 0x0 DUP1 REVERT JUMPDEST PUSH1 0x20 DUP4 ADD SWAP2 POP DUP4 PUSH1 0x20 DUP3 PUSH1 0x5 SHL DUP6 ADD ADD GT ISZERO PUSH2 0x5CE JUMPI PUSH1 0x0 DUP1 REVERT JUMPDEST SWAP3 POP SWAP3 SWAP1 POP JUMP JUMPDEST PUSH1 0x0 DUP1 PUSH1 0x0 DUP1 PUSH1 0x0 DUP1 PUSH1 0x60 DUP8 DUP10 SUB SLT ISZERO PUSH2 0x5EE JUMPI PUSH1 0x0 DUP1 REVERT JUMPDEST DUP7 CALLDATALOAD PUSH8 0xFFFFFFFFFFFFFFFF DUP2 GT ISZERO PUSH2 0x605 JUMPI PUSH1 0x0 DUP1 REVERT JUMPDEST PUSH2 0x611 DUP10 DUP3 DUP11 ADD PUSH2 0x589 JUMP JUMPDEST SWAP1 SWAP8 POP SWAP6 POP POP PUSH1 0x20 DUP8 ADD CALLDATALOAD PUSH8 0xFFFFFFFFFFFFFFFF DUP2 GT ISZERO PUSH2 0x631 JUMPI PUSH1 0x0 DUP1 REVERT JUMPDEST PUSH2 0x63D DUP10 DUP3 DUP11 ADD PUSH2 0x589 JUMP JUMPDEST SWAP1 SWAP6 POP SWAP4 POP POP PUSH1 0x40 DUP8 ADD CALLDATALOAD PUSH8 0xFFFFFFFFFFFFFFFF DUP2 GT ISZERO PUSH2 0x65D JUMPI PUSH1 0x0 DUP1 REVERT JUMPDEST PUSH2 0x669 DUP10 DUP3 DUP11 ADD PUSH2 0x589 JUMP JUMPDEST SWAP8 SWAP11 SWAP7 SWAP10 POP SWAP5 SWAP8 POP SWAP3 SWAP6 SWAP4 SWAP5 SWAP3 POP POP POP JUMP JUMPDEST PUSH1 0x0 PUSH1 0x20 DUP3 DUP5 SUB SLT ISZERO PUSH2 0x68D JUMPI PUSH1 0x0 DUP1 REVERT JUMPDEST PUSH2 0x696 DUP3 PUSH2 0x50B JUMP JUMPDEST SWAP4 SWAP3 POP POP POP JUMP JUMPDEST PUSH4 0x4E487B71 PUSH1 0xE0 SHL PUSH1 0x0 MSTORE PUSH1 0x11 PUSH1 0x4 MSTORE PUSH1 0x24 PUSH1 0x0 REVERT JUMPDEST DUP1 DUP3 ADD DUP1 DUP3 GT ISZERO PUSH2 0x6C6 JUMPI PUSH2 0x6C6 PUSH2 0x69D JUMP JUMPDEST SWAP3 SWAP2 POP POP JUMP JUMPDEST DUP2 DUP2 SUB DUP2 DUP2 GT ISZERO PUSH2 0x6C6 JUMPI PUSH2 0x6C6 PUSH2 0x69D JUMP JUMPDEST PUSH4 0x4E487B71 PUSH1 0xE0 SHL PUSH1 0x0 MSTORE PUSH1 0x32 PUSH1 0x4 MSTORE PUSH1 0x24 PUSH1 0x0 REVERT JUMPDEST DUP2 DUP4 MSTORE PUSH1 0x0 PUSH1 0x1 PUSH1 0x1 PUSH1 0xFB SHL SUB DUP4 GT ISZERO PUSH2 0x70E JUMPI PUSH1 0x0 DUP1 REVERT JUMPDEST DUP3 PUSH1 0x5 SHL DUP1 DUP4 PUSH1 0x20 DUP8 ADD CALLDATACOPY SWAP4 SWAP1 SWAP4 ADD PUSH1 0x20 ADD SWAP4 SWAP3 POP POP POP JUMP JUMPDEST PUSH1 0x60 DUP1 DUP3 MSTORE DUP2 ADD DUP7 SWAP1 MSTORE PUSH1 0x0 DUP8 PUSH1 0x80 DUP4 ADD DUP3 JUMPDEST DUP10 DUP2 LT ISZERO PUSH2 0x768 JUMPI PUSH1 0x1 PUSH1 0x1 PUSH1 0xA0 SHL SUB PUSH2 0x753 DUP5 PUSH2 0x50B JUMP JUMPDEST AND DUP3 MSTORE PUSH1 0x20 SWAP3 DUP4 ADD SWAP3 SWAP1 SWAP2 ADD SWAP1 PUSH1 0x1 ADD PUSH2 0x73A JUMP JUMPDEST POP DUP4 DUP2 SUB PUSH1 0x20 DUP6 ADD MSTORE PUSH2 0x77C DUP2 DUP9 DUP11 PUSH2 0x6F5 JUMP JUMPDEST SWAP2 POP POP DUP3 DUP2 SUB PUSH1 0x40 DUP5 ADD MSTORE PUSH2 0x792 DUP2 DUP6 DUP8 PUSH2 0x6F5 JUMP JUMPDEST SWAP10 SWAP9 POP POP POP POP POP POP POP POP POP JUMP INVALID LOG2 PUSH5 0x6970667358 0x22 SLT KECCAK256 CALLDATALOAD 0xD7 0xBC NOT DUP15 SUB NUMBER PUSH8 0x99C57AE8AA3B999E 0xF6 PUSH19 0xCB99D7FEFE389F86EB8AAE80545464736F6C63 NUMBER STOP ADDMOD BYTE STOP CALLER "},"methodIdentifiers":{"getTotalAllocation(address)":"c49a153e","getveAllocation(address,address,uint256)":"9bf648d3","setAllocation(uint256,address,uint256)":"540ffae8","setBatchAllocation(uint256[],address[],uint256[])":"b38e9637"}}}}}