{
  "_format": "hh-sol-artifact-1",
  "contractName": "VestingWalletLinear",
  "sourceName": "contracts/df/VestingWalletLinear.sol",
  "abi": [
    {
      "inputs": [
        {
          "internalType": "address",
          "name": "beneficiaryAddress",
          "type": "address"
        },
        {
          "internalType": "uint64",
          "name": "startTimestamp",
          "type": "uint64"
        },
        {
          "internalType": "uint64",
          "name": "durationSeconds",
          "type": "uint64"
        }
      ],
      "stateMutability": "payable",
      "type": "constructor"
    },
    {
      "anonymous": false,
      "inputs": [
        {
          "indexed": true,
          "internalType": "address",
          "name": "newBeneficiary",
          "type": "address"
        }
      ],
      "name": "BeneficiaryChanged",
      "type": "event"
    },
    {
      "anonymous": false,
      "inputs": [
        {
          "indexed": true,
          "internalType": "address",
          "name": "beneficiary",
          "type": "address"
        },
        {
          "indexed": true,
          "internalType": "address",
          "name": "token",
          "type": "address"
        },
        {
          "indexed": false,
          "internalType": "uint256",
          "name": "amount",
          "type": "uint256"
        }
      ],
      "name": "ERC20Released",
      "type": "event"
    },
    {
      "anonymous": false,
      "inputs": [
        {
          "indexed": true,
          "internalType": "address",
          "name": "beneficiary",
          "type": "address"
        },
        {
          "indexed": false,
          "internalType": "uint256",
          "name": "amount",
          "type": "uint256"
        }
      ],
      "name": "EtherReleased",
      "type": "event"
    },
    {
      "anonymous": false,
      "inputs": [
        {
          "indexed": true,
          "internalType": "address",
          "name": "previousOwner",
          "type": "address"
        },
        {
          "indexed": true,
          "internalType": "address",
          "name": "newOwner",
          "type": "address"
        }
      ],
      "name": "OwnershipTransferred",
      "type": "event"
    },
    {
      "anonymous": false,
      "inputs": [
        {
          "indexed": true,
          "internalType": "address",
          "name": "token",
          "type": "address"
        },
        {
          "indexed": true,
          "internalType": "address",
          "name": "owner",
          "type": "address"
        },
        {
          "indexed": false,
          "internalType": "uint256",
          "name": "amount",
          "type": "uint256"
        }
      ],
      "name": "RenounceVesting",
      "type": "event"
    },
    {
      "inputs": [],
      "name": "beneficiary",
      "outputs": [
        {
          "internalType": "address",
          "name": "",
          "type": "address"
        }
      ],
      "stateMutability": "view",
      "type": "function"
    },
    {
      "inputs": [
        {
          "internalType": "address",
          "name": "beneficiary",
          "type": "address"
        }
      ],
      "name": "changeBeneficiary",
      "outputs": [],
      "stateMutability": "nonpayable",
      "type": "function"
    },
    {
      "inputs": [],
      "name": "duration",
      "outputs": [
        {
          "internalType": "uint256",
          "name": "",
          "type": "uint256"
        }
      ],
      "stateMutability": "view",
      "type": "function"
    },
    {
      "inputs": [],
      "name": "owner",
      "outputs": [
        {
          "internalType": "address",
          "name": "",
          "type": "address"
        }
      ],
      "stateMutability": "view",
      "type": "function"
    },
    {
      "inputs": [
        {
          "internalType": "address",
          "name": "token",
          "type": "address"
        }
      ],
      "name": "releasable",
      "outputs": [
        {
          "internalType": "uint256",
          "name": "",
          "type": "uint256"
        }
      ],
      "stateMutability": "view",
      "type": "function"
    },
    {
      "inputs": [],
      "name": "releasable",
      "outputs": [
        {
          "internalType": "uint256",
          "name": "",
          "type": "uint256"
        }
      ],
      "stateMutability": "view",
      "type": "function"
    },
    {
      "inputs": [
        {
          "internalType": "address",
          "name": "token",
          "type": "address"
        }
      ],
      "name": "release",
      "outputs": [],
      "stateMutability": "nonpayable",
      "type": "function"
    },
    {
      "inputs": [],
      "name": "release",
      "outputs": [],
      "stateMutability": "nonpayable",
      "type": "function"
    },
    {
      "inputs": [],
      "name": "released",
      "outputs": [
        {
          "internalType": "uint256",
          "name": "",
          "type": "uint256"
        }
      ],
      "stateMutability": "view",
      "type": "function"
    },
    {
      "inputs": [
        {
          "internalType": "address",
          "name": "token",
          "type": "address"
        }
      ],
      "name": "released",
      "outputs": [
        {
          "internalType": "uint256",
          "name": "",
          "type": "uint256"
        }
      ],
      "stateMutability": "view",
      "type": "function"
    },
    {
      "inputs": [],
      "name": "renounceOwnership",
      "outputs": [],
      "stateMutability": "nonpayable",
      "type": "function"
    },
    {
      "inputs": [
        {
          "internalType": "address",
          "name": "token",
          "type": "address"
        }
      ],
      "name": "renounceVesting",
      "outputs": [],
      "stateMutability": "nonpayable",
      "type": "function"
    },
    {
      "inputs": [],
      "name": "start",
      "outputs": [
        {
          "internalType": "uint256",
          "name": "",
          "type": "uint256"
        }
      ],
      "stateMutability": "view",
      "type": "function"
    },
    {
      "inputs": [
        {
          "internalType": "address",
          "name": "newOwner",
          "type": "address"
        }
      ],
      "name": "transferOwnership",
      "outputs": [],
      "stateMutability": "nonpayable",
      "type": "function"
    },
    {
      "inputs": [
        {
          "internalType": "uint64",
          "name": "timestamp",
          "type": "uint64"
        }
      ],
      "name": "vestedAmount",
      "outputs": [
        {
          "internalType": "uint256",
          "name": "",
          "type": "uint256"
        }
      ],
      "stateMutability": "view",
      "type": "function"
    },
    {
      "inputs": [
        {
          "internalType": "address",
          "name": "token",
          "type": "address"
        },
        {
          "internalType": "uint64",
          "name": "timestamp",
          "type": "uint64"
        }
      ],
      "name": "vestedAmount",
      "outputs": [
        {
          "internalType": "uint256",
          "name": "",
          "type": "uint256"
        }
      ],
      "stateMutability": "view",
      "type": "function"
    },
    {
      "stateMutability": "payable",
      "type": "receive"
    }
  ],
  "bytecode": "0x60c06040526040516111833803806111838339810160408190526100229161013c565b61002b336100d0565b6001600160a01b0383166100985760405162461bcd60e51b815260206004820152602a60248201527f56657374696e6757616c6c65743a2062656e6566696369617279206973207a65604482015269726f206164647265737360b01b606482015260840160405180910390fd5b600380546001600160a01b0319166001600160a01b0394909416939093179092556001600160401b039081166080521660a05261018d565b600080546001600160a01b038381166001600160a01b0319831681178455604051919092169283917f8be0079c531659141344cd1fd0a4f28419497f9722a3daafe3b4186f6b6457e09190a35050565b80516001600160401b038116811461013757600080fd5b919050565b60008060006060848603121561015157600080fd5b83516001600160a01b038116811461016857600080fd5b925061017660208501610120565b915061018460408501610120565b90509250925092565b60805160a051610fc36101c06000396000818161016701528181610835015261088a015260006106dc0152610fc36000f3fe6080604052600436106100f75760003560e01c80638da5cb5b1161008a578063be9a655511610059578063be9a6555146102ba578063dc070657146102cf578063f2fde38b146102ef578063fbccedae1461030f57600080fd5b80638da5cb5b14610231578063961325211461024f5780639852595c14610264578063a3f8eace1461029a57600080fd5b806338af3eed116100c657806338af3eed146101b5578063715018a6146101e7578063810ec23b146101fc57806386d1a69f1461021c57600080fd5b80630a17b06b146101035780630b2adfa0146101365780630fb5a6b414610158578063191655871461019557600080fd5b366100fe57005b600080fd5b34801561010f57600080fd5b5061012361011e366004610d83565b610324565b6040519081526020015b60405180910390f35b34801561014257600080fd5b50610156610151366004610db5565b610348565b005b34801561016457600080fd5b507f000000000000000000000000000000000000000000000000000000000000000067ffffffffffffffff16610123565b3480156101a157600080fd5b506101566101b0366004610db5565b61043b565b3480156101c157600080fd5b506003546001600160a01b03165b6040516001600160a01b03909116815260200161012d565b3480156101f357600080fd5b50610156610530565b34801561020857600080fd5b50610123610217366004610dd0565b610544565b34801561022857600080fd5b506101566105da565b34801561023d57600080fd5b506000546001600160a01b03166101cf565b34801561025b57600080fd5b50600154610123565b34801561027057600080fd5b5061012361027f366004610db5565b6001600160a01b031660009081526002602052604090205490565b3480156102a657600080fd5b506101236102b5366004610db5565b6106a4565b3480156102c657600080fd5b506101236106d1565b3480156102db57600080fd5b506101566102ea366004610db5565b6106ff565b3480156102fb57600080fd5b5061015661030a366004610db5565b610777565b34801561031b57600080fd5b506101236107ed565b600061034261033260015490565b61033c9047610e19565b83610810565b92915050565b6103506108ea565b6040516370a0823160e01b81523060048201526000906001600160a01b038316906370a0823190602401602060405180830381865afa158015610397573d6000803e3d6000fd5b505050506040513d601f19601f820116820180604052508101906103bb9190610e31565b90506103cf6000546001600160a01b031690565b6001600160a01b0316826001600160a01b03167f4f24c9e2f4102cdf43eccb2de7fe2e6080081d3c899cd16a6804aaaa4b412c788360405161041391815260200190565b60405180910390a3610437826104316000546001600160a01b031690565b83610944565b5050565b600061044f6003546001600160a01b031690565b6001600160a01b0316141561047f5760405162461bcd60e51b815260040161047690610e4a565b60405180910390fd5b600061048a826106a4565b6001600160a01b0383166000908152600260205260408120805492935083929091906104b7908490610e19565b90915550506001600160a01b0382166104d86003546001600160a01b031690565b6001600160a01b03167f1998e30db89daf293a52c4fc4c4470cd506aafc3f9683e8e5daddad80cd6f4a48360405161051291815260200190565b60405180910390a3610437826104316003546001600160a01b031690565b6105386108ea565b610542600061099b565b565b6001600160a01b0382166000908152600260205260408120546105d3906040516370a0823160e01b81523060048201526001600160a01b038616906370a0823190602401602060405180830381865afa1580156105a5573d6000803e3d6000fd5b505050506040513d601f19601f820116820180604052508101906105c99190610e31565b61033c9190610e19565b9392505050565b60006105ee6003546001600160a01b031690565b6001600160a01b031614156106155760405162461bcd60e51b815260040161047690610e4a565b600061061f6107ed565b905080600160008282546106339190610e19565b90915550506003546001600160a01b03166001600160a01b03167f7b9f77d35803cd201eac9c4ed739bc1fcd3f1be6ab8877d925d1e55517b6fd6e8260405161067e91815260200190565b60405180910390a26106a161069b6003546001600160a01b031690565b826109eb565b50565b6001600160a01b0381166000908152600260205260408120546106c78342610544565b6103429190610e94565b67ffffffffffffffff7f00000000000000000000000000000000000000000000000000000000000000001690565b6107076108ea565b6001600160a01b03811661072d5760405162461bcd60e51b815260040161047690610e4a565b600380546001600160a01b0319166001600160a01b0383169081179091556040517f373c72efabe4ef3e552ff77838be729f3bc3d8c586df0012902d1baa2377fa1d90600090a250565b61077f6108ea565b6001600160a01b0381166107e45760405162461bcd60e51b815260206004820152602660248201527f4f776e61626c653a206e6577206f776e657220697320746865207a65726f206160448201526564647265737360d01b6064820152608401610476565b6106a18161099b565b60006107f860015490565b61080142610324565b61080b9190610e94565b905090565b600061081a6106d1565b8267ffffffffffffffff16101561083357506000610342565b7f000000000000000000000000000000000000000000000000000000000000000067ffffffffffffffff166108666106d1565b6108709190610e19565b8267ffffffffffffffff161115610888575081610342565b7f000000000000000000000000000000000000000000000000000000000000000067ffffffffffffffff166108bb6106d1565b6108cf9067ffffffffffffffff8516610e94565b6108d99085610eab565b6108e39190610eca565b9050610342565b6000546001600160a01b031633146105425760405162461bcd60e51b815260206004820181905260248201527f4f776e61626c653a2063616c6c6572206973206e6f7420746865206f776e65726044820152606401610476565b604080516001600160a01b038416602482015260448082018490528251808303909101815260649091019091526020810180516001600160e01b031663a9059cbb60e01b179052610996908490610b04565b505050565b600080546001600160a01b038381166001600160a01b0319831681178455604051919092169283917f8be0079c531659141344cd1fd0a4f28419497f9722a3daafe3b4186f6b6457e09190a35050565b80471015610a3b5760405162461bcd60e51b815260206004820152601d60248201527f416464726573733a20696e73756666696369656e742062616c616e63650000006044820152606401610476565b6000826001600160a01b03168260405160006040518083038185875af1925050503d8060008114610a88576040519150601f19603f3d011682016040523d82523d6000602084013e610a8d565b606091505b50509050806109965760405162461bcd60e51b815260206004820152603a60248201527f416464726573733a20756e61626c6520746f2073656e642076616c75652c207260448201527f6563697069656e74206d617920686176652072657665727465640000000000006064820152608401610476565b6000610b59826040518060400160405280602081526020017f5361666545524332303a206c6f772d6c6576656c2063616c6c206661696c6564815250856001600160a01b0316610bd99092919063ffffffff16565b9050805160001480610b7a575080806020019051810190610b7a9190610eec565b6109965760405162461bcd60e51b815260206004820152602a60248201527f5361666545524332303a204552433230206f7065726174696f6e20646964206e6044820152691bdd081cdd58d8d9595960b21b6064820152608401610476565b6060610be88484600085610bf0565b949350505050565b606082471015610c515760405162461bcd60e51b815260206004820152602660248201527f416464726573733a20696e73756666696369656e742062616c616e636520666f6044820152651c8818d85b1b60d21b6064820152608401610476565b600080866001600160a01b03168587604051610c6d9190610f3e565b60006040518083038185875af1925050503d8060008114610caa576040519150601f19603f3d011682016040523d82523d6000602084013e610caf565b606091505b5091509150610cc087838387610ccb565b979650505050505050565b60608315610d37578251610d30576001600160a01b0385163b610d305760405162461bcd60e51b815260206004820152601d60248201527f416464726573733a2063616c6c20746f206e6f6e2d636f6e74726163740000006044820152606401610476565b5081610be8565b610be88383815115610d4c5781518083602001fd5b8060405162461bcd60e51b81526004016104769190610f5a565b803567ffffffffffffffff81168114610d7e57600080fd5b919050565b600060208284031215610d9557600080fd5b6105d382610d66565b80356001600160a01b0381168114610d7e57600080fd5b600060208284031215610dc757600080fd5b6105d382610d9e565b60008060408385031215610de357600080fd5b610dec83610d9e565b9150610dfa60208401610d66565b90509250929050565b634e487b7160e01b600052601160045260246000fd5b60008219821115610e2c57610e2c610e03565b500190565b600060208284031215610e4357600080fd5b5051919050565b6020808252602a908201527f56657374696e6757616c6c65743a2062656e6566696369617279206973207a65604082015269726f206164647265737360b01b606082015260800190565b600082821015610ea657610ea6610e03565b500390565b6000816000190483118215151615610ec557610ec5610e03565b500290565b600082610ee757634e487b7160e01b600052601260045260246000fd5b500490565b600060208284031215610efe57600080fd5b815180151581146105d357600080fd5b60005b83811015610f29578181015183820152602001610f11565b83811115610f38576000848401525b50505050565b60008251610f50818460208701610f0e565b9190910192915050565b6020815260008251806020840152610f79816040850160208701610f0e565b601f01601f1916919091016040019291505056fea26469706673582212200f85d974756bec2da2c0b17332149d219167b767b4fffc32dbc68a90c8ed719d64736f6c634300080c0033",
  "linkReferences": {},
  "deployedLinkReferences": {}
}