{
  "_format": "hh-sol-artifact-1",
  "contractName": "VestingWalletHalving",
  "sourceName": "contracts/df/VestingWalletHalving.sol",
  "abi": [
    {
      "inputs": [
        {
          "internalType": "address",
          "name": "beneficiaryAddress",
          "type": "address"
        },
        {
          "internalType": "uint64",
          "name": "startTimestamp",
          "type": "uint64"
        },
        {
          "internalType": "uint256",
          "name": "halfLife",
          "type": "uint256"
        },
        {
          "internalType": "uint256",
          "name": "duration",
          "type": "uint256"
        }
      ],
      "stateMutability": "payable",
      "type": "constructor"
    },
    {
      "anonymous": false,
      "inputs": [
        {
          "indexed": true,
          "internalType": "address",
          "name": "newBeneficiary",
          "type": "address"
        }
      ],
      "name": "BeneficiaryChanged",
      "type": "event"
    },
    {
      "anonymous": false,
      "inputs": [
        {
          "indexed": true,
          "internalType": "address",
          "name": "beneficiary",
          "type": "address"
        },
        {
          "indexed": true,
          "internalType": "address",
          "name": "token",
          "type": "address"
        },
        {
          "indexed": false,
          "internalType": "uint256",
          "name": "amount",
          "type": "uint256"
        }
      ],
      "name": "ERC20Released",
      "type": "event"
    },
    {
      "anonymous": false,
      "inputs": [
        {
          "indexed": true,
          "internalType": "address",
          "name": "beneficiary",
          "type": "address"
        },
        {
          "indexed": false,
          "internalType": "uint256",
          "name": "amount",
          "type": "uint256"
        }
      ],
      "name": "EtherReleased",
      "type": "event"
    },
    {
      "anonymous": false,
      "inputs": [
        {
          "indexed": true,
          "internalType": "address",
          "name": "previousOwner",
          "type": "address"
        },
        {
          "indexed": true,
          "internalType": "address",
          "name": "newOwner",
          "type": "address"
        }
      ],
      "name": "OwnershipTransferred",
      "type": "event"
    },
    {
      "anonymous": false,
      "inputs": [
        {
          "indexed": true,
          "internalType": "address",
          "name": "owner",
          "type": "address"
        },
        {
          "indexed": false,
          "internalType": "uint256",
          "name": "amount",
          "type": "uint256"
        }
      ],
      "name": "RenounceETHVesting",
      "type": "event"
    },
    {
      "anonymous": false,
      "inputs": [
        {
          "indexed": true,
          "internalType": "address",
          "name": "token",
          "type": "address"
        },
        {
          "indexed": true,
          "internalType": "address",
          "name": "owner",
          "type": "address"
        },
        {
          "indexed": false,
          "internalType": "uint256",
          "name": "amount",
          "type": "uint256"
        }
      ],
      "name": "RenounceVesting",
      "type": "event"
    },
    {
      "inputs": [],
      "name": "beneficiary",
      "outputs": [
        {
          "internalType": "address",
          "name": "",
          "type": "address"
        }
      ],
      "stateMutability": "view",
      "type": "function"
    },
    {
      "inputs": [
        {
          "internalType": "address",
          "name": "beneficiary",
          "type": "address"
        }
      ],
      "name": "changeBeneficiary",
      "outputs": [],
      "stateMutability": "nonpayable",
      "type": "function"
    },
    {
      "inputs": [],
      "name": "duration",
      "outputs": [
        {
          "internalType": "uint256",
          "name": "",
          "type": "uint256"
        }
      ],
      "stateMutability": "view",
      "type": "function"
    },
    {
      "inputs": [
        {
          "internalType": "uint256",
          "name": "value",
          "type": "uint256"
        },
        {
          "internalType": "uint256",
          "name": "t",
          "type": "uint256"
        },
        {
          "internalType": "uint256",
          "name": "h",
          "type": "uint256"
        }
      ],
      "name": "getAmount",
      "outputs": [
        {
          "internalType": "uint256",
          "name": "",
          "type": "uint256"
        }
      ],
      "stateMutability": "pure",
      "type": "function"
    },
    {
      "inputs": [],
      "name": "halfLife",
      "outputs": [
        {
          "internalType": "uint256",
          "name": "",
          "type": "uint256"
        }
      ],
      "stateMutability": "view",
      "type": "function"
    },
    {
      "inputs": [],
      "name": "owner",
      "outputs": [
        {
          "internalType": "address",
          "name": "",
          "type": "address"
        }
      ],
      "stateMutability": "view",
      "type": "function"
    },
    {
      "inputs": [
        {
          "internalType": "address",
          "name": "token",
          "type": "address"
        }
      ],
      "name": "releasable",
      "outputs": [
        {
          "internalType": "uint256",
          "name": "",
          "type": "uint256"
        }
      ],
      "stateMutability": "view",
      "type": "function"
    },
    {
      "inputs": [],
      "name": "releasable",
      "outputs": [
        {
          "internalType": "uint256",
          "name": "",
          "type": "uint256"
        }
      ],
      "stateMutability": "view",
      "type": "function"
    },
    {
      "inputs": [
        {
          "internalType": "address",
          "name": "token",
          "type": "address"
        }
      ],
      "name": "release",
      "outputs": [],
      "stateMutability": "nonpayable",
      "type": "function"
    },
    {
      "inputs": [],
      "name": "release",
      "outputs": [],
      "stateMutability": "nonpayable",
      "type": "function"
    },
    {
      "inputs": [],
      "name": "released",
      "outputs": [
        {
          "internalType": "uint256",
          "name": "",
          "type": "uint256"
        }
      ],
      "stateMutability": "view",
      "type": "function"
    },
    {
      "inputs": [
        {
          "internalType": "address",
          "name": "token",
          "type": "address"
        }
      ],
      "name": "released",
      "outputs": [
        {
          "internalType": "uint256",
          "name": "",
          "type": "uint256"
        }
      ],
      "stateMutability": "view",
      "type": "function"
    },
    {
      "inputs": [],
      "name": "renounceETHVesting",
      "outputs": [],
      "stateMutability": "nonpayable",
      "type": "function"
    },
    {
      "inputs": [],
      "name": "renounceOwnership",
      "outputs": [],
      "stateMutability": "nonpayable",
      "type": "function"
    },
    {
      "inputs": [
        {
          "internalType": "address",
          "name": "token",
          "type": "address"
        }
      ],
      "name": "renounceVesting",
      "outputs": [],
      "stateMutability": "nonpayable",
      "type": "function"
    },
    {
      "inputs": [],
      "name": "start",
      "outputs": [
        {
          "internalType": "uint256",
          "name": "",
          "type": "uint256"
        }
      ],
      "stateMutability": "view",
      "type": "function"
    },
    {
      "inputs": [
        {
          "internalType": "address",
          "name": "newOwner",
          "type": "address"
        }
      ],
      "name": "transferOwnership",
      "outputs": [],
      "stateMutability": "nonpayable",
      "type": "function"
    },
    {
      "inputs": [
        {
          "internalType": "uint64",
          "name": "timestamp",
          "type": "uint64"
        }
      ],
      "name": "vestedAmount",
      "outputs": [
        {
          "internalType": "uint256",
          "name": "",
          "type": "uint256"
        }
      ],
      "stateMutability": "view",
      "type": "function"
    },
    {
      "inputs": [
        {
          "internalType": "address",
          "name": "token",
          "type": "address"
        },
        {
          "internalType": "uint64",
          "name": "timestamp",
          "type": "uint64"
        }
      ],
      "name": "vestedAmount",
      "outputs": [
        {
          "internalType": "uint256",
          "name": "",
          "type": "uint256"
        }
      ],
      "stateMutability": "view",
      "type": "function"
    },
    {
      "stateMutability": "payable",
      "type": "receive"
    }
  ],
  "bytecode": "0x60e06040526040516200150e3803806200150e8339810160408190526200002691620002a5565b620000313362000255565b6001600160a01b038416620000a05760405162461bcd60e51b815260206004820152602a60248201527f56657374696e6757616c6c65743a2062656e6566696369617279206973207a65604482015269726f206164647265737360b01b60648201526084015b60405180910390fd5b426001600160401b0380821690851610801590620000df5750620000c981630f73140062000308565b6001600160401b0316846001600160401b031611155b620001405760405162461bcd60e51b815260206004820152602a60248201527f56657374696e6757616c6c65743a20737461727454696d657374616d70206f7560448201526974206f662072616e676560b01b606482015260840162000097565b60008311620001ac5760405162461bcd60e51b815260206004820152603160248201527f56657374696e6757616c6c65743a2068616c664c696665206d7573742062652060448201527067726561746572207468616e207a65726f60781b606482015260840162000097565b60008211620002185760405162461bcd60e51b815260206004820152603160248201527f56657374696e6757616c6c65743a206475726174696f6e206d7573742062652060448201527067726561746572207468616e207a65726f60781b606482015260840162000097565b50600380546001600160a01b039095166001600160a01b0319909516949094179093556001600160401b0390911660805260a05260c05262000342565b600080546001600160a01b038381166001600160a01b0319831681178455604051919092169283917f8be0079c531659141344cd1fd0a4f28419497f9722a3daafe3b4186f6b6457e09190a35050565b60008060008060808587031215620002bc57600080fd5b84516001600160a01b0381168114620002d457600080fd5b60208601519094506001600160401b0381168114620002f257600080fd5b6040860151606090960151949790965092505050565b60006001600160401b038281168482168083038211156200033957634e487b7160e01b600052601160045260246000fd5b01949350505050565b60805160a05160c05161118e62000380600039600081816101880152610a1b0152600081816102420152610a8b01526000610738015261118e6000f3fe6080604052600436106101185760003560e01c806386d1a69f116100a0578063be9a655511610064578063be9a655514610324578063dc07065714610339578063e0072b6a14610359578063f2fde38b1461036e578063fbccedae1461038e57600080fd5b806386d1a69f146102865780638da5cb5b1461029b57806396132521146102b95780639852595c146102ce578063a3f8eace1461030457600080fd5b806329c45cb6116100e757806329c45cb6146101cc57806338af3eed146101ec578063715018a61461021e5780637bc90d1c14610233578063810ec23b1461026657600080fd5b80630a17b06b146101245780630b2adfa0146101575780630fb5a6b41461017957806319165587146101ac57600080fd5b3661011f57005b600080fd5b34801561013057600080fd5b5061014461013f366004610f50565b6103a3565b6040519081526020015b60405180910390f35b34801561016357600080fd5b50610177610172366004610f82565b6103c7565b005b34801561018557600080fd5b507f0000000000000000000000000000000000000000000000000000000000000000610144565b3480156101b857600080fd5b506101776101c7366004610f82565b6104ba565b3480156101d857600080fd5b506101446101e7366004610f9d565b61056b565b3480156101f857600080fd5b506003546001600160a01b03165b6040516001600160a01b03909116815260200161014e565b34801561022a57600080fd5b506101776105c7565b34801561023f57600080fd5b507f0000000000000000000000000000000000000000000000000000000000000000610144565b34801561027257600080fd5b50610144610281366004610fc9565b6105db565b34801561029257600080fd5b50610177610671565b3480156102a757600080fd5b506000546001600160a01b0316610206565b3480156102c557600080fd5b50600154610144565b3480156102da57600080fd5b506101446102e9366004610f82565b6001600160a01b031660009081526002602052604090205490565b34801561031057600080fd5b5061014461031f366004610f82565b610700565b34801561033057600080fd5b5061014461072d565b34801561034557600080fd5b50610177610354366004610f82565b61075b565b34801561036557600080fd5b5061017761081b565b34801561037a57600080fd5b50610177610389366004610f82565b61095d565b34801561039a57600080fd5b506101446109d3565b60006103c16103b160015490565b6103bb9047611012565b836109f6565b92915050565b6103cf610ab7565b6040516370a0823160e01b81523060048201526000906001600160a01b038316906370a0823190602401602060405180830381865afa158015610416573d6000803e3d6000fd5b505050506040513d601f19601f8201168201806040525081019061043a919061102a565b905061044e6000546001600160a01b031690565b6001600160a01b0316826001600160a01b03167f4f24c9e2f4102cdf43eccb2de7fe2e6080081d3c899cd16a6804aaaa4b412c788360405161049291815260200190565b60405180910390a36104b6826104b06000546001600160a01b031690565b83610b11565b5050565b60006104c582610700565b6001600160a01b0383166000908152600260205260408120805492935083929091906104f2908490611012565b90915550506001600160a01b0382166105136003546001600160a01b031690565b6001600160a01b03167f1998e30db89daf293a52c4fc4c4470cd506aafc3f9683e8e5daddad80cd6f4a48360405161054d91815260200190565b60405180910390a36104b6826104b06003546001600160a01b031690565b6000806105788385611059565b85901c9050610587838561106d565b93506002836105968684611081565b6105a09190611059565b6105aa9190611059565b6105b482876110a0565b6105be9190611012565b95945050505050565b6105cf610ab7565b6105d96000610b68565b565b6001600160a01b03821660009081526002602052604081205461066a906040516370a0823160e01b81523060048201526001600160a01b038616906370a0823190602401602060405180830381865afa15801561063c573d6000803e3d6000fd5b505050506040513d601f19601f82011682018060405250810190610660919061102a565b6103bb9190611012565b9392505050565b600061067b6109d3565b9050806001600082825461068f9190611012565b90915550506003546001600160a01b03166001600160a01b03167f7b9f77d35803cd201eac9c4ed739bc1fcd3f1be6ab8877d925d1e55517b6fd6e826040516106da91815260200190565b60405180910390a26106fd6106f76003546001600160a01b031690565b82610bb8565b50565b6001600160a01b03811660009081526002602052604081205461072383426105db565b6103c191906110a0565b67ffffffffffffffff7f00000000000000000000000000000000000000000000000000000000000000001690565b610763610ab7565b6001600160a01b0381166107d15760405162461bcd60e51b815260206004820152602a60248201527f56657374696e6757616c6c65743a2062656e6566696369617279206973207a65604482015269726f206164647265737360b01b60648201526084015b60405180910390fd5b600380546001600160a01b0319166001600160a01b0383169081179091556040517f373c72efabe4ef3e552ff77838be729f3bc3d8c586df0012902d1baa2377fa1d90600090a250565b610823610ab7565b47806108715760405162461bcd60e51b815260206004820152601b60248201527f4e6f204554482062616c616e636520746f207472616e736665722e000000000060448201526064016107c8565b600080546040516001600160a01b039091169083908381818185875af1925050503d80600081146108be576040519150601f19603f3d011682016040523d82523d6000602084013e6108c3565b606091505b505090508061090b5760405162461bcd60e51b815260206004820152601460248201527322aa24102a3930b739b332b9103330b4b632b21760611b60448201526064016107c8565b6000546001600160a01b03166001600160a01b03167f7b1f13d330f256b53f7fca1dd86838537d04d51f431ac4e24aedded410bcb6658360405161095191815260200190565b60405180910390a25050565b610965610ab7565b6001600160a01b0381166109ca5760405162461bcd60e51b815260206004820152602660248201527f4f776e61626c653a206e6577206f776e657220697320746865207a65726f206160448201526564647265737360d01b60648201526084016107c8565b6106fd81610b68565b60006109de60015490565b6109e7426103a3565b6109f191906110a0565b905090565b6000610a0061072d565b8267ffffffffffffffff161015610a19575060006103c1565b7f0000000000000000000000000000000000000000000000000000000000000000610a4261072d565b610a4c9190611012565b8267ffffffffffffffff161115610a645750816103c1565b6000610a6e61072d565b610a829067ffffffffffffffff85166110a0565b9050610aaf84827f000000000000000000000000000000000000000000000000000000000000000061056b565b9150506103c1565b6000546001600160a01b031633146105d95760405162461bcd60e51b815260206004820181905260248201527f4f776e61626c653a2063616c6c6572206973206e6f7420746865206f776e657260448201526064016107c8565b604080516001600160a01b038416602482015260448082018490528251808303909101815260649091019091526020810180516001600160e01b031663a9059cbb60e01b179052610b63908490610cd1565b505050565b600080546001600160a01b038381166001600160a01b0319831681178455604051919092169283917f8be0079c531659141344cd1fd0a4f28419497f9722a3daafe3b4186f6b6457e09190a35050565b80471015610c085760405162461bcd60e51b815260206004820152601d60248201527f416464726573733a20696e73756666696369656e742062616c616e636500000060448201526064016107c8565b6000826001600160a01b03168260405160006040518083038185875af1925050503d8060008114610c55576040519150601f19603f3d011682016040523d82523d6000602084013e610c5a565b606091505b5050905080610b635760405162461bcd60e51b815260206004820152603a60248201527f416464726573733a20756e61626c6520746f2073656e642076616c75652c207260448201527f6563697069656e74206d6179206861766520726576657274656400000000000060648201526084016107c8565b6000610d26826040518060400160405280602081526020017f5361666545524332303a206c6f772d6c6576656c2063616c6c206661696c6564815250856001600160a01b0316610da69092919063ffffffff16565b9050805160001480610d47575080806020019051810190610d4791906110b7565b610b635760405162461bcd60e51b815260206004820152602a60248201527f5361666545524332303a204552433230206f7065726174696f6e20646964206e6044820152691bdd081cdd58d8d9595960b21b60648201526084016107c8565b6060610db58484600085610dbd565b949350505050565b606082471015610e1e5760405162461bcd60e51b815260206004820152602660248201527f416464726573733a20696e73756666696369656e742062616c616e636520666f6044820152651c8818d85b1b60d21b60648201526084016107c8565b600080866001600160a01b03168587604051610e3a9190611109565b60006040518083038185875af1925050503d8060008114610e77576040519150601f19603f3d011682016040523d82523d6000602084013e610e7c565b606091505b5091509150610e8d87838387610e98565b979650505050505050565b60608315610f04578251610efd576001600160a01b0385163b610efd5760405162461bcd60e51b815260206004820152601d60248201527f416464726573733a2063616c6c20746f206e6f6e2d636f6e747261637400000060448201526064016107c8565b5081610db5565b610db58383815115610f195781518083602001fd5b8060405162461bcd60e51b81526004016107c89190611125565b803567ffffffffffffffff81168114610f4b57600080fd5b919050565b600060208284031215610f6257600080fd5b61066a82610f33565b80356001600160a01b0381168114610f4b57600080fd5b600060208284031215610f9457600080fd5b61066a82610f6b565b600080600060608486031215610fb257600080fd5b505081359360208301359350604090920135919050565b60008060408385031215610fdc57600080fd5b610fe583610f6b565b9150610ff360208401610f33565b90509250929050565b634e487b7160e01b600052601160045260246000fd5b6000821982111561102557611025610ffc565b500190565b60006020828403121561103c57600080fd5b5051919050565b634e487b7160e01b600052601260045260246000fd5b60008261106857611068611043565b500490565b60008261107c5761107c611043565b500690565b600081600019048311821515161561109b5761109b610ffc565b500290565b6000828210156110b2576110b2610ffc565b500390565b6000602082840312156110c957600080fd5b8151801515811461066a57600080fd5b60005b838110156110f45781810151838201526020016110dc565b83811115611103576000848401525b50505050565b6000825161111b8184602087016110d9565b9190910192915050565b60208152600082518060208401526111448160408501602087016110d9565b601f01601f1916919091016040019291505056fea2646970667358221220091ced56a692256f6b5cfc751af3127204f7613d69ed70e47833e39d10e2bb3264736f6c634300080c0033",
  "linkReferences": {},
  "deployedLinkReferences": {}
}