{
  "_format": "hh-sol-artifact-1",
  "contractName": "veFeeDistributorOwner",
  "sourceName": "contracts/ve/veFeeDistributorOwner.sol",
  "abi": [
    {
      "inputs": [
        {
          "internalType": "address",
          "name": "_veFeeDistributor",
          "type": "address"
        }
      ],
      "stateMutability": "payable",
      "type": "constructor"
    },
    {
      "anonymous": false,
      "inputs": [
        {
          "indexed": false,
          "internalType": "address",
          "name": "admin",
          "type": "address"
        }
      ],
      "name": "ApplyAdmin",
      "type": "event"
    },
    {
      "anonymous": false,
      "inputs": [
        {
          "indexed": false,
          "internalType": "uint256",
          "name": "time",
          "type": "uint256"
        },
        {
          "indexed": false,
          "internalType": "uint256",
          "name": "tokens",
          "type": "uint256"
        }
      ],
      "name": "CheckpointToken",
      "type": "event"
    },
    {
      "anonymous": false,
      "inputs": [
        {
          "indexed": false,
          "internalType": "address",
          "name": "admin",
          "type": "address"
        }
      ],
      "name": "CommitAdmin",
      "type": "event"
    },
    {
      "anonymous": false,
      "inputs": [
        {
          "indexed": true,
          "internalType": "address",
          "name": "previousOwner",
          "type": "address"
        },
        {
          "indexed": true,
          "internalType": "address",
          "name": "newOwner",
          "type": "address"
        }
      ],
      "name": "OwnershipTransferred",
      "type": "event"
    },
    {
      "anonymous": false,
      "inputs": [
        {
          "indexed": false,
          "internalType": "bool",
          "name": "toogle_flag",
          "type": "bool"
        }
      ],
      "name": "ToggleAllowCheckpointToken",
      "type": "event"
    },
    {
      "inputs": [],
      "name": "apply_admin",
      "outputs": [],
      "stateMutability": "nonpayable",
      "type": "function"
    },
    {
      "inputs": [],
      "name": "checkpoint",
      "outputs": [],
      "stateMutability": "nonpayable",
      "type": "function"
    },
    {
      "inputs": [],
      "name": "checkpoint_token",
      "outputs": [],
      "stateMutability": "nonpayable",
      "type": "function"
    },
    {
      "inputs": [],
      "name": "checkpoint_total_supply",
      "outputs": [],
      "stateMutability": "nonpayable",
      "type": "function"
    },
    {
      "inputs": [
        {
          "internalType": "address",
          "name": "admin",
          "type": "address"
        }
      ],
      "name": "commit_admin",
      "outputs": [],
      "stateMutability": "nonpayable",
      "type": "function"
    },
    {
      "inputs": [],
      "name": "kill_me",
      "outputs": [],
      "stateMutability": "nonpayable",
      "type": "function"
    },
    {
      "inputs": [],
      "name": "owner",
      "outputs": [
        {
          "internalType": "address",
          "name": "",
          "type": "address"
        }
      ],
      "stateMutability": "view",
      "type": "function"
    },
    {
      "inputs": [
        {
          "internalType": "address",
          "name": "token",
          "type": "address"
        }
      ],
      "name": "recover_balance",
      "outputs": [],
      "stateMutability": "nonpayable",
      "type": "function"
    },
    {
      "inputs": [],
      "name": "renounceOwnership",
      "outputs": [],
      "stateMutability": "nonpayable",
      "type": "function"
    },
    {
      "inputs": [],
      "name": "toggle_allow_checkpoint_token",
      "outputs": [],
      "stateMutability": "nonpayable",
      "type": "function"
    },
    {
      "inputs": [
        {
          "internalType": "address",
          "name": "newOwner",
          "type": "address"
        }
      ],
      "name": "transferOwnership",
      "outputs": [],
      "stateMutability": "nonpayable",
      "type": "function"
    },
    {
      "inputs": [],
      "name": "veFeeDistributorContract",
      "outputs": [
        {
          "internalType": "address",
          "name": "",
          "type": "address"
        }
      ],
      "stateMutability": "view",
      "type": "function"
    },
    {
      "inputs": [],
      "name": "veFeeDistributorToken",
      "outputs": [
        {
          "internalType": "address",
          "name": "",
          "type": "address"
        }
      ],
      "stateMutability": "view",
      "type": "function"
    }
  ],
  "bytecode": "0x60c0604052604051610e67380380610e67833981016040819052610022916101be565b61002b3361016e565b6001600160a01b0381166100905760405162461bcd60e51b815260206004820152602160248201527f5f76654665654469737472696275746f72206973207a65726f206164647265736044820152607360f81b60648201526084015b60405180910390fd5b6001600160a01b03811660a081905260408051637e062a3560e11b8152905163fc0c546a916004808201926020929091908290030181865afa1580156100da573d6000803e3d6000fd5b505050506040513d601f19601f820116820180604052508101906100fe91906101be565b6001600160a01b031660808190526101685760405162461bcd60e51b815260206004820152602760248201527f5f76654665654469737472696275746f7220746f6b656e206973207a65726f206044820152666164647265737360c81b6064820152608401610087565b506101ee565b600080546001600160a01b038381166001600160a01b0319831681178455604051919092169283917f8be0079c531659141344cd1fd0a4f28419497f9722a3daafe3b4186f6b6457e09190a35050565b6000602082840312156101d057600080fd5b81516001600160a01b03811681146101e757600080fd5b9392505050565b60805160a051610c0761026060003960008181610147015281816101c801528181610251015281816102d10152818161033201528181610395015281816103f001528181610463015281816104e301526105d601526000818161019c0152818161065e01526106d90152610c076000f3fe608060405234801561001057600080fd5b50600436106100cf5760003560e01c8063c0e991a61161008c578063db2f5f7911610066578063db2f5f7914610169578063e36988531461017c578063f2fde38b14610184578063fda064dc1461019757600080fd5b8063c0e991a614610132578063c2c4c5c11461013a578063d6ff9a521461014257600080fd5b80632121bfc3146100d4578063715018a6146100de578063811a40fe146100e65780638da5cb5b146100ee578063b1d3db7514610117578063b21ed5021461012a575b600080fd5b6100dc6101be565b005b6100dc61023b565b6100dc61024f565b6000546001600160a01b03165b6040516001600160a01b03909116815260200160405180910390f35b6100dc610125366004610aeb565b6102aa565b6100dc610330565b6100dc61038b565b6100dc6103ee565b6100fb7f000000000000000000000000000000000000000000000000000000000000000081565b6100dc610177366004610aeb565b6104bc565b6100dc6105cc565b6100dc610192366004610aeb565b61070d565b6100fb7f000000000000000000000000000000000000000000000000000000000000000081565b6101c6610788565b7f00000000000000000000000000000000000000000000000000000000000000006001600160a01b0316632121bfc36040518163ffffffff1660e01b8152600401600060405180830381600087803b15801561022157600080fd5b505af1158015610235573d6000803e3d6000fd5b50505050565b610243610788565b61024d60006107e2565b565b7f00000000000000000000000000000000000000000000000000000000000000006001600160a01b031663811a40fe6040518163ffffffff1660e01b8152600401600060405180830381600087803b15801561022157600080fd5b6102b2610788565b60405163b1d3db7560e01b81526001600160a01b0382811660048301527f0000000000000000000000000000000000000000000000000000000000000000169063b1d3db7590602401600060405180830381600087803b15801561031557600080fd5b505af1158015610329573d6000803e3d6000fd5b5050505050565b7f00000000000000000000000000000000000000000000000000000000000000006001600160a01b031663b21ed5026040518163ffffffff1660e01b8152600401600060405180830381600087803b15801561022157600080fd5b610393610788565b7f00000000000000000000000000000000000000000000000000000000000000006001600160a01b031663c0e991a66040518163ffffffff1660e01b8152600401600060405180830381600087803b15801561022157600080fd5b7f00000000000000000000000000000000000000000000000000000000000000006001600160a01b031663811a40fe6040518163ffffffff1660e01b8152600401600060405180830381600087803b15801561044957600080fd5b505af115801561045d573d6000803e3d6000fd5b505050507f00000000000000000000000000000000000000000000000000000000000000006001600160a01b031663b21ed5026040518163ffffffff1660e01b8152600401600060405180830381600087803b15801561022157600080fd5b6104c4610788565b60405163db2f5f7960e01b81526001600160a01b0382811660048301527f0000000000000000000000000000000000000000000000000000000000000000169063db2f5f7990602401600060405180830381600087803b15801561052757600080fd5b505af115801561053b573d6000803e3d6000fd5b50506040516370a0823160e01b8152306004820152600092506001600160a01b03841691506370a0823190602401602060405180830381865afa158015610586573d6000803e3d6000fd5b505050506040513d601f19601f820116820180604052508101906105aa9190610b1b565b90506105c8826105c26000546001600160a01b031690565b83610832565b5050565b6105d4610788565b7f00000000000000000000000000000000000000000000000000000000000000006001600160a01b031663e36988536040518163ffffffff1660e01b8152600401600060405180830381600087803b15801561062f57600080fd5b505af1158015610643573d6000803e3d6000fd5b50506040516370a0823160e01b8152306004820152600092507f00000000000000000000000000000000000000000000000000000000000000006001600160a01b031691506370a0823190602401602060405180830381865afa1580156106ae573d6000803e3d6000fd5b505050506040513d601f19601f820116820180604052508101906106d29190610b1b565b905061070a7f00000000000000000000000000000000000000000000000000000000000000006105c26000546001600160a01b031690565b50565b610715610788565b6001600160a01b03811661077f5760405162461bcd60e51b815260206004820152602660248201527f4f776e61626c653a206e6577206f776e657220697320746865207a65726f206160448201526564647265737360d01b60648201526084015b60405180910390fd5b61070a816107e2565b6000546001600160a01b0316331461024d5760405162461bcd60e51b815260206004820181905260248201527f4f776e61626c653a2063616c6c6572206973206e6f7420746865206f776e65726044820152606401610776565b600080546001600160a01b038381166001600160a01b0319831681178455604051919092169283917f8be0079c531659141344cd1fd0a4f28419497f9722a3daafe3b4186f6b6457e09190a35050565b604080516001600160a01b038416602482015260448082018490528251808303909101815260649091019091526020810180516001600160e01b031663a9059cbb60e01b179052610884908490610889565b505050565b60006108de826040518060400160405280602081526020017f5361666545524332303a206c6f772d6c6576656c2063616c6c206661696c6564815250856001600160a01b031661095e9092919063ffffffff16565b90508051600014806108ff5750808060200190518101906108ff9190610b34565b6108845760405162461bcd60e51b815260206004820152602a60248201527f5361666545524332303a204552433230206f7065726174696f6e20646964206e6044820152691bdd081cdd58d8d9595960b21b6064820152608401610776565b606061096d8484600085610975565b949350505050565b6060824710156109d65760405162461bcd60e51b815260206004820152602660248201527f416464726573733a20696e73756666696369656e742062616c616e636520666f6044820152651c8818d85b1b60d21b6064820152608401610776565b600080866001600160a01b031685876040516109f29190610b82565b60006040518083038185875af1925050503d8060008114610a2f576040519150601f19603f3d011682016040523d82523d6000602084013e610a34565b606091505b5091509150610a4587838387610a50565b979650505050505050565b60608315610abc578251610ab5576001600160a01b0385163b610ab55760405162461bcd60e51b815260206004820152601d60248201527f416464726573733a2063616c6c20746f206e6f6e2d636f6e74726163740000006044820152606401610776565b508161096d565b61096d8383815115610ad15781518083602001fd5b8060405162461bcd60e51b81526004016107769190610b9e565b600060208284031215610afd57600080fd5b81356001600160a01b0381168114610b1457600080fd5b9392505050565b600060208284031215610b2d57600080fd5b5051919050565b600060208284031215610b4657600080fd5b81518015158114610b1457600080fd5b60005b83811015610b71578181015183820152602001610b59565b838111156102355750506000910152565b60008251610b94818460208701610b56565b9190910192915050565b6020815260008251806020840152610bbd816040850160208701610b56565b601f01601f1916919091016040019291505056fea2646970667358221220c2f1e5ede6150c49e9eb78b1e0d5384490436e2b10ceaac35c590a50868ec4a964736f6c634300080c0033",
  "linkReferences": {},
  "deployedLinkReferences": {}
}