{
  "_format": "hh-sol-artifact-1",
  "contractName": "AccessListFactory",
  "sourceName": "contracts/accesslists/AccessListFactory.sol",
  "abi": [
    {
      "inputs": [
        {
          "internalType": "address",
          "name": "_template",
          "type": "address"
        }
      ],
      "stateMutability": "nonpayable",
      "type": "constructor"
    },
    {
      "anonymous": false,
      "inputs": [
        {
          "indexed": false,
          "internalType": "address",
          "name": "instance",
          "type": "address"
        }
      ],
      "name": "InstanceDeployed",
      "type": "event"
    },
    {
      "anonymous": false,
      "inputs": [
        {
          "indexed": true,
          "internalType": "address",
          "name": "contractAddress",
          "type": "address"
        },
        {
          "indexed": true,
          "internalType": "address",
          "name": "owner",
          "type": "address"
        }
      ],
      "name": "NewAccessList",
      "type": "event"
    },
    {
      "anonymous": false,
      "inputs": [
        {
          "indexed": true,
          "internalType": "address",
          "name": "previousOwner",
          "type": "address"
        },
        {
          "indexed": true,
          "internalType": "address",
          "name": "newOwner",
          "type": "address"
        }
      ],
      "name": "OwnershipTransferred",
      "type": "event"
    },
    {
      "inputs": [
        {
          "internalType": "address",
          "name": "",
          "type": "address"
        }
      ],
      "name": "accessListDeployedContracts",
      "outputs": [
        {
          "internalType": "address",
          "name": "",
          "type": "address"
        }
      ],
      "stateMutability": "view",
      "type": "function"
    },
    {
      "inputs": [
        {
          "internalType": "address",
          "name": "_newTemplateAddress",
          "type": "address"
        }
      ],
      "name": "changeTemplateAddress",
      "outputs": [],
      "stateMutability": "nonpayable",
      "type": "function"
    },
    {
      "inputs": [
        {
          "internalType": "string",
          "name": "name",
          "type": "string"
        },
        {
          "internalType": "string",
          "name": "symbol",
          "type": "string"
        },
        {
          "internalType": "bool",
          "name": "transferable",
          "type": "bool"
        },
        {
          "internalType": "address",
          "name": "owner",
          "type": "address"
        },
        {
          "internalType": "address[]",
          "name": "user",
          "type": "address[]"
        },
        {
          "internalType": "string[]",
          "name": "_tokenURI",
          "type": "string[]"
        }
      ],
      "name": "deployAccessListContract",
      "outputs": [
        {
          "internalType": "address",
          "name": "token",
          "type": "address"
        }
      ],
      "stateMutability": "nonpayable",
      "type": "function"
    },
    {
      "inputs": [
        {
          "internalType": "address",
          "name": "contractAddress",
          "type": "address"
        }
      ],
      "name": "isDeployed",
      "outputs": [
        {
          "internalType": "bool",
          "name": "",
          "type": "bool"
        }
      ],
      "stateMutability": "view",
      "type": "function"
    },
    {
      "inputs": [
        {
          "internalType": "address",
          "name": "contractAddress",
          "type": "address"
        }
      ],
      "name": "isSoulBound",
      "outputs": [
        {
          "internalType": "bool",
          "name": "",
          "type": "bool"
        }
      ],
      "stateMutability": "view",
      "type": "function"
    },
    {
      "inputs": [],
      "name": "owner",
      "outputs": [
        {
          "internalType": "address",
          "name": "",
          "type": "address"
        }
      ],
      "stateMutability": "view",
      "type": "function"
    },
    {
      "inputs": [],
      "name": "renounceOwnership",
      "outputs": [],
      "stateMutability": "nonpayable",
      "type": "function"
    },
    {
      "inputs": [
        {
          "internalType": "address",
          "name": "newOwner",
          "type": "address"
        }
      ],
      "name": "transferOwnership",
      "outputs": [],
      "stateMutability": "nonpayable",
      "type": "function"
    }
  ],
  "bytecode": "0x608060405234801561001057600080fd5b50604051610c6b380380610c6b83398101604081905261002f9161010c565b610038336100bc565b600180556001600160a01b038116158015906100545750803b15155b6100975760405162461bcd60e51b815260206004820152601060248201526f496e76616c69642074656d706c61746560801b604482015260640160405180910390fd5b600280546001600160a01b0319166001600160a01b039290921691909117905561013c565b600080546001600160a01b038381166001600160a01b0319831681178455604051919092169283917f8be0079c531659141344cd1fd0a4f28419497f9722a3daafe3b4186f6b6457e09190a35050565b60006020828403121561011e57600080fd5b81516001600160a01b038116811461013557600080fd5b9392505050565b610b208061014b6000396000f3fe608060405234801561001057600080fd5b50600436106100885760003560e01c806390184b021161005b57806390184b02146100fb5780639b0712f21461010e578063d91cb12214610137578063f2fde38b1461014a57600080fd5b80634a1fd0d01461008d578063715018a6146100b557806373282534146100bf5780638da5cb5b146100ea575b600080fd5b6100a061009b366004610659565b61015d565b60405190151581526020015b60405180910390f35b6100bd610227565b005b6100d26100cd36600461089e565b61023b565b6040516001600160a01b0390911681526020016100ac565b6000546001600160a01b03166100d2565b6100a0610109366004610659565b6103d6565b6100d261011c366004610659565b6003602052600090815260409020546001600160a01b031681565b6100bd610145366004610659565b610409565b6100bd610158366004610659565b61048a565b6000610168826103d6565b15156001146101be5760405162461bcd60e51b815260206004820152601760248201527f4e6f74206465706c6f79656420627920666163746f727900000000000000000060448201526064015b60405180910390fd5b816001600160a01b03166392ff0d316040518163ffffffff1660e01b8152600401602060405180830381865afa1580156101fc573d6000803e3d6000fd5b505050506040513d601f19601f82011682018060405250810190610220919061097a565b1592915050565b61022f610503565b610239600061055d565b565b600254600090610253906001600160a01b03166105ad565b90506001600160a01b0381166102ab5760405162461bcd60e51b815260206004820181905260248201527f4661696c656420746f206465706c6f79206e657720616363657373206c69737460448201526064016101b5565b6001600160a01b0380821660008181526003602052604080822080546001600160a01b0319168417905551928716927fd65bc8e3024bbad886df74eea79b6e118b7fbcffe1f3f98054e5a6b98dc838919190a36040516314399fef60e21b815281906001600160a01b038216906350e67fbc9061033a9088908e908e908e908e908e908d908d90600401610a4e565b6020604051808303816000875af1158015610359573d6000803e3d6000fd5b505050506040513d601f19601f8201168201806040525081019061037d919061097a565b6103c95760405162461bcd60e51b815260206004820181905260248201527f556e61626c6520746f20696e697469616c697a6520616363657373206c69737460448201526064016101b5565b5098975050505050505050565b6001600160a01b03808216600081815260036020526040812054909216141561040157506001919050565b506000919050565b610411610503565b6001600160a01b038116158015906104295750803b15155b6104685760405162461bcd60e51b815260206004820152601060248201526f496e76616c69642074656d706c61746560801b60448201526064016101b5565b600280546001600160a01b0319166001600160a01b0392909216919091179055565b610492610503565b6001600160a01b0381166104f75760405162461bcd60e51b815260206004820152602660248201527f4f776e61626c653a206e6577206f776e657220697320746865207a65726f206160448201526564647265737360d01b60648201526084016101b5565b6105008161055d565b50565b6000546001600160a01b031633146102395760405162461bcd60e51b815260206004820181905260248201527f4f776e61626c653a2063616c6c6572206973206e6f7420746865206f776e657260448201526064016101b5565b600080546001600160a01b038381166001600160a01b0319831681178455604051919092169283917f8be0079c531659141344cd1fd0a4f28419497f9722a3daafe3b4186f6b6457e09190a35050565b6000808260601b9050604051733d602d80600a3d3981f3363d3d373d3d3d363d7360601b81528160148201526e5af43d82803e903d91602b57fd5bf360881b60288201526037816000f06040516001600160a01b03821681529093507f117c72e6c25f0a072e36e148df71468ce2f3dbe7defec5b2c257a6e3eb65278c915060200160405180910390a150919050565b80356001600160a01b038116811461065457600080fd5b919050565b60006020828403121561066b57600080fd5b6106748261063d565b9392505050565b60008083601f84011261068d57600080fd5b50813567ffffffffffffffff8111156106a557600080fd5b6020830191508360208285010111156106bd57600080fd5b9250929050565b801515811461050057600080fd5b8035610654816106c4565b634e487b7160e01b600052604160045260246000fd5b604051601f8201601f1916810167ffffffffffffffff8111828210171561071c5761071c6106dd565b604052919050565b600067ffffffffffffffff82111561073e5761073e6106dd565b5060051b60200190565b600082601f83011261075957600080fd5b8135602061076e61076983610724565b6106f3565b82815260059290921b8401810191818101908684111561078d57600080fd5b8286015b848110156107af576107a28161063d565b8352918301918301610791565b509695505050505050565b6000601f83818401126107cc57600080fd5b823560206107dc61076983610724565b82815260059290921b850181019181810190878411156107fb57600080fd5b8287015b8481101561089257803567ffffffffffffffff808211156108205760008081fd5b818a0191508a603f8301126108355760008081fd5b8582013560408282111561084b5761084b6106dd565b61085c828b01601f191689016106f3565b92508183528c818386010111156108735760008081fd5b81818501898501375060009082018701528452509183019183016107ff565b50979650505050505050565b60008060008060008060008060c0898b0312156108ba57600080fd5b883567ffffffffffffffff808211156108d257600080fd5b6108de8c838d0161067b565b909a50985060208b01359150808211156108f757600080fd5b6109038c838d0161067b565b909850965086915061091760408c016106d2565b955061092560608c0161063d565b945060808b013591508082111561093b57600080fd5b6109478c838d01610748565b935060a08b013591508082111561095d57600080fd5b5061096a8b828c016107ba565b9150509295985092959890939650565b60006020828403121561098c57600080fd5b8151610674816106c4565b81835281816020850137506000828201602090810191909152601f909101601f19169091010190565b600081518084526020808501808196508360051b810191508286016000805b86811015610a40578385038a5282518051808752835b81811015610a10578281018901518882018a015288016109f5565b81811115610a20578489838a0101525b509a87019a601f01601f19169590950186019450918501916001016109df565b509298975050505050505050565b600060018060a01b03808b168352602060c081850152610a7260c085018b8d610997565b8481036040860152610a85818a8c610997565b88151560608701528581036080870152875180825283890192509083019060005b81811015610ac4578351861683529284019291840191600101610aa6565b505085810360a0870152610ad881886109c0565b9e9d505050505050505050505050505056fea26469706673582212201c2868262e56203e806dfa2dcbdef61e810574adefa5fa79167a5c0f641a0a6764736f6c634300080c0033",
  "linkReferences": {},
  "deployedLinkReferences": {}
}