{
  "_format": "hh-sol-artifact-1",
  "contractName": "Escrow",
  "sourceName": "contracts/escrow/Escrow.sol",
  "abi": [
    {
      "inputs": [
        {
          "internalType": "address",
          "name": "_factoryRouter",
          "type": "address"
        },
        {
          "internalType": "address",
          "name": "_opcCollector",
          "type": "address"
        }
      ],
      "stateMutability": "nonpayable",
      "type": "constructor"
    },
    {
      "anonymous": false,
      "inputs": [
        {
          "indexed": true,
          "internalType": "address",
          "name": "payer",
          "type": "address"
        },
        {
          "indexed": true,
          "internalType": "address",
          "name": "payee",
          "type": "address"
        },
        {
          "indexed": false,
          "internalType": "uint256",
          "name": "maxLockedAmount",
          "type": "uint256"
        },
        {
          "indexed": false,
          "internalType": "uint256",
          "name": "maxLockSeconds",
          "type": "uint256"
        },
        {
          "indexed": false,
          "internalType": "uint256",
          "name": "maxLockCounts",
          "type": "uint256"
        }
      ],
      "name": "Auth",
      "type": "event"
    },
    {
      "anonymous": false,
      "inputs": [
        {
          "indexed": true,
          "internalType": "address",
          "name": "payee",
          "type": "address"
        },
        {
          "indexed": false,
          "internalType": "uint256",
          "name": "jobId",
          "type": "uint256"
        },
        {
          "indexed": false,
          "internalType": "address",
          "name": "token",
          "type": "address"
        },
        {
          "indexed": true,
          "internalType": "address",
          "name": "payer",
          "type": "address"
        },
        {
          "indexed": false,
          "internalType": "uint256",
          "name": "amount",
          "type": "uint256"
        }
      ],
      "name": "Canceled",
      "type": "event"
    },
    {
      "anonymous": false,
      "inputs": [
        {
          "indexed": true,
          "internalType": "address",
          "name": "payee",
          "type": "address"
        },
        {
          "indexed": false,
          "internalType": "uint256",
          "name": "jobId",
          "type": "uint256"
        },
        {
          "indexed": false,
          "internalType": "address",
          "name": "token",
          "type": "address"
        },
        {
          "indexed": true,
          "internalType": "address",
          "name": "payer",
          "type": "address"
        },
        {
          "indexed": false,
          "internalType": "uint256",
          "name": "amount",
          "type": "uint256"
        },
        {
          "indexed": false,
          "internalType": "bytes",
          "name": "proof",
          "type": "bytes"
        }
      ],
      "name": "Claimed",
      "type": "event"
    },
    {
      "anonymous": false,
      "inputs": [
        {
          "indexed": true,
          "internalType": "address",
          "name": "payer",
          "type": "address"
        },
        {
          "indexed": false,
          "internalType": "address",
          "name": "token",
          "type": "address"
        },
        {
          "indexed": false,
          "internalType": "uint256",
          "name": "amount",
          "type": "uint256"
        }
      ],
      "name": "Deposit",
      "type": "event"
    },
    {
      "anonymous": false,
      "inputs": [
        {
          "indexed": false,
          "internalType": "address",
          "name": "payer",
          "type": "address"
        },
        {
          "indexed": false,
          "internalType": "address",
          "name": "payee",
          "type": "address"
        },
        {
          "indexed": false,
          "internalType": "uint256",
          "name": "jobId",
          "type": "uint256"
        },
        {
          "indexed": false,
          "internalType": "uint256",
          "name": "amount",
          "type": "uint256"
        },
        {
          "indexed": false,
          "internalType": "uint256",
          "name": "expiry",
          "type": "uint256"
        },
        {
          "indexed": false,
          "internalType": "address",
          "name": "token",
          "type": "address"
        }
      ],
      "name": "Lock",
      "type": "event"
    },
    {
      "anonymous": false,
      "inputs": [
        {
          "indexed": true,
          "internalType": "address",
          "name": "payer",
          "type": "address"
        },
        {
          "indexed": false,
          "internalType": "address",
          "name": "token",
          "type": "address"
        },
        {
          "indexed": false,
          "internalType": "uint256",
          "name": "amount",
          "type": "uint256"
        }
      ],
      "name": "Withdraw",
      "type": "event"
    },
    {
      "inputs": [
        {
          "internalType": "address",
          "name": "token",
          "type": "address"
        },
        {
          "internalType": "address",
          "name": "payee",
          "type": "address"
        },
        {
          "internalType": "uint256",
          "name": "maxLockedAmount",
          "type": "uint256"
        },
        {
          "internalType": "uint256",
          "name": "maxLockSeconds",
          "type": "uint256"
        },
        {
          "internalType": "uint256",
          "name": "maxLockCounts",
          "type": "uint256"
        }
      ],
      "name": "authorize",
      "outputs": [],
      "stateMutability": "nonpayable",
      "type": "function"
    },
    {
      "inputs": [
        {
          "internalType": "address[]",
          "name": "token",
          "type": "address[]"
        },
        {
          "internalType": "address[]",
          "name": "payee",
          "type": "address[]"
        },
        {
          "internalType": "uint256[]",
          "name": "maxLockedAmount",
          "type": "uint256[]"
        },
        {
          "internalType": "uint256[]",
          "name": "maxLockSeconds",
          "type": "uint256[]"
        },
        {
          "internalType": "uint256[]",
          "name": "maxLockCounts",
          "type": "uint256[]"
        }
      ],
      "name": "authorizeMultiple",
      "outputs": [],
      "stateMutability": "nonpayable",
      "type": "function"
    },
    {
      "inputs": [
        {
          "internalType": "uint256",
          "name": "jobId",
          "type": "uint256"
        },
        {
          "internalType": "address",
          "name": "token",
          "type": "address"
        },
        {
          "internalType": "address",
          "name": "payer",
          "type": "address"
        },
        {
          "internalType": "address",
          "name": "payee",
          "type": "address"
        }
      ],
      "name": "cancelExpiredLock",
      "outputs": [],
      "stateMutability": "nonpayable",
      "type": "function"
    },
    {
      "inputs": [
        {
          "internalType": "uint256[]",
          "name": "jobId",
          "type": "uint256[]"
        },
        {
          "internalType": "address[]",
          "name": "token",
          "type": "address[]"
        },
        {
          "internalType": "address[]",
          "name": "payer",
          "type": "address[]"
        },
        {
          "internalType": "address[]",
          "name": "payee",
          "type": "address[]"
        }
      ],
      "name": "cancelExpiredLocks",
      "outputs": [],
      "stateMutability": "nonpayable",
      "type": "function"
    },
    {
      "inputs": [
        {
          "internalType": "uint256",
          "name": "jobId",
          "type": "uint256"
        },
        {
          "internalType": "address",
          "name": "token",
          "type": "address"
        },
        {
          "internalType": "address",
          "name": "payer",
          "type": "address"
        },
        {
          "internalType": "uint256",
          "name": "amount",
          "type": "uint256"
        },
        {
          "internalType": "bytes",
          "name": "proof",
          "type": "bytes"
        }
      ],
      "name": "claimLock",
      "outputs": [],
      "stateMutability": "nonpayable",
      "type": "function"
    },
    {
      "inputs": [
        {
          "internalType": "uint256",
          "name": "jobId",
          "type": "uint256"
        },
        {
          "internalType": "address",
          "name": "token",
          "type": "address"
        },
        {
          "internalType": "address",
          "name": "payer",
          "type": "address"
        },
        {
          "internalType": "uint256",
          "name": "amount",
          "type": "uint256"
        },
        {
          "internalType": "bytes",
          "name": "proof",
          "type": "bytes"
        }
      ],
      "name": "claimLockAndWithdraw",
      "outputs": [],
      "stateMutability": "nonpayable",
      "type": "function"
    },
    {
      "inputs": [
        {
          "internalType": "uint256[]",
          "name": "jobId",
          "type": "uint256[]"
        },
        {
          "internalType": "address[]",
          "name": "token",
          "type": "address[]"
        },
        {
          "internalType": "address[]",
          "name": "payer",
          "type": "address[]"
        },
        {
          "internalType": "uint256[]",
          "name": "amount",
          "type": "uint256[]"
        },
        {
          "internalType": "bytes[]",
          "name": "proof",
          "type": "bytes[]"
        }
      ],
      "name": "claimLocks",
      "outputs": [],
      "stateMutability": "nonpayable",
      "type": "function"
    },
    {
      "inputs": [
        {
          "internalType": "uint256[]",
          "name": "jobId",
          "type": "uint256[]"
        },
        {
          "internalType": "address[]",
          "name": "token",
          "type": "address[]"
        },
        {
          "internalType": "address[]",
          "name": "payer",
          "type": "address[]"
        },
        {
          "internalType": "uint256[]",
          "name": "amount",
          "type": "uint256[]"
        },
        {
          "internalType": "bytes[]",
          "name": "proof",
          "type": "bytes[]"
        }
      ],
      "name": "claimLocksAndWithdraw",
      "outputs": [],
      "stateMutability": "nonpayable",
      "type": "function"
    },
    {
      "inputs": [
        {
          "internalType": "uint256",
          "name": "jobId",
          "type": "uint256"
        },
        {
          "internalType": "address",
          "name": "token",
          "type": "address"
        },
        {
          "internalType": "address",
          "name": "payer",
          "type": "address"
        },
        {
          "internalType": "uint256",
          "name": "amount",
          "type": "uint256"
        },
        {
          "internalType": "uint256",
          "name": "expiry",
          "type": "uint256"
        }
      ],
      "name": "createLock",
      "outputs": [],
      "stateMutability": "nonpayable",
      "type": "function"
    },
    {
      "inputs": [
        {
          "internalType": "uint256[]",
          "name": "jobId",
          "type": "uint256[]"
        },
        {
          "internalType": "address[]",
          "name": "token",
          "type": "address[]"
        },
        {
          "internalType": "address[]",
          "name": "payer",
          "type": "address[]"
        },
        {
          "internalType": "uint256[]",
          "name": "amount",
          "type": "uint256[]"
        },
        {
          "internalType": "uint256[]",
          "name": "expiry",
          "type": "uint256[]"
        }
      ],
      "name": "createLocks",
      "outputs": [],
      "stateMutability": "nonpayable",
      "type": "function"
    },
    {
      "inputs": [
        {
          "internalType": "address",
          "name": "token",
          "type": "address"
        },
        {
          "internalType": "uint256",
          "name": "amount",
          "type": "uint256"
        }
      ],
      "name": "deposit",
      "outputs": [],
      "stateMutability": "nonpayable",
      "type": "function"
    },
    {
      "inputs": [
        {
          "internalType": "address[]",
          "name": "token",
          "type": "address[]"
        },
        {
          "internalType": "uint256[]",
          "name": "amount",
          "type": "uint256[]"
        }
      ],
      "name": "depositMultiple",
      "outputs": [],
      "stateMutability": "nonpayable",
      "type": "function"
    },
    {
      "inputs": [],
      "name": "factoryRouter",
      "outputs": [
        {
          "internalType": "address",
          "name": "",
          "type": "address"
        }
      ],
      "stateMutability": "view",
      "type": "function"
    },
    {
      "inputs": [
        {
          "internalType": "address",
          "name": "token",
          "type": "address"
        },
        {
          "internalType": "address",
          "name": "payer",
          "type": "address"
        },
        {
          "internalType": "address",
          "name": "payee",
          "type": "address"
        }
      ],
      "name": "getAuthorizations",
      "outputs": [
        {
          "components": [
            {
              "internalType": "address",
              "name": "payee",
              "type": "address"
            },
            {
              "internalType": "uint256",
              "name": "maxLockedAmount",
              "type": "uint256"
            },
            {
              "internalType": "uint256",
              "name": "currentLockedAmount",
              "type": "uint256"
            },
            {
              "internalType": "uint256",
              "name": "maxLockSeconds",
              "type": "uint256"
            },
            {
              "internalType": "uint256",
              "name": "maxLockCounts",
              "type": "uint256"
            },
            {
              "internalType": "uint256",
              "name": "currentLocks",
              "type": "uint256"
            }
          ],
          "internalType": "struct Escrow.auth[]",
          "name": "",
          "type": "tuple[]"
        }
      ],
      "stateMutability": "view",
      "type": "function"
    },
    {
      "inputs": [
        {
          "internalType": "address",
          "name": "token",
          "type": "address"
        }
      ],
      "name": "getFunds",
      "outputs": [
        {
          "components": [
            {
              "internalType": "uint256",
              "name": "available",
              "type": "uint256"
            },
            {
              "internalType": "uint256",
              "name": "locked",
              "type": "uint256"
            }
          ],
          "internalType": "struct Escrow.userFunds",
          "name": "",
          "type": "tuple"
        }
      ],
      "stateMutability": "view",
      "type": "function"
    },
    {
      "inputs": [
        {
          "internalType": "address",
          "name": "token",
          "type": "address"
        },
        {
          "internalType": "address",
          "name": "payer",
          "type": "address"
        },
        {
          "internalType": "address",
          "name": "payee",
          "type": "address"
        }
      ],
      "name": "getLocks",
      "outputs": [
        {
          "components": [
            {
              "internalType": "uint256",
              "name": "jobId",
              "type": "uint256"
            },
            {
              "internalType": "address",
              "name": "payer",
              "type": "address"
            },
            {
              "internalType": "address",
              "name": "payee",
              "type": "address"
            },
            {
              "internalType": "uint256",
              "name": "amount",
              "type": "uint256"
            },
            {
              "internalType": "uint256",
              "name": "expiry",
              "type": "uint256"
            },
            {
              "internalType": "address",
              "name": "token",
              "type": "address"
            }
          ],
          "internalType": "struct Escrow.lock[]",
          "name": "",
          "type": "tuple[]"
        }
      ],
      "stateMutability": "view",
      "type": "function"
    },
    {
      "inputs": [
        {
          "internalType": "address",
          "name": "payer",
          "type": "address"
        },
        {
          "internalType": "address",
          "name": "token",
          "type": "address"
        }
      ],
      "name": "getUserFunds",
      "outputs": [
        {
          "components": [
            {
              "internalType": "uint256",
              "name": "available",
              "type": "uint256"
            },
            {
              "internalType": "uint256",
              "name": "locked",
              "type": "uint256"
            }
          ],
          "internalType": "struct Escrow.userFunds",
          "name": "",
          "type": "tuple"
        }
      ],
      "stateMutability": "view",
      "type": "function"
    },
    {
      "inputs": [
        {
          "internalType": "address",
          "name": "user",
          "type": "address"
        }
      ],
      "name": "getUserTokens",
      "outputs": [
        {
          "internalType": "address[]",
          "name": "",
          "type": "address[]"
        }
      ],
      "stateMutability": "view",
      "type": "function"
    },
    {
      "inputs": [],
      "name": "opcCollector",
      "outputs": [
        {
          "internalType": "address",
          "name": "",
          "type": "address"
        }
      ],
      "stateMutability": "view",
      "type": "function"
    },
    {
      "inputs": [
        {
          "internalType": "address[]",
          "name": "token",
          "type": "address[]"
        },
        {
          "internalType": "uint256[]",
          "name": "amount",
          "type": "uint256[]"
        }
      ],
      "name": "withdraw",
      "outputs": [],
      "stateMutability": "nonpayable",
      "type": "function"
    }
  ],
  "bytecode": "0x60c06040523480156200001157600080fd5b5060405162004348380380620043488339810160408190526200003491620000ba565b60016000556001600160a01b038216620000855760405162461bcd60e51b815260206004820152600e60248201526d24b73b30b634b2103937baba32b960911b604482015260640160405180910390fd5b6001600160a01b039182166080521660a052620000f2565b80516001600160a01b0381168114620000b557600080fd5b919050565b60008060408385031215620000ce57600080fd5b620000d9836200009d565b9150620000e9602084016200009d565b90509250929050565b60805160a051614214620001346000396000818161017901528181612638015261270e01526000818161013501528181612593015261266901526142146000f3fe608060405234801561001057600080fd5b506004361061012b5760003560e01c8063797e566c116100ad578063dc697a5a11610071578063dc697a5a14610313578063de6d6d9614610333578063decebbce14610346578063df00c9b7146103a5578063e46c3b29146103b857600080fd5b8063797e566c146102a75780637d3d2336146102ba578063842d2c20146102da57806389464ccf146102ed578063b24adc041461030057600080fd5b806347e7ef24116100f457806347e7ef241461023b578063519dc8d21461024e57806357d92e451461026e5780635ffd0f2a1461028157806378a90e191461029457600080fd5b8062fac1cf14610130578063038142381461017457806315fac1cc1461019b5780633a8ae44f146101b05780633f918c0314610228575b600080fd5b6101577f000000000000000000000000000000000000000000000000000000000000000081565b6040516001600160a01b0390911681526020015b60405180910390f35b6101577f000000000000000000000000000000000000000000000000000000000000000081565b6101ae6101a93660046136d6565b6103cb565b005b61020d6101be366004613727565b604080518082018252600080825260209182018190526001600160a01b039485168152600180835283822094909516815292815291819020815180830190925280548252909201549082015290565b6040805182518152602092830151928101929092520161016b565b6101ae610236366004613760565b6103f1565b6101ae6102493660046137b3565b610415565b61026161025c3660046137df565b610435565b60405161016b91906137fc565b6101ae61027c3660046138fe565b6104ab565b6101ae61028f366004613a5a565b6104c0565b6101ae6102a2366004613b9d565b6105cc565b6101ae6102b5366004613c61565b6107c1565b6102cd6102c8366004613cc4565b61084f565b60405161016b9190613d0f565b6101ae6102e8366004613d95565b610b9f565b6101ae6102fb366004613de7565b610bb4565b6101ae61030e366004613b9d565b610c90565b610326610321366004613cc4565b610d13565b60405161016b9190613e93565b6101ae610341366004613c61565b611002565b61020d6103543660046137df565b6040805180820190915260008082526020820152503360009081526001602081815260408084206001600160a01b039590951684529381529183902083518085019094528054845201549082015290565b6101ae6103b3366004613f07565b611085565b6101ae6103c63660046138fe565b61117d565b6103d36111c1565b6103e0858585858561121b565b6103ea6001600055565b5050505050565b6103f96111c1565b61040584848484611512565b61040f6001600055565b50505050565b61041d6111c1565b6104278282611ec2565b6104316001600055565b5050565b6001600160a01b03811660009081526002602090815260409182902080548351818402810184019094528084526060939283018282801561049f57602002820191906000526020600020905b81546001600160a01b03168152600190910190602001808311610481575b50505050509050919050565b6104b36111c1565b6103e0858585858561215b565b6104c86111c1565b835185511480156104da575082518551145b80156104e7575081518551145b80156104f4575080518551145b6105195760405162461bcd60e51b815260040161051090613f86565b60405180910390fd5b60005b85518110156105c1576105af86828151811061053a5761053a613fad565b602002602001015186838151811061055457610554613fad565b602002602001015186848151811061056e5761056e613fad565b602002602001015186858151811061058857610588613fad565b60200260200101518686815181106105a2576105a2613fad565b602002602001015161121b565b806105b981613fd9565b91505061051c565b506103ea6001600055565b6105d46111c1565b835185511480156105e6575082518551145b80156105f3575081518551145b8015610600575080518551145b61061c5760405162461bcd60e51b815260040161051090613f86565b60005b85518110156106c4576106b286828151811061063d5761063d613fad565b602002602001015186838151811061065757610657613fad565b602002602001015186848151811061067157610671613fad565b602002602001015186858151811061068b5761068b613fad565b60200260200101518686815181106106a5576106a5613fad565b602002602001015161215b565b806106bc81613fd9565b91505061061f565b5060005b84518110156105c157336000908152600160205260408120865182908890859081106106f6576106f6613fad565b60200260200101516001600160a01b03166001600160a01b031681526020019081526020016000206000015411156107af576107af85828151811061073d5761073d613fad565b602002602001015160016000336001600160a01b03166001600160a01b03168152602001908152602001600020600088858151811061077e5761077e613fad565b60200260200101516001600160a01b03166001600160a01b03168152602001908152602001600020600001546129ac565b806107b981613fd9565b9150506106c8565b6107c96111c1565b80518251146107ea5760405162461bcd60e51b815260040161051090613f86565b60005b82518110156108445761083283828151811061080b5761080b613fad565b602002602001015183838151811061082557610825613fad565b6020026020010151611ec2565b8061083c81613fd9565b9150506107ed565b506104316001600055565b600554606090600090815b81811015610968576001600160a01b03871615806108a957506005818154811061088657610886613fad565b60009182526020909120600560069092020101546001600160a01b038881169116145b806108f657506001600160a01b03851615806108f65750600581815481106108d3576108d3613fad565b60009182526020909120600260069092020101546001600160a01b038681169116145b8061094357506001600160a01b038616158061094357506005818154811061092057610920613fad565b60009182526020909120600160069092020101546001600160a01b038781169116145b15610956578261095281613fd9565b9350505b8061096081613fd9565b91505061085a565b506000826001600160401b0381111561098357610983613849565b6040519080825280602002602001820160405280156109e357816020015b6040805160c08101825260008082526020808301829052928201819052606082018190526080820181905260a082015282526000199092019101816109a15790505b5090506000925060005b82811015610b94576001600160a01b0388161580610a3c575060058181548110610a1957610a19613fad565b60009182526020909120600560069092020101546001600160a01b038981169116145b80610a8957506001600160a01b0386161580610a89575060058181548110610a6657610a66613fad565b60009182526020909120600260069092020101546001600160a01b038781169116145b80610ad657506001600160a01b0387161580610ad6575060058181548110610ab357610ab3613fad565b60009182526020909120600160069092020101546001600160a01b038881169116145b15610b825760058181548110610aee57610aee613fad565b60009182526020918290206040805160c08101825260069093029091018054835260018101546001600160a01b0390811694840194909452600281015484169183019190915260038101546060830152600481015460808301526005015490911660a08201528251839086908110610b6857610b68613fad565b60200260200101819052508380610b7e90613fd9565b9450505b80610b8c81613fd9565b9150506109ed565b509695505050505050565b610ba76111c1565b6103e08585858585612bd4565b610bbc6111c1565b82518451148015610bce575081518451145b8015610bdb575080518451145b610bf75760405162461bcd60e51b815260040161051090613f86565b60005b8451811015610c8557610c73858281518110610c1857610c18613fad565b6020026020010151858381518110610c3257610c32613fad565b6020026020010151858481518110610c4c57610c4c613fad565b6020026020010151858581518110610c6657610c66613fad565b6020026020010151611512565b80610c7d81613fd9565b915050610bfa565b5061040f6001600055565b610c986111c1565b83518551148015610caa575082518551145b8015610cb7575081518551145b8015610cc4575080518551145b610ce05760405162461bcd60e51b815260040161051090613f86565b60005b85518110156105c157610d0186828151811061063d5761063d613fad565b80610d0b81613fd9565b915050610ce3565b60606001600160a01b038316610d3b5760405162461bcd60e51b815260040161051090613ff4565b6001600160a01b038416610d615760405162461bcd60e51b81526004016105109061401b565b6001600160a01b038084166000908152600460209081526040808320938816835292905290812054815b81811015610e20576001600160a01b0385161580610dfb57506001600160a01b038087166000908152600460209081526040808320938b16835292905220805482908110610ddb57610ddb613fad565b60009182526020909120600690910201546001600160a01b038681169116145b15610e0e5782610e0a81613fd9565b9350505b80610e1881613fd9565b915050610d8b565b506000826001600160401b03811115610e3b57610e3b613849565b604051908082528060200260200182016040528015610eae57816020015b610e9b6040518060c0016040528060006001600160a01b0316815260200160008152602001600081526020016000815260200160008152602001600081525090565b815260200190600190039081610e595790505b5090506000925060005b82811015610b94576001600160a01b0386161580610f2857506001600160a01b038088166000908152600460209081526040808320938c16835292905220805482908110610f0857610f08613fad565b60009182526020909120600690910201546001600160a01b038781169116145b15610ff0576001600160a01b038088166000908152600460209081526040808320938c16835292905220805482908110610f6457610f64613fad565b60009182526020918290206040805160c081018252600690930290910180546001600160a01b03168352600181015493830193909352600283015490820152600382015460608201526004820154608082015260059091015460a08201528251839086908110610fd657610fd6613fad565b60200260200101819052508380610fec90613fd9565b9450505b80610ffa81613fd9565b915050610eb8565b61100a6111c1565b805182511461102b5760405162461bcd60e51b815260040161051090613f86565b60005b82518110156108445761107383828151811061104c5761104c613fad565b602002602001015183838151811061106657611066613fad565b60200260200101516129ac565b8061107d81613fd9565b91505061102e565b61108d6111c1565b8351855114801561109f575082518551145b80156110ac575081518551145b80156110b9575080518551145b6110d55760405162461bcd60e51b815260040161051090613f86565b60005b85518110156105c15761116b8682815181106110f6576110f6613fad565b602002602001015186838151811061111057611110613fad565b602002602001015186848151811061112a5761112a613fad565b602002602001015186858151811061114457611144613fad565b602002602001015186868151811061115e5761115e613fad565b6020026020010151612bd4565b8061117581613fd9565b9150506110d8565b6111856111c1565b611192858585858561215b565b3360009081526001602090815260408083206001600160a01b03881684529091529020546103e09085906129ac565b600260005414156112145760405162461bcd60e51b815260206004820152601f60248201527f5265656e7472616e637947756172643a207265656e7472616e742063616c6c006044820152606401610510565b6002600055565b6001600160a01b0385166112415760405162461bcd60e51b81526004016105109061401b565b6001600160a01b0384166112875760405162461bcd60e51b815260206004820152600d60248201526c496e76616c696420706179656560981b6044820152606401610510565b3360009081526004602090815260408083206001600160a01b03891684529091528120545b80821015611408573360009081526004602090815260408083206001600160a01b038b811685529252909120805491881691849081106112ee576112ee613fad565b60009182526020909120600690910201546001600160a01b031614156113f6573360009081526004602090815260408083206001600160a01b038b168452909152902080548691908490811061134657611346613fad565b60009182526020808320600160069093020191909101929092553381526004825260408082206001600160a01b038b1683529092522080548591908490811061139157611391613fad565b60009182526020808320600360069093020191909101929092553381526004825260408082206001600160a01b038b168352909252208054849190849081106113dc576113dc613fad565b906000526020600020906006020160040181905550611408565b8161140081613fd9565b9250506112ac565b808214156114bb573360009081526004602081815260408084206001600160a01b038c81168652908352818520825160c0810184528c831681528085018c8152938101878152606082018c8152608083018c815260a084018a8152855460018082018855968c5298909a209351600690980290930180546001600160a01b031916979095169690961784559351918301919091559151600282015591516003830155519181019190915590516005909101555b60408051868152602081018690529081018490526001600160a01b0387169033907f118cb6c6a02e26bfdb39cab8d70573499942c4ee3f0d7616d3c4100fe9163d9d9060600160405180910390a350505050505050565b60055460009081905b8083101561169057426005848154811061153757611537613fad565b90600052602060002090600602016004015410801561166b575086158061158157506005838154811061156c5761156c613fad565b90600052602060002090600602016000015487145b80156115cf57506001600160a01b03861615806115cf5750600583815481106115ac576115ac613fad565b60009182526020909120600560069092020101546001600160a01b038781169116145b801561161d57506001600160a01b038516158061161d5750600583815481106115fa576115fa613fad565b60009182526020909120600160069092020101546001600160a01b038681169116145b801561166b57506001600160a01b038416158061166b57506005838154811061164857611648613fad565b60009182526020909120600260069092020101546001600160a01b038581169116145b1561167e578161167a81613fd9565b9250505b8261168881613fd9565b93505061151b565b8161169d5750505061040f565b6000826001600160401b038111156116b7576116b7613849565b6040519080825280602002602001820160405280156116e0578160200160208202803683370190505b50905060008094505b82851015611d5d57426005868154811061170557611705613fad565b906000526020600020906006020160040154108015611839575088158061174f57506005858154811061173a5761173a613fad565b90600052602060002090600602016000015489145b801561179d57506001600160a01b038816158061179d57506005858154811061177a5761177a613fad565b60009182526020909120600560069092020101546001600160a01b038981169116145b80156117eb57506001600160a01b03871615806117eb5750600585815481106117c8576117c8613fad565b60009182526020909120600160069092020101546001600160a01b038881169116145b801561183957506001600160a01b038616158061183957506005858154811061181657611816613fad565b60009182526020909120600260069092020101546001600160a01b038781169116145b15611d4b576000600460006005888154811061185757611857613fad565b60009182526020808320600160069093020191909101546001600160a01b031683528201929092526040018120600580549192918990811061189b5761189b613fad565b60009182526020808320600560069093020191909101546001600160a01b0316835282019290925260400181205491505b81811015611a4b57600587815481106118e7576118e7613fad565b60009182526020808320600260069093020191909101546001600160a01b038c811684526004835260408085208f831686529093529190922080549190921691908390811061193857611938613fad565b60009182526020909120600690910201546001600160a01b03161415611a39576005878154811061196b5761196b613fad565b60009182526020808320600360069093020191909101546001600160a01b03808d168452600483526040808520918f168552925291208054839081106119b3576119b3613fad565b906000526020600020906006020160020160008282546119d39190614042565b90915550506001600160a01b03808a166000908152600460209081526040808320938e1683529290522080546001919083908110611a1357611a13613fad565b90600052602060002090600602016005016000828254611a339190614042565b90915550505b80611a4381613fd9565b9150506118cc565b5060058681548110611a5f57611a5f613fad565b9060005260206000209060060201600301546001600060058981548110611a8857611a88613fad565b60009182526020808320600160069093020191909101546001600160a01b031683528201929092526040018120600580549192918a908110611acc57611acc613fad565b60009182526020808320600560069093020191909101546001600160a01b0316835282019290925260400181208054909190611b09908490614059565b90915550506005805487908110611b2257611b22613fad565b9060005260206000209060060201600301546001600060058981548110611b4b57611b4b613fad565b60009182526020808320600160069093020191909101546001600160a01b031683528201929092526040018120600580549192918a908110611b8f57611b8f613fad565b60009182526020808320600560069093020191909101546001600160a01b0316835282019290925260400181206001018054909190611bcf908490614042565b90915550506005805487908110611be857611be8613fad565b6000918252602090912060016006909202010154600580546001600160a01b039092169188908110611c1c57611c1c613fad565b906000526020600020906006020160020160009054906101000a90046001600160a01b03166001600160a01b03167f5bcb66e310a3be233290f5d61fba34fe58a0e8045b4678714af2c7986f3a5e5060058981548110611c7e57611c7e613fad565b90600052602060002090600602016000015460058a81548110611ca357611ca3613fad565b906000526020600020906006020160050160009054906101000a90046001600160a01b031660058b81548110611cdb57611cdb613fad565b906000526020600020906006020160030154604051611d16939291909283526001600160a01b03919091166020830152604082015260600190565b60405180910390a385838381518110611d3157611d31613fad565b602090810291909101015281611d4681613fd9565b925050505b84611d5581613fd9565b9550506116e9565b8151600095505b80861015611eb65760058054611d7c90600190614042565b81548110611d8c57611d8c613fad565b90600052602060002090600602016005848881518110611dae57611dae613fad565b602002602001015181548110611dc657611dc6613fad565b60009182526020909120825460069092020190815560018083015490820180546001600160a01b03199081166001600160a01b0393841617909155600280850154908401805483169184169190911790556003808501549084015560048085015490840155600593840154928401805490911692909116919091179055805480611e5257611e52614071565b6000828152602081206006600019909301928302018181556001810180546001600160a01b03199081169091556002820180548216905560038201839055600482019290925560050180549091169055905585611eae81613fd9565b965050611d64565b50505050505050505050565b6001600160a01b038216611f105760405162461bcd60e51b8152602060048201526015602482015274496e76616c696420746f6b656e206164647265737360581b6044820152606401610510565b3360009081526001602090815260408083206001600160a01b038616845290915281208054839290611f43908490614059565b90915550503360009081526003602090815260408083206001600160a01b038616845290915290205460ff16611fd0573360008181526002602090815260408083208054600180820183559185528385200180546001600160a01b0319166001600160a01b03891690811790915594845260038352818420948452939091529020805460ff191690911790555b604080516001600160a01b03841681526020810183905233917f5548c837ab068cf56a2c2479df0882a4922fd203edb7517321831d95078c5f62910160405180910390a26040516370a0823160e01b81523060048201526000906001600160a01b038416906370a0823190602401602060405180830381865afa15801561205b573d6000803e3d6000fd5b505050506040513d601f19601f8201168201806040525081019061207f9190614087565b90506120966001600160a01b03841633308561338a565b6120a081836133f5565b6040516370a0823160e01b81523060048201526001600160a01b038516906370a0823190602401602060405180830381865afa1580156120e4573d6000803e3d6000fd5b505050506040513d601f19601f820116820180604052508101906121089190614087565b10156121565760405162461bcd60e51b815260206004820152601a60248201527f5472616e7366657220616d6f756e7420697320746f6f206c6f770000000000006044820152606401610510565b505050565b6001600160a01b0383166121815760405162461bcd60e51b815260040161051090613ff4565b6001600160a01b0384166121a75760405162461bcd60e51b81526004016105109061401b565b600085116121e75760405162461bcd60e51b815260206004820152600d60248201526c125b9d985b1a59081a9bd89259609a1b6044820152606401610510565b6040805160c081018252600080825260208201819052918101829052606081018290526080810182905260a081018290526005549091905b8082101561235c576005828154811061223a5761223a613fad565b60009182526020909120600690910201600201546001600160a01b03163314801561229657506005828154811061227357612273613fad565b60009182526020909120600160069092020101546001600160a01b038781169116145b80156122c55750600582815481106122b0576122b0613fad565b90600052602060002090600602016000015488145b1561234a57600582815481106122dd576122dd613fad565b60009182526020918290206040805160c08101825260069093029091018054835260018101546001600160a01b0390811694840194909452600281015484169183019190915260038101546060830152600481015460808301526005015490911660a0820152925061235c565b8161235481613fd9565b92505061221f565b60408301516001600160a01b031633146123a95760405162461bcd60e51b815260206004820152600e60248201526d131bd8dac81b9bdd08199bdd5b9960921b6044820152606401610510565b42836080015110156123c9576123c188888833611512565b5050506103ea565b848360600151101561240f5760405162461bcd60e51b815260206004820152600f60248201526e082dadeeadce840e8dede40d0d2ced608b1b6044820152606401610510565b506001600160a01b038086166000908152600460209081526040808320938a16835292905290812054905b81811015612570576001600160a01b038781166000908152600460209081526040808320938c1683529290522080543391908390811061247c5761247c613fad565b60009182526020909120600690910201546001600160a01b0316141561255e5760608401516001600160a01b038089166000908152600460209081526040808320938d168352929052208054839081106124d8576124d8613fad565b906000526020600020906006020160020160008282546124f89190614042565b90915550506001600160a01b038088166000908152600460209081526040808320938c168352929052208054600191908390811061253857612538613fad565b906000526020600020906006020160050160008282546125589190614042565b90915550505b8061256881613fd9565b91505061243a565b5060405163b8421e2b60e01b81526001600160a01b0388811660048301526000917f00000000000000000000000000000000000000000000000000000000000000009091169063b8421e2b90602401602060405180830381865afa1580156125dc573d6000803e3d6000fd5b505050506040513d601f19601f820116820180604052508101906126009190614087565b90506000612620670de0b6b3a764000061261a8985613408565b90613414565b9050600061262e8883613420565b90508115612733577f00000000000000000000000000000000000000000000000000000000000000006001600160a01b03166126ff576126fa7f00000000000000000000000000000000000000000000000000000000000000006001600160a01b0316631a81876d6040518163ffffffff1660e01b8152600401602060405180830381865afa1580156126c5573d6000803e3d6000fd5b505050506040513d601f19601f820116820180604052508101906126e991906140a0565b6001600160a01b038c16908461342c565b612733565b6127336001600160a01b038b167f00000000000000000000000000000000000000000000000000000000000000008461342c565b8786606001516127439190614042565b6001600160a01b03808b166000908152600160209081526040808320938f168352929052908120805490919061277a908490614059565b925050819055508560600151600160008b6001600160a01b03166001600160a01b0316815260200190815260200160002060008c6001600160a01b03166001600160a01b0316815260200190815260200160002060010160008282546127e09190614042565b90915550503360009081526001602090815260408083206001600160a01b038e16845290915281208054839290612818908490614059565b909155505060055461282c90600190614042565b8510156128f1576005805461284390600190614042565b8154811061285357612853613fad565b90600052602060002090600602016005868154811061287457612874613fad565b60009182526020909120825460069092020190815560018083015490820180546001600160a01b03199081166001600160a01b039384161790915560028085015490840180548316918416919091179055600380850154908401556004808501549084015560059384015493909201805490921692169190911790555b600580548061290257612902614071565b6000828152602081206006600019909301928302018181556001810180546001600160a01b0319908116909155600282018054821690556003820183905560048201929092556005018054909116905590556040516001600160a01b038a169033907f77aeb72af8b0efaf7fd8c746d2fb78653ae489dd88dea7a851cb354e4cdc4eed90612997908f908f908e908e90614115565b60405180910390a35050505050505050505050565b3360009081526001602090815260408083206001600160a01b03861684529091529020548111610431573360009081526001602090815260408083206001600160a01b038616845290915281208054839290612a09908490614042565b90915550503360009081526001602090815260408083206001600160a01b0386168452909152902054612b7c57336000908152600260205260408120905b8154811015612b4e57836001600160a01b0316828281548110612a6c57612a6c613fad565b6000918252602090912001546001600160a01b03161415612b3c5781548290612a9790600190614042565b81548110612aa757612aa7613fad565b9060005260206000200160009054906101000a90046001600160a01b0316828281548110612ad757612ad7613fad565b9060005260206000200160006101000a8154816001600160a01b0302191690836001600160a01b0316021790555081805480612b1557612b15614071565b600082815260209020810160001990810180546001600160a01b0319169055019055612b4e565b80612b4681613fd9565b915050612a47565b50503360009081526003602090815260408083206001600160a01b03861684529091529020805460ff191690555b604080516001600160a01b03841681526020810183905233917f9b1bfa7fa9ee420a16e124f794c35ac9f90472acc99140eb2f6447c714cad8eb910160405180910390a26104316001600160a01b038316338361342c565b6001600160a01b038316612bfa5760405162461bcd60e51b815260040161051090613ff4565b6001600160a01b038416612c205760405162461bcd60e51b81526004016105109061401b565b60008211612c615760405162461bcd60e51b815260206004820152600e60248201526d125b9d985b1a5908185b5bdd5b9d60921b6044820152606401610510565b60008511612ca15760405162461bcd60e51b815260206004820152600d60248201526c125b9d985b1a59081a9bd89259609a1b6044820152606401610510565b6040805160c08101825260008082526020808301829052828401829052606083018290526080830182905260a083018290526001600160a01b038781168352600182528483209089168352905291822054909190841115612d445760405162461bcd60e51b815260206004820181905260248201527f506179657220646f6573206e6f74206861766520656e6f7567682066756e64736044820152606401610510565b506001600160a01b0380851660009081526004602090815260408083209389168352929052908120545b80821015612e7c576001600160a01b038087166000908152600460209081526040808320938b16835292905220805483908110612dad57612dad613fad565b60009182526020909120600690910201546001600160a01b0316331415612e6a576001600160a01b038087166000908152600460209081526040808320938b16835292905220805483908110612e0557612e05613fad565b60009182526020918290206040805160c081018252600690930290910180546001600160a01b03168352600181015493830193909352600283015490820152600382015460608201526004820154608082015260059091015460a08201529250612e7c565b81612e7481613fd9565b925050612d6e565b82516001600160a01b03163314612ec55760405162461bcd60e51b815260206004820152600d60248201526c139bc8185d5d1a08199bdd5b99609a1b6044820152606401610510565b8260600151841115612f0b5760405162461bcd60e51b815260206004820152600f60248201526e08af0e0d2e4f240e8dede40d0d2ced608b1b6044820152606401610510565b8260200151851115612f515760405162461bcd60e51b815260206004820152600f60248201526e082dadeeadce840e8dede40d0d2ced608b1b6044820152606401610510565b8260200151858460400151612f669190614059565b1115612fb45760405162461bcd60e51b815260206004820152601760248201527f45786365656473206d61784c6f636b6564416d6f756e740000000000000000006044820152606401610510565b82608001518360a00151106130035760405162461bcd60e51b815260206004820152601560248201527445786365656473206d61784c6f636b436f756e747360581b6044820152606401610510565b5060055460005b8181101561311557866001600160a01b03166005828154811061302f5761302f613fad565b60009182526020909120600160069092020101546001600160a01b03161480156130905750336001600160a01b03166005828154811061307157613071613fad565b60009182526020909120600260069092020101546001600160a01b0316145b80156130bf575088600582815481106130ab576130ab613fad565b906000526020600020906006020160000154145b156131035760405162461bcd60e51b81526020600482015260146024820152734a6f62496420616c72656164792065786973747360601b6044820152606401610510565b8061310d81613fd9565b91505061300a565b506001600160a01b038087166000908152600460209081526040808320938b1683529290522080548691908490811061315057613150613fad565b906000526020600020906006020160020160008282546131709190614059565b90915550506001600160a01b038087166000908152600460209081526040808320938b16835292905220805460019190849081106131b0576131b0613fad565b906000526020600020906006020160050160008282546131d09190614059565b90915550506001600160a01b038087166000908152600160209081526040808320938b168352929052908120805487929061320c908490614042565b90915550506001600160a01b038087166000908152600160208181526040808420948c168452939052918120909101805487929061324b908490614059565b9250508190555060056040518060c001604052808a8152602001886001600160a01b03168152602001336001600160a01b0316815260200187815260200186426132959190614059565b81526001600160a01b038a8116602092830181905284546001808201875560009687529584902085516006909202019081558484015195810180549684166001600160a01b03199788161790556040808601516002830180549186169189169190911790556060808701516003840155608080880151600485015560a0978801516005909401805494871694909916939093179097558051938d16845233948401949094529282018d9052938101899052908101879052908101919091527fb746b0421b0b98debe76bb312ec9fb701603af22ddb107f7e639b0187e4ff8809060c00160405180910390a15050505050505050565b6040516001600160a01b038085166024830152831660448201526064810182905261040f9085906323b872dd60e01b906084015b60408051601f198184030181529190526020810180516001600160e01b03166001600160e01b03199093169290921790915261345c565b60006134018284614059565b9392505050565b6000613401828461414c565b6000613401828461416b565b60006134018284614042565b6040516001600160a01b03831660248201526044810182905261215690849063a9059cbb60e01b906064016133be565b60006134b1826040518060400160405280602081526020017f5361666545524332303a206c6f772d6c6576656c2063616c6c206661696c6564815250856001600160a01b03166135319092919063ffffffff16565b90508051600014806134d25750808060200190518101906134d2919061418d565b6121565760405162461bcd60e51b815260206004820152602a60248201527f5361666545524332303a204552433230206f7065726174696f6e20646964206e6044820152691bdd081cdd58d8d9595960b21b6064820152608401610510565b60606135408484600085613548565b949350505050565b6060824710156135a95760405162461bcd60e51b815260206004820152602660248201527f416464726573733a20696e73756666696369656e742062616c616e636520666f6044820152651c8818d85b1b60d21b6064820152608401610510565b600080866001600160a01b031685876040516135c591906141af565b60006040518083038185875af1925050503d8060008114613602576040519150601f19603f3d011682016040523d82523d6000602084013e613607565b606091505b509150915061361887838387613623565b979650505050505050565b6060831561368f578251613688576001600160a01b0385163b6136885760405162461bcd60e51b815260206004820152601d60248201527f416464726573733a2063616c6c20746f206e6f6e2d636f6e74726163740000006044820152606401610510565b5081613540565b61354083838151156136a45781518083602001fd5b8060405162461bcd60e51b815260040161051091906141cb565b6001600160a01b03811681146136d357600080fd5b50565b600080600080600060a086880312156136ee57600080fd5b85356136f9816136be565b94506020860135613709816136be565b94979496505050506040830135926060810135926080909101359150565b6000806040838503121561373a57600080fd5b8235613745816136be565b91506020830135613755816136be565b809150509250929050565b6000806000806080858703121561377657600080fd5b843593506020850135613788816136be565b92506040850135613798816136be565b915060608501356137a8816136be565b939692955090935050565b600080604083850312156137c657600080fd5b82356137d1816136be565b946020939093013593505050565b6000602082840312156137f157600080fd5b8135613401816136be565b6020808252825182820181905260009190848201906040850190845b8181101561383d5783516001600160a01b031683529284019291840191600101613818565b50909695505050505050565b634e487b7160e01b600052604160045260246000fd5b604051601f8201601f191681016001600160401b038111828210171561388757613887613849565b604052919050565b600082601f8301126138a057600080fd5b81356001600160401b038111156138b9576138b9613849565b6138cc601f8201601f191660200161385f565b8181528460208386010111156138e157600080fd5b816020850160208301376000918101602001919091529392505050565b600080600080600060a0868803121561391657600080fd5b853594506020860135613928816136be565b93506040860135613938816136be565b92506060860135915060808601356001600160401b0381111561395a57600080fd5b6139668882890161388f565b9150509295509295909350565b60006001600160401b0382111561398c5761398c613849565b5060051b60200190565b600082601f8301126139a757600080fd5b813560206139bc6139b783613973565b61385f565b82815260059290921b840181019181810190868411156139db57600080fd5b8286015b84811015610b945780356139f2816136be565b83529183019183016139df565b600082601f830112613a1057600080fd5b81356020613a206139b783613973565b82815260059290921b84018101918181019086841115613a3f57600080fd5b8286015b84811015610b945780358352918301918301613a43565b600080600080600060a08688031215613a7257600080fd5b85356001600160401b0380821115613a8957600080fd5b613a9589838a01613996565b96506020880135915080821115613aab57600080fd5b613ab789838a01613996565b95506040880135915080821115613acd57600080fd5b613ad989838a016139ff565b94506060880135915080821115613aef57600080fd5b613afb89838a016139ff565b93506080880135915080821115613b1157600080fd5b50613966888289016139ff565b600082601f830112613b2f57600080fd5b81356020613b3f6139b783613973565b82815260059290921b84018101918181019086841115613b5e57600080fd5b8286015b84811015610b945780356001600160401b03811115613b815760008081fd5b613b8f8986838b010161388f565b845250918301918301613b62565b600080600080600060a08688031215613bb557600080fd5b85356001600160401b0380821115613bcc57600080fd5b613bd889838a016139ff565b96506020880135915080821115613bee57600080fd5b613bfa89838a01613996565b95506040880135915080821115613c1057600080fd5b613c1c89838a01613996565b94506060880135915080821115613c3257600080fd5b613c3e89838a016139ff565b93506080880135915080821115613c5457600080fd5b5061396688828901613b1e565b60008060408385031215613c7457600080fd5b82356001600160401b0380821115613c8b57600080fd5b613c9786838701613996565b93506020850135915080821115613cad57600080fd5b50613cba858286016139ff565b9150509250929050565b600080600060608486031215613cd957600080fd5b8335613ce4816136be565b92506020840135613cf4816136be565b91506040840135613d04816136be565b809150509250925092565b602080825282518282018190526000919060409081850190868401855b82811015613d8857815180518552868101516001600160a01b039081168887015286820151811687870152606080830151908701526080808301519087015260a091820151169085015260c09093019290850190600101613d2c565b5091979650505050505050565b600080600080600060a08688031215613dad57600080fd5b853594506020860135613dbf816136be565b93506040860135613dcf816136be565b94979396509394606081013594506080013592915050565b60008060008060808587031215613dfd57600080fd5b84356001600160401b0380821115613e1457600080fd5b613e20888389016139ff565b95506020870135915080821115613e3657600080fd5b613e4288838901613996565b94506040870135915080821115613e5857600080fd5b613e6488838901613996565b93506060870135915080821115613e7a57600080fd5b50613e8787828801613996565b91505092959194509250565b602080825282518282018190526000919060409081850190868401855b82811015613d8857815180516001600160a01b0316855286810151878601528581015186860152606080820151908601526080808201519086015260a0908101519085015260c09093019290850190600101613eb0565b600080600080600060a08688031215613f1f57600080fd5b85356001600160401b0380821115613f3657600080fd5b613f4289838a016139ff565b96506020880135915080821115613f5857600080fd5b613f6489838a01613996565b95506040880135915080821115613f7a57600080fd5b613ad989838a01613996565b6020808252600d908201526c125b9d985b1a59081a5b9c1d5d609a1b604082015260600190565b634e487b7160e01b600052603260045260246000fd5b634e487b7160e01b600052601160045260246000fd5b6000600019821415613fed57613fed613fc3565b5060010190565b6020808252600d908201526c24b73b30b634b2103830bcb2b960991b604082015260600190565b6020808252600d908201526c24b73b30b634b2103a37b5b2b760991b604082015260600190565b60008282101561405457614054613fc3565b500390565b6000821982111561406c5761406c613fc3565b500190565b634e487b7160e01b600052603160045260246000fd5b60006020828403121561409957600080fd5b5051919050565b6000602082840312156140b257600080fd5b8151613401816136be565b60005b838110156140d85781810151838201526020016140c0565b8381111561040f5750506000910152565b600081518084526141018160208601602086016140bd565b601f01601f19169290920160200192915050565b84815260018060a01b038416602082015282604082015260806060820152600061414260808301846140e9565b9695505050505050565b600081600019048311821515161561416657614166613fc3565b500290565b60008261418857634e487b7160e01b600052601260045260246000fd5b500490565b60006020828403121561419f57600080fd5b8151801515811461340157600080fd5b600082516141c18184602087016140bd565b9190910192915050565b60208152600061340160208301846140e956fea2646970667358221220a898ec097ea71a4beb662ab06533eb5d6a0a647ae016d260d7b021fa246ee93d64736f6c634300080c0033",
  "linkReferences": {},
  "deployedLinkReferences": {}
}