{
  "_format": "hh-sol-artifact-1",
  "contractName": "PredictoorHelper",
  "sourceName": "contracts/utils/PredictoorHelper.sol",
  "abi": [
    {
      "anonymous": false,
      "inputs": [
        {
          "indexed": true,
          "internalType": "address",
          "name": "consumer",
          "type": "address"
        },
        {
          "indexed": false,
          "internalType": "address",
          "name": "payer",
          "type": "address"
        },
        {
          "indexed": false,
          "internalType": "uint256",
          "name": "amount",
          "type": "uint256"
        },
        {
          "indexed": false,
          "internalType": "uint256",
          "name": "serviceIndex",
          "type": "uint256"
        },
        {
          "indexed": false,
          "internalType": "uint256",
          "name": "timestamp",
          "type": "uint256"
        },
        {
          "indexed": true,
          "internalType": "address",
          "name": "publishMarketAddress",
          "type": "address"
        },
        {
          "indexed": false,
          "internalType": "uint256",
          "name": "blockNumber",
          "type": "uint256"
        }
      ],
      "name": "OrderStarted",
      "type": "event"
    },
    {
      "anonymous": false,
      "inputs": [
        {
          "indexed": true,
          "internalType": "address",
          "name": "previousOwner",
          "type": "address"
        },
        {
          "indexed": true,
          "internalType": "address",
          "name": "newOwner",
          "type": "address"
        }
      ],
      "name": "OwnershipTransferred",
      "type": "event"
    },
    {
      "inputs": [
        {
          "internalType": "address[]",
          "name": "addresses",
          "type": "address[]"
        },
        {
          "internalType": "uint256[]",
          "name": "times",
          "type": "uint256[]"
        },
        {
          "internalType": "address",
          "name": "tokenAddress",
          "type": "address"
        }
      ],
      "name": "consumeMultiple",
      "outputs": [],
      "stateMutability": "nonpayable",
      "type": "function"
    },
    {
      "inputs": [],
      "name": "owner",
      "outputs": [
        {
          "internalType": "address",
          "name": "",
          "type": "address"
        }
      ],
      "stateMutability": "view",
      "type": "function"
    },
    {
      "inputs": [],
      "name": "renounceOwnership",
      "outputs": [],
      "stateMutability": "nonpayable",
      "type": "function"
    },
    {
      "inputs": [
        {
          "internalType": "address[]",
          "name": "contract_addrs",
          "type": "address[]"
        },
        {
          "internalType": "uint256[][]",
          "name": "epoch_starts",
          "type": "uint256[][]"
        },
        {
          "internalType": "bool[][]",
          "name": "trueVals",
          "type": "bool[][]"
        },
        {
          "internalType": "bool[][]",
          "name": "cancelRounds",
          "type": "bool[][]"
        }
      ],
      "name": "submitTruevalContracts",
      "outputs": [],
      "stateMutability": "nonpayable",
      "type": "function"
    },
    {
      "inputs": [
        {
          "internalType": "address",
          "name": "contract_addr",
          "type": "address"
        },
        {
          "internalType": "uint256[]",
          "name": "epoch_starts",
          "type": "uint256[]"
        },
        {
          "internalType": "bool[]",
          "name": "trueVals",
          "type": "bool[]"
        },
        {
          "internalType": "bool[]",
          "name": "cancelRounds",
          "type": "bool[]"
        }
      ],
      "name": "submitTruevals",
      "outputs": [],
      "stateMutability": "nonpayable",
      "type": "function"
    },
    {
      "inputs": [
        {
          "internalType": "address",
          "name": "newOwner",
          "type": "address"
        }
      ],
      "name": "transferOwnership",
      "outputs": [],
      "stateMutability": "nonpayable",
      "type": "function"
    }
  ],
  "bytecode": "0x608060405234801561001057600080fd5b5061001a3361001f565b61006f565b600080546001600160a01b038381166001600160a01b0319831681178455604051919092169283917f8be0079c531659141344cd1fd0a4f28419497f9722a3daafe3b4186f6b6457e09190a35050565b6111ab8061007e6000396000f3fe608060405234801561001057600080fd5b50600436106100625760003560e01c806366ab311414610067578063715018a61461007c5780638da5cb5b14610084578063a621aa0e146100a3578063b835eb34146100b6578063f2fde38b146100c9575b600080fd5b61007a610075366004610afd565b6100dc565b005b61007a6101e5565b600054604080516001600160a01b039092168252519081900360200190f35b61007a6100b1366004610bd6565b6101f9565b61007a6100c4366004610c83565b610219565b61007a6100d7366004610d07565b610870565b6100e46108e9565b86851480156100f257508483145b80156100fd57508281145b6101225760405162461bcd60e51b815260040161011990610d2b565b60405180910390fd5b60005b878110156101da576101c889898381811061014257610142610d75565b90506020020160208101906101579190610d07565b88888481811061016957610169610d75565b905060200281019061017b9190610d8b565b88888681811061018d5761018d610d75565b905060200281019061019f9190610d8b565b8888888181106101b1576101b1610d75565b90506020028101906101c39190610d8b565b610943565b806101d281610deb565b915050610125565b505050505050505050565b6101ed6108e9565b6101f76000610a61565b565b6102016108e9565b61021087878787878787610943565b50505050505050565b6040516370a0823160e01b815230600482015281906000906001600160a01b038316906370a0823190602401602060405180830381865afa158015610262573d6000803e3d6000fd5b505050506040513d601f19601f820116820180604052508101906102869190610e06565b905060005b868110156107285760008888838181106102a7576102a7610d75565b90506020020160208101906102bc9190610d07565b6001600160a01b0316637dda231e6040518163ffffffff1660e01b8152600401600060405180830381865afa1580156102f9573d6000803e3d6000fd5b505050506040513d6000823e601f3d908101601f191682016040526103219190810190610e8f565b905060008160008151811061033857610338610d75565b602002602001015160000151905060008260008151811061035b5761035b610d75565b6020908102919091018101510151604051636e8de4b560e11b815260048101829052670de0b6b3a764000060248201526000604482018190529192508391906001600160a01b0383169063dd1bc96a90606401608060405180830381865afa1580156103cb573d6000803e3d6000fd5b505050506040513d601f19601f820116820180604052508101906103ef9190610f65565b5050509050876001600160a01b03166323b872dd33308e8e8b81811061041757610417610d75565b90506020020135856104299190610f9b565b6040516001600160e01b031960e086901b1681526001600160a01b03938416600482015292909116602483015260448201526064016020604051808303816000875af115801561047d573d6000803e3d6000fd5b505050506040513d601f19601f820116820180604052508101906104a19190610fc8565b6104df5760405162461bcd60e51b815260206004820152600f60248201526e1d1c985b9cd9995c8819985a5b1959608a1b6044820152606401610119565b876001600160a01b031663095ea7b38e8e8981811061050057610500610d75565b90506020020160208101906105159190610d07565b8d8d8a81811061052757610527610d75565b90506020020135846105399190610f9b565b6040516001600160e01b031960e085901b1681526001600160a01b03909216600483015260248201526044016020604051808303816000875af1158015610584573d6000803e3d6000fd5b505050506040513d601f19601f820116820180604052508101906105a89190610fc8565b50604080516080808201835233825260006020808401829052845161010081018652828152808201839052808601839052606080820184905281850184905260a080830185905260c083018590528751808501895285815260e0840152868801929092528651808201885284815280840185905280880185905281870152865191820187526001600160a01b038b16825291810189905294850186905284018190529083018190529091905b8d8d8a81811061066657610666610d75565b9050602002013581101561070d578f8f8a81811061068657610686610d75565b905060200201602081019061069b9190610d07565b6001600160a01b031663a8c09b0b84846040518363ffffffff1660e01b81526004016106c8929190611032565b600060405180830381600087803b1580156106e257600080fd5b505af11580156106f6573d6000803e3d6000fd5b50505050808061070590610deb565b915050610654565b5050505050505050808061072090610deb565b91505061028b565b506040516370a0823160e01b81523060048201526000906001600160a01b038416906370a0823190602401602060405180830381865afa158015610770573d6000803e3d6000fd5b505050506040513d601f19601f820116820180604052508101906107949190610e06565b9050818110156107d55760405162461bcd60e51b815260206004820152600c60248201526b6c6f73742062616c616e636560a01b6044820152606401610119565b81811115610866576001600160a01b03831663a9059cbb336107f78585611141565b6040516001600160e01b031960e085901b1681526001600160a01b03909216600483015260248201526044016020604051808303816000875af1158015610842573d6000803e3d6000fd5b505050506040513d601f19601f820116820180604052508101906101da9190610fc8565b5050505050505050565b6108786108e9565b6001600160a01b0381166108dd5760405162461bcd60e51b815260206004820152602660248201527f4f776e61626c653a206e6577206f776e657220697320746865207a65726f206160448201526564647265737360d01b6064820152608401610119565b6108e681610a61565b50565b6000546001600160a01b031633146101f75760405162461bcd60e51b815260206004820181905260248201527f4f776e61626c653a2063616c6c6572206973206e6f7420746865206f776e65726044820152606401610119565b60005b8581101561086657858414801561095c57508382145b6109785760405162461bcd60e51b815260040161011990610d2b565b876001600160a01b031663bcc09a8f88888481811061099957610999610d75565b905060200201358787858181106109b2576109b2610d75565b90506020020160208101906109c79190611158565b8686868181106109d9576109d9610d75565b90506020020160208101906109ee9190611158565b6040516001600160e01b031960e086901b1681526004810193909352901515602483015215156044820152606401600060405180830381600087803b158015610a3657600080fd5b505af1158015610a4a573d6000803e3d6000fd5b505050508080610a5990610deb565b915050610946565b600080546001600160a01b038381166001600160a01b0319831681178455604051919092169283917f8be0079c531659141344cd1fd0a4f28419497f9722a3daafe3b4186f6b6457e09190a35050565b60008083601f840112610ac357600080fd5b50813567ffffffffffffffff811115610adb57600080fd5b6020830191508360208260051b8501011115610af657600080fd5b9250929050565b6000806000806000806000806080898b031215610b1957600080fd5b883567ffffffffffffffff80821115610b3157600080fd5b610b3d8c838d01610ab1565b909a50985060208b0135915080821115610b5657600080fd5b610b628c838d01610ab1565b909850965060408b0135915080821115610b7b57600080fd5b610b878c838d01610ab1565b909650945060608b0135915080821115610ba057600080fd5b50610bad8b828c01610ab1565b999c989b5096995094979396929594505050565b6001600160a01b03811681146108e657600080fd5b60008060008060008060006080888a031215610bf157600080fd5b8735610bfc81610bc1565b9650602088013567ffffffffffffffff80821115610c1957600080fd5b610c258b838c01610ab1565b909850965060408a0135915080821115610c3e57600080fd5b610c4a8b838c01610ab1565b909650945060608a0135915080821115610c6357600080fd5b50610c708a828b01610ab1565b989b979a50959850939692959293505050565b600080600080600060608688031215610c9b57600080fd5b853567ffffffffffffffff80821115610cb357600080fd5b610cbf89838a01610ab1565b90975095506020880135915080821115610cd857600080fd5b50610ce588828901610ab1565b9094509250506040860135610cf981610bc1565b809150509295509295909350565b600060208284031215610d1957600080fd5b8135610d2481610bc1565b9392505050565b6020808252602a908201527f416c6c20696e70757420617272617973206d75737420686176652074686520736040820152690c2daca40d8cadccee8d60b31b606082015260800190565b634e487b7160e01b600052603260045260246000fd5b6000808335601e19843603018112610da257600080fd5b83018035915067ffffffffffffffff821115610dbd57600080fd5b6020019150600581901b3603821315610af657600080fd5b634e487b7160e01b600052601160045260246000fd5b6000600019821415610dff57610dff610dd5565b5060010190565b600060208284031215610e1857600080fd5b5051919050565b634e487b7160e01b600052604160045260246000fd5b6040805190810167ffffffffffffffff81118282101715610e5857610e58610e1f565b60405290565b604051601f8201601f1916810167ffffffffffffffff81118282101715610e8757610e87610e1f565b604052919050565b60006020808385031215610ea257600080fd5b825167ffffffffffffffff80821115610eba57600080fd5b818501915085601f830112610ece57600080fd5b815181811115610ee057610ee0610e1f565b610eee848260051b01610e5e565b818152848101925060069190911b830184019087821115610f0e57600080fd5b928401925b81841015610f5a5760408489031215610f2c5760008081fd5b610f34610e35565b8451610f3f81610bc1565b81528486015186820152835260409093019291840191610f13565b979650505050505050565b60008060008060808587031215610f7b57600080fd5b505082516020840151604085015160609095015191969095509092509050565b6000816000190483118215151615610fb557610fb5610dd5565b500290565b80151581146108e657600080fd5b600060208284031215610fda57600080fd5b8151610d2481610fba565b6000815180845260005b8181101561100b57602081850181015186830182015201610fef565b8181111561101d576000602083870101525b50601f01601f19169290920160200192915050565b60c08152600060018060a01b038085511660c0840152602085015160e0840152604085015161010060c08186015282825116610180860152826020830151166101a086015260408201516101c0860152606082015192506110996101e086018460ff169052565b608082015161020086015260a082015161022086015260c082015161024086015260e082015192508061026086015250506110d8610280840182610fe5565b60608681015180516001600160a01b0390811661012088015260208083015182166101408901526040928301516101608901528851821681890152880151828801529087015186830152908601516080808701919091528601511660a08501529150610d249050565b60008282101561115357611153610dd5565b500390565b60006020828403121561116a57600080fd5b8135610d2481610fba56fea26469706673582212207a6fd3dd9eac57f908aa7674dad7ecf364b2510623bdda8569cbf56f50ea107964736f6c634300080c0033",
  "linkReferences": {},
  "deployedLinkReferences": {}
}