{
  "_format": "hh-sol-artifact-1",
  "contractName": "Splitter",
  "sourceName": "contracts/df/Splitter.sol",
  "abi": [
    {
      "inputs": [
        {
          "internalType": "address[]",
          "name": "payees",
          "type": "address[]"
        },
        {
          "internalType": "uint256[]",
          "name": "shares_",
          "type": "uint256[]"
        }
      ],
      "stateMutability": "payable",
      "type": "constructor"
    },
    {
      "anonymous": false,
      "inputs": [
        {
          "indexed": true,
          "internalType": "address",
          "name": "previousOwner",
          "type": "address"
        },
        {
          "indexed": true,
          "internalType": "address",
          "name": "newOwner",
          "type": "address"
        }
      ],
      "name": "OwnershipTransferred",
      "type": "event"
    },
    {
      "anonymous": false,
      "inputs": [
        {
          "indexed": false,
          "internalType": "address",
          "name": "account",
          "type": "address"
        },
        {
          "indexed": false,
          "internalType": "uint256",
          "name": "shares",
          "type": "uint256"
        }
      ],
      "name": "PayeeAdded",
      "type": "event"
    },
    {
      "anonymous": false,
      "inputs": [
        {
          "indexed": true,
          "internalType": "contract IERC20",
          "name": "token",
          "type": "address"
        },
        {
          "indexed": true,
          "internalType": "address",
          "name": "account",
          "type": "address"
        },
        {
          "indexed": false,
          "internalType": "uint256",
          "name": "amount",
          "type": "uint256"
        }
      ],
      "name": "PayeePaid",
      "type": "event"
    },
    {
      "anonymous": false,
      "inputs": [
        {
          "indexed": false,
          "internalType": "address",
          "name": "account",
          "type": "address"
        },
        {
          "indexed": false,
          "internalType": "uint256",
          "name": "shares",
          "type": "uint256"
        }
      ],
      "name": "PayeeRemoved",
      "type": "event"
    },
    {
      "anonymous": false,
      "inputs": [
        {
          "indexed": false,
          "internalType": "address",
          "name": "account",
          "type": "address"
        },
        {
          "indexed": false,
          "internalType": "uint256",
          "name": "shares",
          "type": "uint256"
        },
        {
          "indexed": false,
          "internalType": "uint256",
          "name": "oldShares",
          "type": "uint256"
        }
      ],
      "name": "PayeeShareAdjusted",
      "type": "event"
    },
    {
      "anonymous": false,
      "inputs": [
        {
          "indexed": true,
          "internalType": "contract IERC20",
          "name": "token",
          "type": "address"
        },
        {
          "indexed": false,
          "internalType": "uint256",
          "name": "amount",
          "type": "uint256"
        }
      ],
      "name": "PaymentReleased",
      "type": "event"
    },
    {
      "inputs": [
        {
          "internalType": "address",
          "name": "account",
          "type": "address"
        },
        {
          "internalType": "uint256",
          "name": "shares_",
          "type": "uint256"
        }
      ],
      "name": "addPayee",
      "outputs": [],
      "stateMutability": "nonpayable",
      "type": "function"
    },
    {
      "inputs": [
        {
          "internalType": "address",
          "name": "account",
          "type": "address"
        },
        {
          "internalType": "uint256",
          "name": "shares_",
          "type": "uint256"
        }
      ],
      "name": "adjustShare",
      "outputs": [],
      "stateMutability": "nonpayable",
      "type": "function"
    },
    {
      "inputs": [],
      "name": "getPayees",
      "outputs": [
        {
          "internalType": "address[]",
          "name": "",
          "type": "address[]"
        }
      ],
      "stateMutability": "view",
      "type": "function"
    },
    {
      "inputs": [],
      "name": "owner",
      "outputs": [
        {
          "internalType": "address",
          "name": "",
          "type": "address"
        }
      ],
      "stateMutability": "view",
      "type": "function"
    },
    {
      "inputs": [
        {
          "internalType": "contract IERC20",
          "name": "token",
          "type": "address"
        }
      ],
      "name": "release",
      "outputs": [],
      "stateMutability": "nonpayable",
      "type": "function"
    },
    {
      "inputs": [
        {
          "internalType": "address",
          "name": "account",
          "type": "address"
        },
        {
          "internalType": "address",
          "name": "token",
          "type": "address"
        }
      ],
      "name": "released",
      "outputs": [
        {
          "internalType": "uint256",
          "name": "",
          "type": "uint256"
        }
      ],
      "stateMutability": "view",
      "type": "function"
    },
    {
      "inputs": [
        {
          "internalType": "address",
          "name": "account",
          "type": "address"
        }
      ],
      "name": "removePayee",
      "outputs": [],
      "stateMutability": "nonpayable",
      "type": "function"
    },
    {
      "inputs": [],
      "name": "renounceOwnership",
      "outputs": [],
      "stateMutability": "nonpayable",
      "type": "function"
    },
    {
      "inputs": [
        {
          "internalType": "address",
          "name": "account",
          "type": "address"
        }
      ],
      "name": "shares",
      "outputs": [
        {
          "internalType": "uint256",
          "name": "",
          "type": "uint256"
        }
      ],
      "stateMutability": "view",
      "type": "function"
    },
    {
      "inputs": [
        {
          "internalType": "address",
          "name": "token",
          "type": "address"
        }
      ],
      "name": "totalReleased",
      "outputs": [
        {
          "internalType": "uint256",
          "name": "",
          "type": "uint256"
        }
      ],
      "stateMutability": "view",
      "type": "function"
    },
    {
      "inputs": [],
      "name": "totalShares",
      "outputs": [
        {
          "internalType": "uint256",
          "name": "",
          "type": "uint256"
        }
      ],
      "stateMutability": "view",
      "type": "function"
    },
    {
      "inputs": [
        {
          "internalType": "address",
          "name": "newOwner",
          "type": "address"
        }
      ],
      "name": "transferOwnership",
      "outputs": [],
      "stateMutability": "nonpayable",
      "type": "function"
    },
    {
      "stateMutability": "payable",
      "type": "receive"
    }
  ],
  "bytecode": "0x6080604052604051620018173803806200181783398101604081905262000026916200046b565b620000313362000168565b600180558051825114620000a05760405162461bcd60e51b815260206004820152602b60248201527f53706c69747465723a2070617965657320616e6420736861726573206c656e6760448201526a0e8d040dad2e6dac2e8c6d60ab1b60648201526084015b60405180910390fd5b6000825111620000f35760405162461bcd60e51b815260206004820152601360248201527f53706c69747465723a206e6f2070617965657300000000000000000000000000604482015260640162000097565b60005b82518110156200015f576200014a83828151811062000119576200011962000549565b602002602001015183838151811062000136576200013662000549565b6020026020010151620001b860201b60201c565b80620001568162000575565b915050620000f6565b505050620005ae565b600080546001600160a01b038381166001600160a01b0319831681178455604051919092169283917f8be0079c531659141344cd1fd0a4f28419497f9722a3daafe3b4186f6b6457e09190a35050565b6001600160a01b038216620002105760405162461bcd60e51b815260206004820152601660248201527f53706c69747465723a207a65726f206164647265737300000000000000000000604482015260640162000097565b60008111620002625760405162461bcd60e51b815260206004820152601660248201527f53706c69747465723a2073686172657320617265203000000000000000000000604482015260640162000097565b6001600160a01b03821660009081526004602052604090205415620002d65760405162461bcd60e51b8152602060048201526024808201527f53706c69747465723a206163636f756e7420616c7265616479206861732073686044820152636172657360e01b606482015260840162000097565b60068054600181019091557ff652222313e28459528d920b65115c16c04f3efc82aaedc97be59f3f377c0d3f0180546001600160a01b0319166001600160a01b03841690811790915560009081526004602052604090208190556002546200034090829062000593565b600255604080516001600160a01b0384168152602081018390527f40c340f65e17194d14ddddb073d3c9f888e3cb52b5aae0c6c7706b4fbc905fac910160405180910390a15050565b634e487b7160e01b600052604160045260246000fd5b604051601f8201601f191681016001600160401b0381118282101715620003ca57620003ca62000389565b604052919050565b60006001600160401b03821115620003ee57620003ee62000389565b5060051b60200190565b600082601f8301126200040a57600080fd5b81516020620004236200041d83620003d2565b6200039f565b82815260059290921b840181019181810190868411156200044357600080fd5b8286015b8481101562000460578051835291830191830162000447565b509695505050505050565b600080604083850312156200047f57600080fd5b82516001600160401b03808211156200049757600080fd5b818501915085601f830112620004ac57600080fd5b81516020620004bf6200041d83620003d2565b82815260059290921b84018101918181019089841115620004df57600080fd5b948201945b83861015620005165785516001600160a01b0381168114620005065760008081fd5b82529482019490820190620004e4565b918801519196509093505050808211156200053057600080fd5b506200053f85828601620003f8565b9150509250929050565b634e487b7160e01b600052603260045260246000fd5b634e487b7160e01b600052601160045260246000fd5b60006000198214156200058c576200058c6200055f565b5060010190565b60008219821115620005a957620005a96200055f565b500190565b61125980620005be6000396000f3fe6080604052600436106100ab5760003560e01c8063715018a611610064578063715018a6146101f55780638da5cb5b1461020a578063bed2ffbd14610232578063ce7c2ac214610252578063d79779b214610288578063f2fde38b146102be57600080fd5b806318f9b02314610102578063191655871461012457806327f38113146101445780633a98ef391461016f5780633ed358551461018e578063406072a9146101ae57600080fd5b366100fd5760405162461bcd60e51b815260206004820152601e60248201527f53706c69747465723a2063616e6e6f742072656365697665206574686572000060448201526064015b60405180910390fd5b600080fd5b34801561010e57600080fd5b5061012261011d366004610f96565b6102de565b005b34801561013057600080fd5b5061012261013f366004610fc2565b6102f4565b34801561015057600080fd5b506101596105af565b6040516101669190610fe6565b60405180910390f35b34801561017b57600080fd5b506002545b604051908152602001610166565b34801561019a57600080fd5b506101226101a9366004610fc2565b610611565b3480156101ba57600080fd5b506101806101c9366004611033565b6001600160a01b0380821660009081526005602090815260408083209386168352929052205492915050565b34801561020157600080fd5b50610122610622565b34801561021657600080fd5b506000546040516001600160a01b039091168152602001610166565b34801561023e57600080fd5b5061012261024d366004610f96565b610636565b34801561025e57600080fd5b5061018061026d366004610fc2565b6001600160a01b031660009081526004602052604090205490565b34801561029457600080fd5b506101806102a3366004610fc2565b6001600160a01b031660009081526003602052604090205490565b3480156102ca57600080fd5b506101226102d9366004610fc2565b610648565b6102e66106be565b6102f08282610718565b5050565b6102fc6108aa565b6000600254116103445760405162461bcd60e51b815260206004820152601360248201527253706c69747465723a206e6f2073686172657360681b60448201526064016100f4565b6040516370a0823160e01b81523060048201526000906001600160a01b038316906370a0823190602401602060405180830381865afa15801561038b573d6000803e3d6000fd5b505050506040513d601f19601f820116820180604052508101906103af919061106c565b905060018110156103c057506105a3565b6103cb60018261109b565b90506000805b600654811015610524576000600682815481106103f0576103f06110b2565b60009182526020822001546006546001600160a01b0390911692506104179060019061109b565b83141561042f57610428848661109b565b9050610462565b6002546001600160a01b03831660009081526004602052604090205461045590876110c8565b61045f91906110e7565b90505b801561050f576001600160a01b038083166000908152600560209081526040808320938a1683529290522054610499908290611109565b6001600160a01b038381166000818152600560209081526040808320948c1680845294825291829020949094555184815290927fe75230d22f4893b91b112b7d9ca628e5600c2c243d502061aa8a232bdd0773b2910160405180910390a3610502868383610904565b61050c8185611109565b93505b5050808061051c90611121565b9150506103d1565b506001600160a01b038316600090815260036020526040902054610549908290611109565b6001600160a01b038416600081815260036020526040908190209290925590517fdf20fd1e76bc69d672e4814fafb2c449bba3a5369d8359adf9e05e6fde87b056906105989084815260200190565b60405180910390a250505b6105ac60018055565b50565b6060600680548060200260200160405190810160405280929190818152602001828054801561060757602002820191906000526020600020905b81546001600160a01b031681526001909101906020018083116105e9575b5050505050905090565b6106196106be565b6105ac8161095b565b61062a6106be565b6106346000610b71565b565b61063e6106be565b6102f08282610bc1565b6106506106be565b6001600160a01b0381166106b55760405162461bcd60e51b815260206004820152602660248201527f4f776e61626c653a206e6577206f776e657220697320746865207a65726f206160448201526564647265737360d01b60648201526084016100f4565b6105ac81610b71565b6000546001600160a01b031633146106345760405162461bcd60e51b815260206004820181905260248201527f4f776e61626c653a2063616c6c6572206973206e6f7420746865206f776e657260448201526064016100f4565b6001600160a01b03821661073e5760405162461bcd60e51b81526004016100f49061113c565b600081116107875760405162461bcd60e51b8152602060048201526016602482015275053706c69747465723a207368617265732061726520360541b60448201526064016100f4565b6001600160a01b038216600090815260046020526040902054156107f95760405162461bcd60e51b8152602060048201526024808201527f53706c69747465723a206163636f756e7420616c7265616479206861732073686044820152636172657360e01b60648201526084016100f4565b60068054600181019091557ff652222313e28459528d920b65115c16c04f3efc82aaedc97be59f3f377c0d3f0180546001600160a01b0319166001600160a01b0384169081179091556000908152600460205260409020819055600254610861908290611109565b600255604080516001600160a01b0384168152602081018390527f40c340f65e17194d14ddddb073d3c9f888e3cb52b5aae0c6c7706b4fbc905fac910160405180910390a15050565b600260015414156108fd5760405162461bcd60e51b815260206004820152601f60248201527f5265656e7472616e637947756172643a207265656e7472616e742063616c6c0060448201526064016100f4565b6002600155565b604080516001600160a01b038416602482015260448082018490528251808303909101815260649091019091526020810180516001600160e01b031663a9059cbb60e01b179052610956908490610d1f565b505050565b6001600160a01b0381166109815760405162461bcd60e51b81526004016100f49061113c565b6001600160a01b0381166000908152600460205260409020546109e65760405162461bcd60e51b815260206004820152601f60248201527f53706c69747465723a206163636f756e7420686173206e6f207368617265730060448201526064016100f4565b60005b6006548110156102f057816001600160a01b031660068281548110610a1057610a106110b2565b6000918252602090912001546001600160a01b03161415610b5f5760068054610a3b9060019061109b565b81548110610a4b57610a4b6110b2565b600091825260209091200154600680546001600160a01b039092169183908110610a7757610a776110b2565b600091825260208083209190910180546001600160a01b0319166001600160a01b03948516179055918416815260049091526040902054600254610abb919061109b565b6002556001600160a01b038216600081815260046020908152604091829020548251938452908301527f104b8837ec12e86f303ac7ce5e3bf20c6790f843fabd7451943f3390fc8376cb910160405180910390a16001600160a01b0382166000908152600460205260408120556006805480610b3957610b3961116c565b600082815260209020810160001990810180546001600160a01b03191690550190555050565b80610b6981611121565b9150506109e9565b600080546001600160a01b038381166001600160a01b0319831681178455604051919092169283917f8be0079c531659141344cd1fd0a4f28419497f9722a3daafe3b4186f6b6457e09190a35050565b6001600160a01b038216610be75760405162461bcd60e51b81526004016100f49061113c565b60008111610c305760405162461bcd60e51b8152602060048201526016602482015275053706c69747465723a207368617265732061726520360541b60448201526064016100f4565b6001600160a01b038216600090815260046020526040902054610c955760405162461bcd60e51b815260206004820152601f60248201527f53706c69747465723a206163636f756e7420686173206e6f207368617265730060448201526064016100f4565b6001600160a01b03821660009081526004602052604090208054908290556002548290610cc390839061109b565b610ccd9190611109565b600255604080516001600160a01b0385168152602081018490529081018290527f896e0ab97533c85f949dd4c244c1513b98167c0ce0e1ddd3ad53dfcac8846a279060600160405180910390a1505050565b6000610d74826040518060400160405280602081526020017f5361666545524332303a206c6f772d6c6576656c2063616c6c206661696c6564815250856001600160a01b0316610df49092919063ffffffff16565b9050805160001480610d95575080806020019051810190610d959190611182565b6109565760405162461bcd60e51b815260206004820152602a60248201527f5361666545524332303a204552433230206f7065726174696f6e20646964206e6044820152691bdd081cdd58d8d9595960b21b60648201526084016100f4565b6060610e038484600085610e0b565b949350505050565b606082471015610e6c5760405162461bcd60e51b815260206004820152602660248201527f416464726573733a20696e73756666696369656e742062616c616e636520666f6044820152651c8818d85b1b60d21b60648201526084016100f4565b600080866001600160a01b03168587604051610e8891906111d4565b60006040518083038185875af1925050503d8060008114610ec5576040519150601f19603f3d011682016040523d82523d6000602084013e610eca565b606091505b5091509150610edb87838387610ee6565b979650505050505050565b60608315610f52578251610f4b576001600160a01b0385163b610f4b5760405162461bcd60e51b815260206004820152601d60248201527f416464726573733a2063616c6c20746f206e6f6e2d636f6e747261637400000060448201526064016100f4565b5081610e03565b610e038383815115610f675781518083602001fd5b8060405162461bcd60e51b81526004016100f491906111f0565b6001600160a01b03811681146105ac57600080fd5b60008060408385031215610fa957600080fd5b8235610fb481610f81565b946020939093013593505050565b600060208284031215610fd457600080fd5b8135610fdf81610f81565b9392505050565b6020808252825182820181905260009190848201906040850190845b818110156110275783516001600160a01b031683529284019291840191600101611002565b50909695505050505050565b6000806040838503121561104657600080fd5b823561105181610f81565b9150602083013561106181610f81565b809150509250929050565b60006020828403121561107e57600080fd5b5051919050565b634e487b7160e01b600052601160045260246000fd5b6000828210156110ad576110ad611085565b500390565b634e487b7160e01b600052603260045260246000fd5b60008160001904831182151516156110e2576110e2611085565b500290565b60008261110457634e487b7160e01b600052601260045260246000fd5b500490565b6000821982111561111c5761111c611085565b500190565b600060001982141561113557611135611085565b5060010190565b60208082526016908201527553706c69747465723a207a65726f206164647265737360501b604082015260600190565b634e487b7160e01b600052603160045260246000fd5b60006020828403121561119457600080fd5b81518015158114610fdf57600080fd5b60005b838110156111bf5781810151838201526020016111a7565b838111156111ce576000848401525b50505050565b600082516111e68184602087016111a4565b9190910192915050565b602081526000825180602084015261120f8160408501602087016111a4565b601f01601f1916919091016040019291505056fea264697066735822122079a7cc139f773998d7512900b3d668ccca42f6cc40f2150b3bf3ce7d7f1532d264736f6c634300080c0033",
  "linkReferences": {},
  "deployedLinkReferences": {}
}