{
  "_format": "hh-sol-artifact-1",
  "contractName": "BatchPayments",
  "sourceName": "contracts/rewards/BatchPayments.sol",
  "abi": [
    {
      "inputs": [
        {
          "internalType": "address[]",
          "name": "list",
          "type": "address[]"
        },
        {
          "internalType": "uint256[]",
          "name": "amounts",
          "type": "uint256[]"
        }
      ],
      "name": "sendEther",
      "outputs": [],
      "stateMutability": "payable",
      "type": "function"
    },
    {
      "inputs": [
        {
          "internalType": "contract IERC20",
          "name": "token",
          "type": "address"
        },
        {
          "internalType": "address[]",
          "name": "list",
          "type": "address[]"
        },
        {
          "internalType": "uint256[]",
          "name": "amounts",
          "type": "uint256[]"
        }
      ],
      "name": "sendToken",
      "outputs": [],
      "stateMutability": "nonpayable",
      "type": "function"
    }
  ],
  "bytecode": "0x608060405234801561001057600080fd5b50610684806100206000396000f3fe6080604052600436106100295760003560e01c80630a333a0f1461002e578063bcc91d6114610050575b600080fd5b34801561003a57600080fd5b5061004e6100493660046104ec565b610063565b005b61004e61005e366004610562565b610265565b80518251146100b95760405162461bcd60e51b815260206004820152601c60248201527f417272617973206d75737420686176652073616d65206c656e6774680000000060448201526064015b60405180910390fd5b6000805b83518110156100ff578281815181106100d8576100d86105c6565b6020026020010151826100eb91906105f2565b9150806100f78161060a565b9150506100bd565b6040516323b872dd60e01b8152336004820152306024820152604481018390526001600160a01b038616906323b872dd906064016020604051808303816000875af1158015610152573d6000803e3d6000fd5b505050506040513d601f19601f820116820180604052508101906101769190610625565b61017f57600080fd5b5060005b835181101561025e57846001600160a01b031663a9059cbb8583815181106101ad576101ad6105c6565b60200260200101518584815181106101c7576101c76105c6565b60200260200101516040518363ffffffff1660e01b81526004016102009291906001600160a01b03929092168252602082015260400190565b6020604051808303816000875af115801561021f573d6000803e3d6000fd5b505050506040513d601f19601f820116820180604052508101906102439190610625565b61024c57600080fd5b806102568161060a565b915050610183565b5050505050565b80518251146102b65760405162461bcd60e51b815260206004820152601c60248201527f417272617973206d75737420686176652073616d65206c656e6774680000000060448201526064016100b0565b60005b8251811015610340578281815181106102d4576102d46105c6565b60200260200101516001600160a01b03166108fc8383815181106102fa576102fa6105c6565b60200260200101519081150290604051600060405180830381858888f1935050505015801561032d573d6000803e3d6000fd5b50806103388161060a565b9150506102b9565b50476159d88111156103955760405133908290600081818185875af1925050503d806000811461038c576040519150601f19603f3d011682016040523d82523d6000602084013e610391565b606091505b5050505b505050565b6001600160a01b03811681146103af57600080fd5b50565b634e487b7160e01b600052604160045260246000fd5b604051601f8201601f1916810167ffffffffffffffff811182821017156103f1576103f16103b2565b604052919050565b600067ffffffffffffffff821115610413576104136103b2565b5060051b60200190565b600082601f83011261042e57600080fd5b8135602061044361043e836103f9565b6103c8565b82815260059290921b8401810191818101908684111561046257600080fd5b8286015b848110156104865780356104798161039a565b8352918301918301610466565b509695505050505050565b600082601f8301126104a257600080fd5b813560206104b261043e836103f9565b82815260059290921b840181019181810190868411156104d157600080fd5b8286015b8481101561048657803583529183019183016104d5565b60008060006060848603121561050157600080fd5b833561050c8161039a565b9250602084013567ffffffffffffffff8082111561052957600080fd5b6105358783880161041d565b9350604086013591508082111561054b57600080fd5b5061055886828701610491565b9150509250925092565b6000806040838503121561057557600080fd5b823567ffffffffffffffff8082111561058d57600080fd5b6105998683870161041d565b935060208501359150808211156105af57600080fd5b506105bc85828601610491565b9150509250929050565b634e487b7160e01b600052603260045260246000fd5b634e487b7160e01b600052601160045260246000fd5b60008219821115610605576106056105dc565b500190565b600060001982141561061e5761061e6105dc565b5060010190565b60006020828403121561063757600080fd5b8151801515811461064757600080fd5b939250505056fea2646970667358221220bdf07d8ce0efb3c74c7210c708d9ce06493b71ae8cc8d8e4f921f8f15c1b7f1064736f6c634300080c0033",
  "linkReferences": {},
  "deployedLinkReferences": {}
}