{
  "_format": "hh-sol-artifact-1",
  "contractName": "OPFCommunityFeeCollector",
  "sourceName": "contracts/communityFee/OPFCommunityFeeCollector.sol",
  "abi": [
    {
      "inputs": [
        {
          "internalType": "address payable",
          "name": "newCollector",
          "type": "address"
        },
        {
          "internalType": "address",
          "name": "OPFOwnerAddress",
          "type": "address"
        }
      ],
      "stateMutability": "nonpayable",
      "type": "constructor"
    },
    {
      "anonymous": false,
      "inputs": [
        {
          "indexed": true,
          "internalType": "address",
          "name": "previousOwner",
          "type": "address"
        },
        {
          "indexed": true,
          "internalType": "address",
          "name": "newOwner",
          "type": "address"
        }
      ],
      "name": "OwnershipTransferred",
      "type": "event"
    },
    {
      "stateMutability": "payable",
      "type": "fallback"
    },
    {
      "inputs": [
        {
          "internalType": "address payable",
          "name": "newCollector",
          "type": "address"
        }
      ],
      "name": "changeCollector",
      "outputs": [],
      "stateMutability": "nonpayable",
      "type": "function"
    },
    {
      "inputs": [],
      "name": "owner",
      "outputs": [
        {
          "internalType": "address",
          "name": "",
          "type": "address"
        }
      ],
      "stateMutability": "view",
      "type": "function"
    },
    {
      "inputs": [],
      "name": "renounceOwnership",
      "outputs": [],
      "stateMutability": "nonpayable",
      "type": "function"
    },
    {
      "inputs": [
        {
          "internalType": "address",
          "name": "newOwner",
          "type": "address"
        }
      ],
      "name": "transferOwnership",
      "outputs": [],
      "stateMutability": "nonpayable",
      "type": "function"
    },
    {
      "inputs": [],
      "name": "withdrawETH",
      "outputs": [],
      "stateMutability": "payable",
      "type": "function"
    },
    {
      "inputs": [
        {
          "internalType": "address",
          "name": "tokenAddress",
          "type": "address"
        }
      ],
      "name": "withdrawToken",
      "outputs": [],
      "stateMutability": "nonpayable",
      "type": "function"
    },
    {
      "stateMutability": "payable",
      "type": "receive"
    }
  ],
  "bytecode": "0x608060405234801561001057600080fd5b50604051610acd380380610acd83398101604081905261002f91610244565b6100383361010a565b6001600160a01b0382161580159061005857506001600160a01b03811615155b6100df5760405162461bcd60e51b815260206004820152604760248201527f4f5046436f6d6d756e697479466565436f6c6c6563746f723a20636f6c6c656360448201527f746f722061646472657373206f72206f776e657220697320696e76616c6964206064820152666164647265737360c81b608482015260a4015b60405180910390fd5b600180546001600160a01b0319166001600160a01b0384161790556101038161015a565b505061027e565b600080546001600160a01b038381166001600160a01b0319831681178455604051919092169283917f8be0079c531659141344cd1fd0a4f28419497f9722a3daafe3b4186f6b6457e09190a35050565b6101626101d3565b6001600160a01b0381166101c75760405162461bcd60e51b815260206004820152602660248201527f4f776e61626c653a206e6577206f776e657220697320746865207a65726f206160448201526564647265737360d01b60648201526084016100d6565b6101d08161010a565b50565b6000546001600160a01b0316331461022d5760405162461bcd60e51b815260206004820181905260248201527f4f776e61626c653a2063616c6c6572206973206e6f7420746865206f776e657260448201526064016100d6565b565b6001600160a01b03811681146101d057600080fd5b6000806040838503121561025757600080fd5b82516102628161022f565b60208401519092506102738161022f565b809150509250929050565b6108408061028d6000396000f3fe6080604052600436106100565760003560e01c8063715018a61461005f5780637781127e1461007457806389476069146100945780638da5cb5b146100b4578063e086e5ec146100e0578063f2fde38b146100e857005b3661005d57005b005b34801561006b57600080fd5b5061005d610108565b34801561008057600080fd5b5061005d61008f366004610733565b61011c565b3480156100a057600080fd5b5061005d6100af366004610733565b6101bd565b3480156100c057600080fd5b50600054604080516001600160a01b039092168252519081900360200190f35b61005d6102c1565b3480156100f457600080fd5b5061005d610103366004610733565b61035b565b6101106103d1565b61011a600061042b565b565b6101246103d1565b6001600160a01b03811661019b5760405162461bcd60e51b815260206004820152603360248201527f4f5046436f6d6d756e697479466565436f6c6c6563746f723a20696e76616c696044820152726420636f6c6c6563746f72206164647265737360681b60648201526084015b60405180910390fd5b600180546001600160a01b0319166001600160a01b0392909216919091179055565b6001600160a01b0381166102395760405162461bcd60e51b815260206004820152603860248201527f4f5046436f6d6d756e697479466565436f6c6c6563746f723a20696e76616c6960448201527f6420746f6b656e20636f6e7472616374206164647265737300000000000000006064820152608401610192565b6001546040516370a0823160e01b81523060048201526102be916001600160a01b0390811691908416906370a0823190602401602060405180830381865afa158015610289573d6000803e3d6000fd5b505050506040513d601f19601f820116820180604052508101906102ad9190610750565b6001600160a01b038416919061047b565b50565b6001546040516000916001600160a01b03169047908381818185875af1925050503d806000811461030e576040519150601f19603f3d011682016040523d82523d6000602084013e610313565b606091505b50509050806102be5760405162461bcd60e51b81526020600482015260146024820152732330b4b632b2103a379039b2b7321022ba3432b960611b6044820152606401610192565b6103636103d1565b6001600160a01b0381166103c85760405162461bcd60e51b815260206004820152602660248201527f4f776e61626c653a206e6577206f776e657220697320746865207a65726f206160448201526564647265737360d01b6064820152608401610192565b6102be8161042b565b6000546001600160a01b0316331461011a5760405162461bcd60e51b815260206004820181905260248201527f4f776e61626c653a2063616c6c6572206973206e6f7420746865206f776e65726044820152606401610192565b600080546001600160a01b038381166001600160a01b0319831681178455604051919092169283917f8be0079c531659141344cd1fd0a4f28419497f9722a3daafe3b4186f6b6457e09190a35050565b604080516001600160a01b038416602482015260448082018490528251808303909101815260649091019091526020810180516001600160e01b031663a9059cbb60e01b1790526104cd9084906104d2565b505050565b6000610527826040518060400160405280602081526020017f5361666545524332303a206c6f772d6c6576656c2063616c6c206661696c6564815250856001600160a01b03166105a49092919063ffffffff16565b8051909150156104cd57808060200190518101906105459190610769565b6104cd5760405162461bcd60e51b815260206004820152602a60248201527f5361666545524332303a204552433230206f7065726174696f6e20646964206e6044820152691bdd081cdd58d8d9595960b21b6064820152608401610192565b60606105b384846000856105bd565b90505b9392505050565b60608247101561061e5760405162461bcd60e51b815260206004820152602660248201527f416464726573733a20696e73756666696369656e742062616c616e636520666f6044820152651c8818d85b1b60d21b6064820152608401610192565b843b61066c5760405162461bcd60e51b815260206004820152601d60248201527f416464726573733a2063616c6c20746f206e6f6e2d636f6e74726163740000006044820152606401610192565b600080866001600160a01b0316858760405161068891906107bb565b60006040518083038185875af1925050503d80600081146106c5576040519150601f19603f3d011682016040523d82523d6000602084013e6106ca565b606091505b50915091506106da8282866106e5565b979650505050505050565b606083156106f45750816105b6565b8251156107045782518084602001fd5b8160405162461bcd60e51b815260040161019291906107d7565b6001600160a01b03811681146102be57600080fd5b60006020828403121561074557600080fd5b81356105b68161071e565b60006020828403121561076257600080fd5b5051919050565b60006020828403121561077b57600080fd5b815180151581146105b657600080fd5b60005b838110156107a657818101518382015260200161078e565b838111156107b5576000848401525b50505050565b600082516107cd81846020870161078b565b9190910192915050565b60208152600082518060208401526107f681604085016020870161078b565b601f01601f1916919091016040019291505056fea264697066735822122012d085b11389a66ac86b67d6b53a01690f278ccddff9bf11d756357561b3fdc464736f6c634300080c0033",
  "linkReferences": {},
  "deployedLinkReferences": {}
}