{
  "_format": "hh-sol-artifact-1",
  "contractName": "Distribute",
  "sourceName": "contracts/df/Distribute.sol",
  "abi": [
    {
      "inputs": [
        {
          "internalType": "address",
          "name": "token",
          "type": "address"
        },
        {
          "internalType": "address",
          "name": "vestingContract",
          "type": "address"
        },
        {
          "internalType": "address",
          "name": "splitterContract",
          "type": "address"
        }
      ],
      "name": "distribute",
      "outputs": [],
      "stateMutability": "nonpayable",
      "type": "function"
    },
    {
      "inputs": [
        {
          "internalType": "address",
          "name": "token",
          "type": "address"
        },
        {
          "internalType": "address[]",
          "name": "vestingContract",
          "type": "address[]"
        },
        {
          "internalType": "address",
          "name": "splitterContract",
          "type": "address"
        }
      ],
      "name": "distributeMultiple",
      "outputs": [],
      "stateMutability": "nonpayable",
      "type": "function"
    }
  ],
  "bytecode": "0x608060405234801561001057600080fd5b506103af806100206000396000f3fe608060405234801561001057600080fd5b50600436106100365760003560e01c806301ed7f8b1461003b5780633c49798914610050575b600080fd5b61004e610049366004610202565b610063565b005b61004e61005e36600461025b565b61011f565b604051631916558760e01b81526001600160a01b038481166004830152831690631916558790602401600060405180830381600087803b1580156100a657600080fd5b505af11580156100ba573d6000803e3d6000fd5b5050604051631916558760e01b81526001600160a01b03868116600483015284169250631916558791506024015b600060405180830381600087803b15801561010257600080fd5b505af1158015610116573d6000803e3d6000fd5b50505050505050565b60005b82518110156101b75782818151811061013d5761013d61033a565b6020908102919091010151604051631916558760e01b81526001600160a01b03868116600483015290911690631916558790602401600060405180830381600087803b15801561018c57600080fd5b505af11580156101a0573d6000803e3d6000fd5b5050505080806101af90610350565b915050610122565b50604051631916558760e01b81526001600160a01b0384811660048301528216906319165587906024016100e8565b80356001600160a01b03811681146101fd57600080fd5b919050565b60008060006060848603121561021757600080fd5b610220846101e6565b925061022e602085016101e6565b915061023c604085016101e6565b90509250925092565b634e487b7160e01b600052604160045260246000fd5b60008060006060848603121561027057600080fd5b610279846101e6565b925060208085013567ffffffffffffffff8082111561029757600080fd5b818701915087601f8301126102ab57600080fd5b8135818111156102bd576102bd610245565b8060051b604051601f19603f830116810181811085821117156102e2576102e2610245565b60405291825284820192508381018501918a83111561030057600080fd5b938501935b8285101561032557610316856101e6565b84529385019392850192610305565b80975050505050505061023c604085016101e6565b634e487b7160e01b600052603260045260246000fd5b600060001982141561037257634e487b7160e01b600052601160045260246000fd5b506001019056fea2646970667358221220430b0bf35d219a92af56a4866f5b68924395781ec7091bd9b7ffd2a15a91efbd64736f6c634300080c0033",
  "linkReferences": {},
  "deployedLinkReferences": {}
}