{
  "_format": "hh-sol-artifact-1",
  "contractName": "Booster",
  "sourceName": "contracts/rewards/Booster.sol",
  "abi": [
    {
      "inputs": [
        {
          "internalType": "string",
          "name": "_name",
          "type": "string"
        },
        {
          "internalType": "string",
          "name": "_symbol",
          "type": "string"
        },
        {
          "internalType": "uint256",
          "name": "_boost",
          "type": "uint256"
        }
      ],
      "stateMutability": "nonpayable",
      "type": "constructor"
    },
    {
      "anonymous": false,
      "inputs": [
        {
          "indexed": true,
          "internalType": "address",
          "name": "owner",
          "type": "address"
        },
        {
          "indexed": true,
          "internalType": "address",
          "name": "approved",
          "type": "address"
        },
        {
          "indexed": true,
          "internalType": "uint256",
          "name": "tokenId",
          "type": "uint256"
        }
      ],
      "name": "Approval",
      "type": "event"
    },
    {
      "anonymous": false,
      "inputs": [
        {
          "indexed": true,
          "internalType": "address",
          "name": "owner",
          "type": "address"
        },
        {
          "indexed": true,
          "internalType": "address",
          "name": "operator",
          "type": "address"
        },
        {
          "indexed": false,
          "internalType": "bool",
          "name": "approved",
          "type": "bool"
        }
      ],
      "name": "ApprovalForAll",
      "type": "event"
    },
    {
      "anonymous": false,
      "inputs": [
        {
          "indexed": false,
          "internalType": "uint256",
          "name": "_fromTokenId",
          "type": "uint256"
        },
        {
          "indexed": false,
          "internalType": "uint256",
          "name": "_toTokenId",
          "type": "uint256"
        }
      ],
      "name": "BatchMetadataUpdate",
      "type": "event"
    },
    {
      "anonymous": false,
      "inputs": [
        {
          "indexed": false,
          "internalType": "uint256",
          "name": "_tokenId",
          "type": "uint256"
        }
      ],
      "name": "MetadataUpdate",
      "type": "event"
    },
    {
      "anonymous": false,
      "inputs": [
        {
          "indexed": true,
          "internalType": "address",
          "name": "previousOwner",
          "type": "address"
        },
        {
          "indexed": true,
          "internalType": "address",
          "name": "newOwner",
          "type": "address"
        }
      ],
      "name": "OwnershipTransferred",
      "type": "event"
    },
    {
      "anonymous": false,
      "inputs": [
        {
          "indexed": true,
          "internalType": "address",
          "name": "from",
          "type": "address"
        },
        {
          "indexed": true,
          "internalType": "address",
          "name": "to",
          "type": "address"
        },
        {
          "indexed": true,
          "internalType": "uint256",
          "name": "tokenId",
          "type": "uint256"
        }
      ],
      "name": "Transfer",
      "type": "event"
    },
    {
      "inputs": [
        {
          "internalType": "address",
          "name": "to",
          "type": "address"
        },
        {
          "internalType": "uint256",
          "name": "tokenId",
          "type": "uint256"
        }
      ],
      "name": "approve",
      "outputs": [],
      "stateMutability": "nonpayable",
      "type": "function"
    },
    {
      "inputs": [
        {
          "internalType": "address",
          "name": "owner",
          "type": "address"
        }
      ],
      "name": "balanceOf",
      "outputs": [
        {
          "internalType": "uint256",
          "name": "",
          "type": "uint256"
        }
      ],
      "stateMutability": "view",
      "type": "function"
    },
    {
      "inputs": [
        {
          "internalType": "address[]",
          "name": "user",
          "type": "address[]"
        },
        {
          "internalType": "string[]",
          "name": "_tokenURI",
          "type": "string[]"
        }
      ],
      "name": "batchCreateBoosts",
      "outputs": [],
      "stateMutability": "nonpayable",
      "type": "function"
    },
    {
      "inputs": [],
      "name": "boost",
      "outputs": [
        {
          "internalType": "uint256",
          "name": "",
          "type": "uint256"
        }
      ],
      "stateMutability": "view",
      "type": "function"
    },
    {
      "inputs": [
        {
          "internalType": "address",
          "name": "user",
          "type": "address"
        },
        {
          "internalType": "string",
          "name": "_tokenURI",
          "type": "string"
        }
      ],
      "name": "createBoost",
      "outputs": [
        {
          "internalType": "uint256",
          "name": "",
          "type": "uint256"
        }
      ],
      "stateMutability": "nonpayable",
      "type": "function"
    },
    {
      "inputs": [
        {
          "internalType": "uint256",
          "name": "tokenId",
          "type": "uint256"
        }
      ],
      "name": "getApproved",
      "outputs": [
        {
          "internalType": "address",
          "name": "",
          "type": "address"
        }
      ],
      "stateMutability": "view",
      "type": "function"
    },
    {
      "inputs": [
        {
          "internalType": "address",
          "name": "owner",
          "type": "address"
        },
        {
          "internalType": "address",
          "name": "operator",
          "type": "address"
        }
      ],
      "name": "isApprovedForAll",
      "outputs": [
        {
          "internalType": "bool",
          "name": "",
          "type": "bool"
        }
      ],
      "stateMutability": "view",
      "type": "function"
    },
    {
      "inputs": [],
      "name": "name",
      "outputs": [
        {
          "internalType": "string",
          "name": "",
          "type": "string"
        }
      ],
      "stateMutability": "view",
      "type": "function"
    },
    {
      "inputs": [],
      "name": "owner",
      "outputs": [
        {
          "internalType": "address",
          "name": "",
          "type": "address"
        }
      ],
      "stateMutability": "view",
      "type": "function"
    },
    {
      "inputs": [
        {
          "internalType": "uint256",
          "name": "tokenId",
          "type": "uint256"
        }
      ],
      "name": "ownerOf",
      "outputs": [
        {
          "internalType": "address",
          "name": "",
          "type": "address"
        }
      ],
      "stateMutability": "view",
      "type": "function"
    },
    {
      "inputs": [],
      "name": "renounceOwnership",
      "outputs": [],
      "stateMutability": "nonpayable",
      "type": "function"
    },
    {
      "inputs": [
        {
          "internalType": "address",
          "name": "from",
          "type": "address"
        },
        {
          "internalType": "address",
          "name": "to",
          "type": "address"
        },
        {
          "internalType": "uint256",
          "name": "tokenId",
          "type": "uint256"
        }
      ],
      "name": "safeTransferFrom",
      "outputs": [],
      "stateMutability": "nonpayable",
      "type": "function"
    },
    {
      "inputs": [
        {
          "internalType": "address",
          "name": "from",
          "type": "address"
        },
        {
          "internalType": "address",
          "name": "to",
          "type": "address"
        },
        {
          "internalType": "uint256",
          "name": "tokenId",
          "type": "uint256"
        },
        {
          "internalType": "bytes",
          "name": "data",
          "type": "bytes"
        }
      ],
      "name": "safeTransferFrom",
      "outputs": [],
      "stateMutability": "nonpayable",
      "type": "function"
    },
    {
      "inputs": [
        {
          "internalType": "address",
          "name": "operator",
          "type": "address"
        },
        {
          "internalType": "bool",
          "name": "approved",
          "type": "bool"
        }
      ],
      "name": "setApprovalForAll",
      "outputs": [],
      "stateMutability": "nonpayable",
      "type": "function"
    },
    {
      "inputs": [
        {
          "internalType": "bytes4",
          "name": "interfaceId",
          "type": "bytes4"
        }
      ],
      "name": "supportsInterface",
      "outputs": [
        {
          "internalType": "bool",
          "name": "",
          "type": "bool"
        }
      ],
      "stateMutability": "view",
      "type": "function"
    },
    {
      "inputs": [],
      "name": "symbol",
      "outputs": [
        {
          "internalType": "string",
          "name": "",
          "type": "string"
        }
      ],
      "stateMutability": "view",
      "type": "function"
    },
    {
      "inputs": [
        {
          "internalType": "uint256",
          "name": "index",
          "type": "uint256"
        }
      ],
      "name": "tokenByIndex",
      "outputs": [
        {
          "internalType": "uint256",
          "name": "",
          "type": "uint256"
        }
      ],
      "stateMutability": "view",
      "type": "function"
    },
    {
      "inputs": [
        {
          "internalType": "address",
          "name": "owner",
          "type": "address"
        },
        {
          "internalType": "uint256",
          "name": "index",
          "type": "uint256"
        }
      ],
      "name": "tokenOfOwnerByIndex",
      "outputs": [
        {
          "internalType": "uint256",
          "name": "",
          "type": "uint256"
        }
      ],
      "stateMutability": "view",
      "type": "function"
    },
    {
      "inputs": [
        {
          "internalType": "uint256",
          "name": "tokenId",
          "type": "uint256"
        }
      ],
      "name": "tokenURI",
      "outputs": [
        {
          "internalType": "string",
          "name": "",
          "type": "string"
        }
      ],
      "stateMutability": "view",
      "type": "function"
    },
    {
      "inputs": [],
      "name": "totalSupply",
      "outputs": [
        {
          "internalType": "uint256",
          "name": "",
          "type": "uint256"
        }
      ],
      "stateMutability": "view",
      "type": "function"
    },
    {
      "inputs": [
        {
          "internalType": "address",
          "name": "from",
          "type": "address"
        },
        {
          "internalType": "address",
          "name": "to",
          "type": "address"
        },
        {
          "internalType": "uint256",
          "name": "tokenId",
          "type": "uint256"
        }
      ],
      "name": "transferFrom",
      "outputs": [],
      "stateMutability": "nonpayable",
      "type": "function"
    },
    {
      "inputs": [
        {
          "internalType": "address",
          "name": "newOwner",
          "type": "address"
        }
      ],
      "name": "transferOwnership",
      "outputs": [],
      "stateMutability": "nonpayable",
      "type": "function"
    }
  ],
  "bytecode": "0x60a060405234801561001057600080fd5b506040516122be3803806122be83398101604081905261002f9161016a565b828261003a33610061565b60016100468382610265565b5060026100538282610265565b505050608052506103239050565b600080546001600160a01b038381166001600160a01b0319831681178455604051919092169283917f8be0079c531659141344cd1fd0a4f28419497f9722a3daafe3b4186f6b6457e09190a35050565b634e487b7160e01b600052604160045260246000fd5b600082601f8301126100d857600080fd5b81516001600160401b038111156100f1576100f16100b1565b604051601f8201601f19908116603f011681016001600160401b038111828210171561011f5761011f6100b1565b60405281815283820160200185101561013757600080fd5b60005b828110156101565760208186018101518383018201520161013a565b506000918101602001919091529392505050565b60008060006060848603121561017f57600080fd5b83516001600160401b0381111561019557600080fd5b6101a1868287016100c7565b602086015190945090506001600160401b038111156101bf57600080fd5b6101cb868287016100c7565b925050604084015190509250925092565b600181811c908216806101f057607f821691505b60208210810361021057634e487b7160e01b600052602260045260246000fd5b50919050565b601f82111561026057806000526020600020601f840160051c8101602085101561023d5750805b601f840160051c820191505b8181101561025d5760008155600101610249565b50505b505050565b81516001600160401b0381111561027e5761027e6100b1565b6102928161028c84546101dc565b84610216565b6020601f8211600181146102c657600083156102ae5750848201515b600019600385901b1c1916600184901b17845561025d565b600084815260208120601f198516915b828110156102f657878501518255602094850194600190920191016102d6565b50848210156103145786840151600019600387901b60f8161c191681555b50505050600190811b01905550565b608051611f8061033e60003960006102980152611f806000f3fe608060405234801561001057600080fd5b50600436106101425760003560e01c806370a08231116100b8578063a66f42c01161007c578063a66f42c014610293578063b88d4fde146102ba578063c87b56dd146102cd578063ce31402d146102e0578063e985e9c5146102f3578063f2fde38b1461032f57600080fd5b806370a082311461024c578063715018a61461025f5780638da5cb5b1461026757806395d89b4114610278578063a22cb4651461028057600080fd5b806318160ddd1161010a57806318160ddd146101e557806323b872dd146101ed5780632f745c591461020057806342842e0e146102135780634f6ccce7146102265780636352211e1461023957600080fd5b806301ffc9a714610147578063045aca3c1461016f57806306fdde0314610190578063081812fc146101a5578063095ea7b3146101d0575b600080fd5b61015a6101553660046117a8565b610342565b60405190151581526020015b60405180910390f35b61018261017d3660046118a4565b610353565b604051908152602001610166565b61019861036e565b6040516101669190611942565b6101b86101b3366004611955565b610400565b6040516001600160a01b039091168152602001610166565b6101e36101de36600461196e565b610427565b005b600954610182565b6101e36101fb366004611998565b610541565b61018261020e36600461196e565b610572565b6101e3610221366004611998565b610608565b610182610234366004611955565b610623565b6101b8610247366004611955565b6106b6565b61018261025a3660046119d5565b610716565b6101e361079c565b6000546001600160a01b03166101b8565b6101986107b0565b6101e361028e3660046119f0565b6107bf565b6101827f000000000000000000000000000000000000000000000000000000000000000081565b6101e36102c8366004611a2c565b6107ce565b6101986102db366004611955565b610806565b6101e36102ee366004611b5e565b610811565b61015a610301366004611c1d565b6001600160a01b03918216600090815260066020908152604080832093909416825291909152205460ff1690565b6101e361033d3660046119d5565b61087b565b600061034d826108f4565b92915050565b600061035d610919565b6103678383610973565b9392505050565b60606001805461037d90611c50565b80601f01602080910402602001604051908101604052809291908181526020018280546103a990611c50565b80156103f65780601f106103cb576101008083540402835291602001916103f6565b820191906000526020600020905b8154815290600101906020018083116103d957829003601f168201915b5050505050905090565b600061040b826109a4565b506000908152600560205260409020546001600160a01b031690565b6000610432826106b6565b9050806001600160a01b0316836001600160a01b0316036104a45760405162461bcd60e51b815260206004820152602160248201527f4552433732313a20617070726f76616c20746f2063757272656e74206f776e656044820152603960f91b60648201526084015b60405180910390fd5b336001600160a01b03821614806104c057506104c08133610301565b6105325760405162461bcd60e51b815260206004820152603d60248201527f4552433732313a20617070726f76652063616c6c6572206973206e6f7420746f60448201527f6b656e206f776e6572206f7220617070726f76656420666f7220616c6c000000606482015260840161049b565b61053c8383610a03565b505050565b61054b3382610a71565b6105675760405162461bcd60e51b815260040161049b90611c8a565b61053c838383610af0565b600061057d83610716565b82106105df5760405162461bcd60e51b815260206004820152602b60248201527f455243373231456e756d657261626c653a206f776e657220696e646578206f7560448201526a74206f6620626f756e647360a81b606482015260840161049b565b506001600160a01b03919091166000908152600760209081526040808320938352929052205490565b61053c838383604051806020016040528060008152506107ce565b600061062e60095490565b82106106915760405162461bcd60e51b815260206004820152602c60248201527f455243373231456e756d657261626c653a20676c6f62616c20696e646578206f60448201526b7574206f6620626f756e647360a01b606482015260840161049b565b600982815481106106a4576106a4611cd7565b90600052602060002001549050919050565b6000818152600360205260408120546001600160a01b03168061034d5760405162461bcd60e51b8152602060048201526018602482015277115490cdcc8c4e881a5b9d985b1a59081d1bdad95b88125160421b604482015260640161049b565b60006001600160a01b0382166107805760405162461bcd60e51b815260206004820152602960248201527f4552433732313a2061646472657373207a65726f206973206e6f7420612076616044820152683634b21037bbb732b960b91b606482015260840161049b565b506001600160a01b031660009081526004602052604090205490565b6107a4610919565b6107ae6000610c61565b565b60606002805461037d90611c50565b6107ca338383610cb1565b5050565b6107d83383610a71565b6107f45760405162461bcd60e51b815260040161049b90611c8a565b61080084848484610d7f565b50505050565b606061034d82610db2565b610819610919565b6000815183511461082957600080fd5b5060005b825181101561053c5761087283828151811061084b5761084b611cd7565b602002602001015183838151811061086557610865611cd7565b6020026020010151610973565b5060010161082d565b610883610919565b6001600160a01b0381166108e85760405162461bcd60e51b815260206004820152602660248201527f4f776e61626c653a206e6577206f776e657220697320746865207a65726f206160448201526564647265737360d01b606482015260840161049b565b6108f181610c61565b50565b60006001600160e01b03198216632483248360e11b148061034d575061034d82610eba565b6000546001600160a01b031633146107ae5760405162461bcd60e51b815260206004820181905260248201527f4f776e61626c653a2063616c6c6572206973206e6f7420746865206f776e6572604482015260640161049b565b6000610983600c80546001019055565b600061098e600c5490565b905061099a8482610edf565b6103678184611078565b6000818152600360205260409020546001600160a01b03166108f15760405162461bcd60e51b8152602060048201526018602482015277115490cdcc8c4e881a5b9d985b1a59081d1bdad95b88125160421b604482015260640161049b565b600081815260056020526040902080546001600160a01b0319166001600160a01b0384169081179091558190610a38826106b6565b6001600160a01b03167f8c5be1e5ebec7d5bd14f71427d1e84f3dd0314c0f7b2291e5b200ac8c7c3b92560405160405180910390a45050565b600080610a7d836106b6565b9050806001600160a01b0316846001600160a01b03161480610ac457506001600160a01b0380821660009081526006602090815260408083209388168352929052205460ff165b80610ae85750836001600160a01b0316610add84610400565b6001600160a01b0316145b949350505050565b826001600160a01b0316610b03826106b6565b6001600160a01b031614610b295760405162461bcd60e51b815260040161049b90611ced565b6001600160a01b038216610b8b5760405162461bcd60e51b8152602060048201526024808201527f4552433732313a207472616e7366657220746f20746865207a65726f206164646044820152637265737360e01b606482015260840161049b565b610b988383836001611143565b826001600160a01b0316610bab826106b6565b6001600160a01b031614610bd15760405162461bcd60e51b815260040161049b90611ced565b600081815260056020908152604080832080546001600160a01b03199081169091556001600160a01b0387811680865260048552838620805460001901905590871680865283862080546001019055868652600390945282852080549092168417909155905184937fddf252ad1be2c89b69c2b068fc378daa952ba7f163c4a11628f55a4df523b3ef91a4505050565b600080546001600160a01b038381166001600160a01b0319831681178455604051919092169283917f8be0079c531659141344cd1fd0a4f28419497f9722a3daafe3b4186f6b6457e09190a35050565b816001600160a01b0316836001600160a01b031603610d125760405162461bcd60e51b815260206004820152601960248201527f4552433732313a20617070726f766520746f2063616c6c657200000000000000604482015260640161049b565b6001600160a01b03838116600081815260066020908152604080832094871680845294825291829020805460ff191686151590811790915591519182527f17307eab39ab6107e8899845ad3d59bd9653f200f220920489ca2b5937696c31910160405180910390a3505050565b610d8a848484610af0565b610d968484848461119f565b6108005760405162461bcd60e51b815260040161049b90611d32565b6060610dbd826109a4565b6000828152600b602052604081208054610dd690611c50565b80601f0160208091040260200160405190810160405280929190818152602001828054610e0290611c50565b8015610e4f5780601f10610e2457610100808354040283529160200191610e4f565b820191906000526020600020905b815481529060010190602001808311610e3257829003601f168201915b505050505090506000610e6d60408051602081019091526000815290565b90508051600003610e7f575092915050565b815115610eb1578082604051602001610e99929190611d84565b60405160208183030381529060405292505050919050565b610ae8846112a0565b60006001600160e01b0319821663780e9d6360e01b148061034d575061034d82611313565b6001600160a01b038216610f355760405162461bcd60e51b815260206004820181905260248201527f4552433732313a206d696e7420746f20746865207a65726f2061646472657373604482015260640161049b565b6000818152600360205260409020546001600160a01b031615610f9a5760405162461bcd60e51b815260206004820152601c60248201527f4552433732313a20746f6b656e20616c7265616479206d696e74656400000000604482015260640161049b565b610fa8600083836001611143565b6000818152600360205260409020546001600160a01b03161561100d5760405162461bcd60e51b815260206004820152601c60248201527f4552433732313a20746f6b656e20616c7265616479206d696e74656400000000604482015260640161049b565b6001600160a01b038216600081815260046020908152604080832080546001019055848352600390915280822080546001600160a01b0319168417905551839291907fddf252ad1be2c89b69c2b068fc378daa952ba7f163c4a11628f55a4df523b3ef908290a45050565b6000828152600360205260409020546001600160a01b03166110f35760405162461bcd60e51b815260206004820152602e60248201527f45524337323155524953746f726167653a2055524920736574206f66206e6f6e60448201526d32bc34b9ba32b73a103a37b5b2b760911b606482015260840161049b565b6000828152600b6020526040902061110b8282611dfa565b506040518281527ff8e1a15aba9398e019f0b49df1a4fde98ee17ae345cb5f6b5e2c27f5033e8ce79060200160405180910390a15050565b6001600160a01b038416156111935760405162461bcd60e51b8152602060048201526016602482015275546f6b656e206e6f74207472616e7366657261626c6560501b604482015260640161049b565b61080084848484611363565b60006001600160a01b0384163b1561129557604051630a85bd0160e11b81526001600160a01b0385169063150b7a02906111e3903390899088908890600401611eb9565b6020604051808303816000875af192505050801561121e575060408051601f3d908101601f1916820190925261121b91810190611ef6565b60015b61127b573d80801561124c576040519150601f19603f3d011682016040523d82523d6000602084013e611251565b606091505b5080516000036112735760405162461bcd60e51b815260040161049b90611d32565b805181602001fd5b6001600160e01b031916630a85bd0160e11b149050610ae8565b506001949350505050565b60606112ab826109a4565b60006112c260408051602081019091526000815290565b905060008151116112e25760405180602001604052806000815250610367565b806112ec84611497565b6040516020016112fd929190611d84565b6040516020818303038152906040529392505050565b60006001600160e01b031982166380ac58cd60e01b148061134457506001600160e01b03198216635b5e139f60e01b145b8061034d57506301ffc9a760e01b6001600160e01b031983161461034d565b60018111156113d25760405162461bcd60e51b815260206004820152603560248201527f455243373231456e756d657261626c653a20636f6e7365637574697665207472604482015274185b9cd9995c9cc81b9bdd081cdd5c1c1bdc9d1959605a1b606482015260840161049b565b816001600160a01b03851661142e5761142981600980546000838152600a60205260408120829055600182018355919091527f6e1540171b6c0c960b71a7020d9f60077f6af931a8bbf590da0223dacf75c7af0155565b611451565b836001600160a01b0316856001600160a01b03161461145157611451858261152a565b6001600160a01b03841661146d57611468816115c7565b611490565b846001600160a01b0316846001600160a01b031614611490576114908482611676565b5050505050565b606060006114a4836116ba565b600101905060008167ffffffffffffffff8111156114c4576114c46117e1565b6040519080825280601f01601f1916602001820160405280156114ee576020820181803683370190505b5090508181016020015b600019016f181899199a1a9b1b9c1cb0b131b232b360811b600a86061a8153600a85049450846114f857509392505050565b6000600161153784610716565b6115419190611f13565b600083815260086020526040902054909150808214611594576001600160a01b03841660009081526007602090815260408083208584528252808320548484528184208190558352600890915290208190555b5060009182526008602090815260408084208490556001600160a01b039094168352600781528383209183525290812055565b6009546000906115d990600190611f13565b6000838152600a60205260408120546009805493945090928490811061160157611601611cd7565b90600052602060002001549050806009838154811061162257611622611cd7565b6000918252602080832090910192909255828152600a9091526040808220849055858252812055600980548061165a5761165a611f34565b6001900381819060005260206000200160009055905550505050565b600061168183610716565b6001600160a01b039093166000908152600760209081526040808320868452825280832085905593825260089052919091209190915550565b60008072184f03e93ff9f4daa797ed6e38ed64bf6a1f0160401b83106116f95772184f03e93ff9f4daa797ed6e38ed64bf6a1f0160401b830492506040015b6d04ee2d6d415b85acef81000000008310611725576d04ee2d6d415b85acef8100000000830492506020015b662386f26fc10000831061174357662386f26fc10000830492506010015b6305f5e100831061175b576305f5e100830492506008015b612710831061176f57612710830492506004015b60648310611781576064830492506002015b600a831061034d5760010192915050565b6001600160e01b0319811681146108f157600080fd5b6000602082840312156117ba57600080fd5b813561036781611792565b80356001600160a01b03811681146117dc57600080fd5b919050565b634e487b7160e01b600052604160045260246000fd5b604051601f8201601f1916810167ffffffffffffffff81118282101715611820576118206117e1565b604052919050565b60008067ffffffffffffffff841115611843576118436117e1565b50601f8301601f1916602001611858816117f7565b91505082815283838301111561186d57600080fd5b828260208301376000602084830101529392505050565b600082601f83011261189557600080fd5b61036783833560208501611828565b600080604083850312156118b757600080fd5b6118c0836117c5565b9150602083013567ffffffffffffffff8111156118dc57600080fd5b6118e885828601611884565b9150509250929050565b60005b8381101561190d5781810151838201526020016118f5565b50506000910152565b6000815180845261192e8160208601602086016118f2565b601f01601f19169290920160200192915050565b6020815260006103676020830184611916565b60006020828403121561196757600080fd5b5035919050565b6000806040838503121561198157600080fd5b61198a836117c5565b946020939093013593505050565b6000806000606084860312156119ad57600080fd5b6119b6846117c5565b92506119c4602085016117c5565b929592945050506040919091013590565b6000602082840312156119e757600080fd5b610367826117c5565b60008060408385031215611a0357600080fd5b611a0c836117c5565b915060208301358015158114611a2157600080fd5b809150509250929050565b60008060008060808587031215611a4257600080fd5b611a4b856117c5565b9350611a59602086016117c5565b925060408501359150606085013567ffffffffffffffff811115611a7c57600080fd5b8501601f81018713611a8d57600080fd5b611a9c87823560208401611828565b91505092959194509250565b600067ffffffffffffffff821115611ac257611ac26117e1565b5060051b60200190565b600082601f830112611add57600080fd5b8135611af0611aeb82611aa8565b6117f7565b8082825260208201915060208360051b860101925085831115611b1257600080fd5b602085015b83811015611b5457803567ffffffffffffffff811115611b3657600080fd5b611b45886020838a0101611884565b84525060209283019201611b17565b5095945050505050565b60008060408385031215611b7157600080fd5b823567ffffffffffffffff811115611b8857600080fd5b8301601f81018513611b9957600080fd5b8035611ba7611aeb82611aa8565b8082825260208201915060208360051b850101925087831115611bc957600080fd5b6020840193505b82841015611bf257611be1846117c5565b825260209384019390910190611bd0565b9450505050602083013567ffffffffffffffff811115611c1157600080fd5b6118e885828601611acc565b60008060408385031215611c3057600080fd5b611c39836117c5565b9150611c47602084016117c5565b90509250929050565b600181811c90821680611c6457607f821691505b602082108103611c8457634e487b7160e01b600052602260045260246000fd5b50919050565b6020808252602d908201527f4552433732313a2063616c6c6572206973206e6f7420746f6b656e206f776e6560408201526c1c881bdc88185c1c1c9bdd9959609a1b606082015260800190565b634e487b7160e01b600052603260045260246000fd5b60208082526025908201527f4552433732313a207472616e736665722066726f6d20696e636f72726563742060408201526437bbb732b960d91b606082015260800190565b60208082526032908201527f4552433732313a207472616e7366657220746f206e6f6e20455243373231526560408201527131b2b4bb32b91034b6b83632b6b2b73a32b960711b606082015260800190565b60008351611d968184602088016118f2565b835190830190611daa8183602088016118f2565b01949350505050565b601f82111561053c57806000526020600020601f840160051c81016020851015611dda5750805b601f840160051c820191505b818110156114905760008155600101611de6565b815167ffffffffffffffff811115611e1457611e146117e1565b611e2881611e228454611c50565b84611db3565b6020601f821160018114611e5c5760008315611e445750848201515b600019600385901b1c1916600184901b178455611490565b600084815260208120601f198516915b82811015611e8c5787850151825560209485019460019092019101611e6c565b5084821015611eaa5786840151600019600387901b60f8161c191681555b50505050600190811b01905550565b6001600160a01b0385811682528416602082015260408101839052608060608201819052600090611eec90830184611916565b9695505050505050565b600060208284031215611f0857600080fd5b815161036781611792565b8181038181111561034d57634e487b7160e01b600052601160045260246000fd5b634e487b7160e01b600052603160045260246000fdfea26469706673582212203dd1574f89b4755ed8f4befb2db932b364e6e52841b69ef3123289d96a5e599764736f6c634300081a0033",
  "linkReferences": {},
  "deployedLinkReferences": {}
}